:020000009C283A
:10000800080083178001840AFF3E031D06289728ED
:10001800031783168C010C1483120C0803178D0A1E
:100028009728030103178C0083168C010C15553093
:100038008D00AA308D008C148C1820280C11831286
:100048008D0A9728A301A200FF30A207031CA3076B
:10005800031C97280330A100E33034202828A1018D
:10006800F43EA000A109FE30031C3D28A007031898
:100078003A28A0076400A10F3A2800002018442855
:10008800201846280800013EA7000A30A200A30154
:100098006520A70B4C2824080800A301A200023001
:1000A8005528A80023082102031D5C2822082002E5
:1000B800043003180130031902302805031DFF30EE
:1000C8009728A501A4011030A600210DA40DA50DA7
:1000D8002208A4022308031C230FA50203187B2867
:1000E8002208A40723080318230FA5070310A00D4F
:1000F800A10DA60B6928200897281030A800A10197
:10010800A001A70CA60C031C8F282208A00723080F
:100118000318230FA107A10CA00CA50CA40CA80B75
:100128008528240897288313031383126400080082
:100138008A11152B0330A300E8308A012720941672
:10014800141414128316141783128C118316941323
:10015800831205150A308A01262005110710FE01B1
:10016800FF0108002A30D0008A11E82583160530DF
:10017800AE0083128A1178222130D0000130D100DC
:1001880083160130AE0083128A1178222230D00003
:100198000130D10083160130AE0083128A11782213
:1001A8002530D00003178D0103138A010C20D100DC
:1001B80083160130AE0083128A1178223130D000C4
:1001C8001630D10083160130AE0083128A117822CE
:1001D8002630D0000730D10083160130AE008312DC
:1001E8008A11782283160130B90083128A11892175
:1001F8008316B9014030B1004B30B3000130B5006F
:10020800E230B60083128A11B02183160130B9009A
:10021800C030B1004B30B300B501B60183128A116A
:10022800B02183160230B900D030B100FC30B300E1
:100238008C30B5000230B60083128A11B0218316C3
:100248000330B9009930B100B3013930B5004130FD
:10025800B60083128A11B02183160430B900D93050
:10026800B1009630B3008230B5001B30B60083125F
:100278008A11B02183160530B9002830B100023048
:10028800B3007F30B500A630B60083128A11B021C2
:1002980083160C30B900B1011230B3007330B500C9
:1002A800B60183128A11B02183160D30B900463089
:1002B800B100B430B3008030B500B60183128A11A2
:1002C800B0212E30D0004130D1002030D20008308B
:1002D800D3000430D4008130D5002030D600CF3090
:1002E800D700F730D800FE30D900FF30DA00FF30F1
:1002F800DB0083160B30AE0083128A117822831636
:10030800B90183128A11892108000730D0008316A9
:100318000130AE0083128A11952280303805831689
:10032800A000A10120088312A000831621088312CF
:10033800A1008316390883128A0151208A11031DEE
:10034800AF295030D0005330D10083160130AE00B1
:1003580083128A1178220800203083163907831205
:10036800D000831631088312D10083163308831214
:10037800D200831635088312D300831636088312F9
:10038800D40083160430AE0083128A117822080044
:100398001E308A0126208A116522E130D00083169A
:1003A800AE0183128A1178222730D0003030D10074
:1003B80083160130AE0083128A1178228A11F62240
:1003C800A030D000831627088312D100831602308C
:1003D800BC0083126400183083163C028A11831211
:1003E8000318202AFE3083163C07A000FF300318AC
:1003F800013EA1002008683E84008312000883168D
:10040800A0003C08503E8400200883128000831618
:100418003C08503E8400831200088316A000640044
:1004280020080A3C8A1183120319202A8316BC0A61
:100438008A118312031DEE2983161630AE0083122B
:100448008A1178220130A100F4308A013420051580
:100458000130A100F4308A013420051101308A01ED
:10046800262064008A110719352A0730D000831620
:100478000130AE0083128A11952270303805831638
:10048800BB0064003B08103C8A118312031D4E2AEE
:100498008A11BA22640083163B08303C8A11831201
:1004A800031D582A8A11CC222730D0002030D100D1
:1004B80083160130AE0083128A1178228A116522D0
:1004C800080005110130A100F4308A013420051517
:1004D8000130A100F4308A01342005110130A10057
:1004E800F4308A013420080007108316BC018312F7
:1004F800640083163C082E028A118312031C932A77
:1005080083163C08503E84008312000893008A1129
:10051800B4228316BC0A8A118312031D7C2A07148D
:10052800080007108316BC018312640083163C0878
:100538002E028A118312031CB22A500893008A11D2
:10054800B42283163C08383E8400831213088000C6
:100558008316BC0A8A118312031D992A07140800FE
:1005680064008A118C1DB42A8C110800E130D00077
:100578008316AE0183128A0178222730D00010300A
:10058800D10083160130AE0083128A017822080058
:10059800E130D0008316AE0183128A017822273019
:1005A800D0003030D10083160130AE0083128A01AA
:1005B800782208008A0165222030D0000F30D1004F
:1005C80083160130AE0083128A0178220800203099
:1005D800D0000D30D10083160130AE0083128A019D
:1005E800782208003030D0008A111526831605308D
:1005F800AE0083128A0178222430D0003530D10031
:1006080083160130AE0083128A0178222030D00090
:100618000E30D10083160130AE0083128A01782291
:100628000800831670308F00831203179E019F0104
:1006380099019A010313A0308B0083168C010730AF
:1006480081008B1783128A112D2B8B1B08008A11AE
:10065800CF2C8A0129238316850183128A01292335
:1006680083161030860083128A01292383160430EA
:10067800870083128A0129232030840060308A0190
:100688000620A030840050308A01062020308400E3
:1006980050308A0105208A01292303170A308D006A
:1006A80003138A010C208316A70083128A012923C9
:1006B80085128316851283128A012923051283164F
:1006C800051283128A01292307128316071283123F
:1006D8008A01292387118316871183128A01292306
:1006E80007138316071383128A0129238712831697
:1006F800871283128A0129238A019E208A012923CD
:100708008A01B6208A0129238A01B6208A01292371
:100718008A01DE228A01292302308A0126208A01E1
:10072800292305158A01292364006808003C8A11D9
:100738000319C02B8A012923640083162508013C6C
:100748008A118312031DB32B8A0129238A01B6203B
:100758008A0129238316A50183128A0129238A0184
:1007680029238A01CC218A012923E8018A01292326
:100778008A018A2B8A0129238A01292364008A1184
:100788000719962B8A01292305118A01292361302B
:10079800D0008A01292383161630AE0083128A01FD
:1007A80029238A0195228A012923E8018A0129231C
:1007B80064003908831627028A118312031D902CBE
:1007C8008A01292364003A08633C8A11031D402CDE
:1007D8008A01292364003B083D3C8A11031D3C2CF7
:1007E8008A0129238316AA01831264000B30831619
:1007F8002A028A1183120318202C83162A088312CE
:1008080003178D000430831603132A07A000A101E3
:10081800A10D2008383E8400831200088316A0002A
:10082800200883128A0116208A0129238316AA0A1E
:100838008A118312031DF92B8A01292303170A3011
:100848008D0003138A010C208316A70083128A01E6
:100858002923FA308A0126208A01292383160130A8
:10086800A50083128A0129238A11EC248A012923ED
:100878008A0129238A116C2C64003A08733C8A1176
:10088800031D562C8A0129233230E8008A012923C6
:100898007C30E9008A0129230A30EA008A012923E9
:1008A8008A116C2C64003A08703C8A11031D6C2C68
:1008B8008A01292364003B086E3C8A11031D6A2CB7
:1008C8008A0129238A11EC248A0129238A012923F0
:1008D8008A01292364006808003C8A11031D8E2CB4
:1008E8008A0129234530E8008A0129235230E9008A
:1008F8008A0129235230EA008A0129234F30EB006C
:100908008A0129235230EC008A0129230A30ED009C
:100918008A0129238A0129238A0129231730D00033
:100928008A01292383160130AE0083128A01292304
:100938008A0195228A01292339088316BB0083126C
:100948008A01292364008A11831683103B1C8314AF
:1009580083128318C92B8A0129232730D0008A01E2
:1009680029234030D1008A01292383160130AE00A3
:1009780083128A0129238A0178228A0129230230D5
:100988008A0126208A0129238A018A2B8A012923A0
:1009980063008A01CC2C64008A110B1DEA2C831693
:1009A800BA0A64001F303A028A118312031CE92C28
:1009B8008316BA01AF0A64003B302F028A118312F2
:1009C800031CE92C8316AF0183120B118B17090046
:1009D8008A0129234F30E8008A0129234B30E90096
:1009E8008A0129230A30EA008A01292308008A019A
:1009F80029238316A60183128A01292383166130CD
:100A0800B70083128A0129238316A4018312640084
:100A18000330831624028A1183120318832D8A0156
:100A2800292383166130B00083128A012923831693
:100A38002A08383E8400831200088316B200831205
:100A48008A0129236400831632087C3C8A118312A8
:100A5800031D2F2D08008A0129238A1186258A0162
:100A68002923640083163008613C8A118312031D10
:100A78003E2D08008A012923640083162408003CBF
:100A88008A118312031D582D8A01292383163008E1
:100A9800B70083128A01292383160130A600831226
:100AA8008A0129238A11762D8A012923831637087A
:100AB8008312A600A7010A30A200A3018A0181209F
:100AC8008316A000831225088316A100200830078A
:100AD800B70083128A01292383160130A6008312E6
:100AE8008A0129238A0129238316AA0A83128A01E3
:100AF80029238316A40A8A118312031D0B2D8A0148
:100B0800292308008A012923FF30A200A20A22080B
:100B1800093C8A11031CAF2D8A119E2583163202C7
:100B28008A118312031D8A2D22088316B0008312AE
:100B38008A11AF2D05308A002208A53E03188A0ABB
:100B4800820030343134323433343434353436344A
:100B58003734383439348A01292308008A01292393
:100B6800831637088312A000A10102308A014720AA
:100B78008316A000A10130302007B40083128A0137
:100B88002923831637088312A000A10101308A01A6
:100B980047208316A000A10130302007B20083123D
:100BA8008A012923831637088312A000A101003087
:100BB8008A0147208316A000A10130302007B00029
:100BC80083128A01292308008A0129230317063082
:100BD8008D0003138A010C20D1008A0129230317F1
:100BE80007308D0003138A010C20D2008A012923C3
:100BF800031708308D0003138A010C20D3008A01E3
:100C08002923031709308D0003138A010C20D4000F
:100C18008A012923831627088312D5008A012923EC
:100C280008008A012923031701308D0003138A0164
:100C38000C20D1008A012923031702308D000313E9
:100C48008A010C20D2008A012923031703308D0062
:100C580003138A010C20D3008A01292303170430C7
:100C68008D0003138A010C20D4008A01292303175D
:100C780005308D0003138A010C20D5008A01292331
:020C8800080062
:02400E00CC3FA5
:104200002800520045004D004F0054004500480072
:104210004F004D0000000000000000000000000002
:00000001FF
