:020000009C283A
:10000800080083178001840AFF3E031D06289728ED
:10001800031783168C010C1483120C0803178D0A1E
:100028009728030103178C0083168C010C15553093
:100038008D00AA308D008C148C1820280C11831286
:100048008D0A9728A301A200FF30A207031CA3076B
:10005800031C97280330A100E33034202828A1018D
:10006800F43EA000A109FE30031C3D28A007031898
:100078003A28A0076400A10F3A2800002018442855
:10008800201846280800013EA7000A30A200A30154
:100098006520A70B4C2824080800A301A200023001
:1000A8005528A80023082102031D5C2822082002E5
:1000B800043003180130031902302805031DFF30EE
:1000C8009728A501A4011030A600210DA40DA50DA7
:1000D8002208A4022308031C230FA50203187B2867
:1000E8002208A40723080318230FA5070310A00D4F
:1000F800A10DA60B6928200897281030A800A10197
:10010800A001A70CA60C031C8F282208A00723080F
:100118000318230FA107A10CA00CA50CA40CA80B75
:100128008528240897288313031383126400080082
:100138008A11312BC8308A012620941614141412FF
:100148008316141783128C118316941383120515C2
:100158000A308A01262005110710FE01FF01080058
:100168002A30D0008A11042683160530AE00831287
:100178008A1192222130D0000130D100831601303B
:10018800AE0083128A1192222230D0000130D100B1
:1001980083160130AE0083128A1192222530D000D6
:1001A80003178D0103138A010C20D1008316013037
:1001B800AE0083128A1192223130D0001630D1005D
:1001C80083160130AE0083128A1192222630D000A5
:1001D8003730D10083160130AE0083128A11922283
:1001E80083160130B90083128A11A3218316B9013D
:1001F8004030B1004B30B3000130B500E230B600FA
:1002080083128A11CA2183160130B900C030B100A7
:100218004B30B300B501B60183128A11CA21831687
:100228000230B900D030B100FC30B3008C30B500DA
:100238000230B60083128A11CA2183160330B9002E
:100248009930B100B3013930B5004130B60083129E
:100258008A11CA2183160430B900B930B1009E3022
:10026800B3008630B5000B30B60083128A11CA215C
:1002780083160530B9002430B1000630B3007F3052
:10028800B500A630B60083128A11CA21831606303B
:10029800AC00831264000C3083162C028A1183127E
:1002A8000318662983162C08B900B101B301B501FA
:1002B800B60183128A11CA218316AC0A8A118312E5
:1002C800031D4E2983160C30B900B1011230B3005A
:1002D8007330B500B60183128A11CA2183160D3016
:1002E800B9003630B100B430B3008030B500B60183
:1002F80083128A11CA212E30D0004130D10020301B
:10030800D2000830D3000430D4008130D50020302A
:10031800D600CF30D700F730D800FE30D900FF30F4
:10032800DA00FF30DB0083160B30AE0083128A112F
:1003380092228316B90183128A11A321080007307B
:10034800D00083160130AE0083128A11AF228030AC
:1003580038058316A000A10120088312A000831687
:1003680021088312A1008316390883128A015120BB
:100378008A11031DC9295030D0005330D10083168B
:100388000130AE0083128A119222080020308316B1
:1003980039078312D000831631088312D1008316DF
:1003A80033088312D200831635088312D3008316CC
:1003B80036088312D40083160430AE0083128A11E3
:1003C800922208001E308A0126208A117F22E130FD
:1003D800D0008316AE0183128A1192222730D000F2
:1003E8003030D10083160130AE0083128A11922278
:1003F8008A111223A030D000831627088312D10057
:1004080083160230BC0083126400183083163C0245
:100418008A11831203183A2AFE3083163C07A0007B
:10042800FF300318013EA1002008683E84008312B3
:1004380000088316A0003C08503E84002008831260
:10044800800083163C08503E8400831200088316FF
:10045800A000640020080A3C8A11831203193A2A72
:100468008316BC0A8A118312031D082A83161630C4
:10047800AE0083128A1192220130A100F4308A0161
:10048800342005150130A100F4308A01342005110B
:1004980001308A01262064008A1107194F2A073083
:1004A800D00083160130AE0083128A11AF2270305B
:1004B80038058316BB0064003B08103C8A11831280
:1004C800031D682A8A11D422640083163B08303C35
:1004D8008A118312031D722A8A11E6222730D0005E
:1004E8002030D10083160130AE0083128A11922287
:1004F8008A117F22080005110130A100F4308A0119
:10050800342005150130A100F4308A01342005118A
:100518000130A100F4308A01342008000710831646
:10052800BC018312640083163C082E028A118312D0
:10053800031CAD2A83163C08503E84008312000831
:1005480093008A11CE228316BC0A8A118312031DD6
:10055800962A0714080007108316BC01831264004A
:1005680083163C082E028A118312031CCC2A5008D9
:1005780093008A11CE2283163C08383E84008312E9
:10058800130880008316BC0A8A118312031DB32A3C
:100598000714080064008A118C1DCE2A8C110800EB
:1005A800E130D0008316AE0183128A0192222730EF
:1005B800D0001030D10083160130AE0083128A01BA
:1005C80092220800E130D0008316AE0183128A011E
:1005D80092222730D0003030D10083160130AE008F
:1005E80083128A01922208008A017F222030D000DB
:1005F8000F30D10083160130AE0083128A01922297
:100608008A017F2208002030D0000D30D1008316E7
:100618000130AE0083128A01922208003030D000E7
:100628008A11312683160530AE0083128A01922280
:100638002430D0003530D10083160130AE0083124B
:100648008A0192222030D0000E30D100831601306A
:10065800AE0083128A0192220800831670308F0040
:10066800831203179E019F0199019A010313A03079
:100678008B0083168C01073081008B1783128A1137
:10068800492B8B1B08008A11EB2C8A014523831602
:10069800850183128A014523831610308600831250
:1006A8008A01452383160430870083128A01452373
:1006B8002030840060308A010620A0308400503049
:1006C8008A0106202030840050308A0105208A01E2
:1006D800452303170A308D0003138A010C20831663
:1006E800A70083128A014523851283168512831277
:1006F8008A01452305128316051283128A014523B0
:1007080007128316071283128A014523871183165D
:10071800871183128A01452307138316071383124F
:100728008A01452387128316871283128A0145237B
:100738008A019E208A0145238A01B4208A01452323
:100748008A01B4208A0145238A01F8228A014523B7
:1007580002308A0126208A01452305158A0145238E
:1007680064006808003C8A110319DC2B8A014523C0
:10077800640083162508013C8A118312031DCF2BC0
:100788008A0145238A01B4208A0145238316A501DD
:1007980083128A0145238A0145238A01E6218A01B9
:1007A8004523E8018A0145238A01A62B8A014523AE
:1007B8008A01452364008A110719B22B8A0145234F
:1007C80005118A0145236130D0008A01452383162B
:1007D8001630AE0083128A0145238A01AF228A01AE
:1007E8004523E8018A014523640039088316270256
:1007F8008A118312031DAC2C8A01452364003A0830
:10080800633C8A11031D5C2C8A01452364003B0864
:100818003D3C8A11031D582C8A0145238316AA01E1
:10082800831264000B3083162A028A11831203187C
:100838003C2C83162A08831203178D000430831674
:1008480003132A07A000A101A10D2008383E840047
:10085800831200088316A000200883128A0116203C
:100868008A0145238316AA0A8A118312031D152CAF
:100878008A01452303170A308D0003138A010C20CF
:100888008316A70083128A014523FA308A0126209D
:100898008A01452383160130A50083128A01452366
:1008A8008A1108258A0145238A0145238A11882C43
:1008B80064003A08733C8A11031D722C8A0145238F
:1008C8003230E8008A0145237C30E9008A0145235B
:1008D8000A30EA008A0145238A11882C64003A0804
:1008E800703C8A11031D882C8A01452364003B084B
:1008F8006E3C8A11031D862C8A0145238A1108251E
:100908008A0145238A0145238A0145236400680832
:10091800003C8A11031DAA2C8A0145234530E800B2
:100928008A0145235230E9008A0145235230EA0002
:100938008A0145234F30EB008A0145235230EC00F1
:100948008A0145230A30ED008A0145238A0145239F
:100958008A0145231730D0008A01452383160130C8
:10096800AE0083128A0145238A01AF228A014523FA
:1009780039088316BB0083128A01452364008A1153
:10098800831683103B1C831483128318E52B8A017A
:1009980045232730D0008A0145234030D1008A0101
:1009A800452383160130AE0083128A0145238A014C
:1009B80092228A01452302308A0126208A01452392
:1009C8008A01A62B8A01452363008A01E82C64006A
:1009D8008A110B1D062D8316BA0A64001F303A02CD
:1009E8008A118312031C052D8316BA01AF0A64000D
:1009F8003B302F028A118312031C052D8316AF0189
:100A080083120B118B1709008A0145234F30E80028
:100A18008A0145234B30E9008A0145230A30EA0060
:100A28008A01452308008A0145238316A6018312FB
:100A38008A01452383166130B70083128A01452352
:100A48008316A401831264000330831624028A11DA
:100A5800831203189F2D8A01452383166130B00045
:100A680083128A01452383162A08383E840083129C
:100A780000088316B20083128A0145236400831696
:100A880032087C3C8A118312031D4B2D08008A0111
:100A980045238A11A2258A0145236400831630085C
:100AA800613C8A118312031D5A2D08008A014523CF
:100AB800640083162408003C8A118312031D742DD8
:100AC8008A01452383163008B70083128A0145231B
:100AD80083160130A60083128A0145238A11922DBC
:100AE8008A014523831637088312A600A7010A3016
:100AF800A200A3018A0181208316A0008312250881
:100B08008316A10020083007B70083128A01452305
:100B180083160130A60083128A0145238A014523E2
:100B28008316AA0A83128A0145238316A40A8A1106
:100B38008312031D272D8A01452308008A014523B6
:100B4800FF30A200A20A2208093C8A11031CCB2DFF
:100B58008A11BA25831632028A118312031DA62D23
:100B680022088316B00083128A11CB2D05308A0023
:100B78002208C13E03188A0A8200303431343234E4
:100B880033343434353436343734383439348A01EC
:100B9800452308008A014523831637088312A000DD
:100BA800A10102308A0147208316A000A10130303C
:100BB8002007B40083128A0145238316370883125D
:100BC800A000A10101308A0147208316A000A101DD
:100BD80030302007B20083128A0145238316370874
:100BE8008312A000A10100308A0147208316A000CB
:100BF800A10130302007B00083128A014523080084
:100C08008A014523031706308D0003138A010C203F
:100C1800D1008A014523031707308D0003138A0189
:100C28000C20D2008A014523031708308D000313D6
:100C38008A010C20D3008A014523031709308D004F
:100C480003138A010C20D4008A0145238316270840
:100C58008312D5008A01452308008A01452303171A
:100C680001308D0003138A010C20D1008A0145232D
:100C7800031702308D0003138A010C20D2008A0169
:100C88004523031703308D0003138A010C20D3007A
:100C98008A014523031704308D0003138A010C20B1
:100CA800D4008A014523031705308D0003138A01F8
:0A0CB8000C20D5008A014523080036
:02400E00CC3FA5
:104200002800520045004D004F0054004500480072
:104210004F004D0000000000000000000000000002
:00000001FF
