:020000002E29A7
:100008000800083033190130A300A2013608840023
:100018003408492034088004292129218413000543
:10002800FF3E331DA20C3319A20D32309320A30BCF
:100038000C28220803142929A2000830331901309A
:10004800A300A20C36088400340849203408031899
:1000580080043730932034088004A30B2528031428
:100068002929B31C29293B28B300331C2929360820
:100078008400340849200130A100E030942034087D
:1000880080040130A100E0309428FF3A80054C2814
:100098008417800529290F39A0000310A00DA00D91
:1000A8001F08C039200401389F000030A1003230F9
:1000B80094209F149F185E281E08A10083161E080E
:1000C800292983178001840AFF3E031D66282929F0
:1000D800031783168C010C1483120C0803178D0A5E
:1000E8002929030103178C0083168C010C15553040
:1000F8008D00AA308D008C148C1880280C11831266
:100108008D0A2929A301A200FF30A207031CA30717
:10011800031C29290330A100E33094208828A10179
:10012800F43EA000A109FE30031C9D28A007031877
:100138009A28A0076400A10F9A2800002018A42874
:100148002018A6280800A701A6001C30A2006F30BE
:10015800A30013210F30831681048312FF3063003C
:10016800A007031CA1070318B3282929013EA700EB
:100178000A30A200A301F720A70BBF282408080013
:100188000310A10CA00CFF3E0318C428200829293D
:10019800A301A2000230D928A301A2000330D92864
:1001A800A2000630D928A2000530A80023082102A1
:1001B800031DE02822082002043003180130031927
:1001C80002302805031DFF302929A2002008A600B7
:1001D8002408A0002608A4002108A6002508A100DC
:1001E8002608A500F928A501A4011030A600210DB4
:1001F800A40DA50D2208A4022308031C230FA502A1
:1002080003180D292208A40723080318230FA5079C
:100218000310A00DA10DA60BFB28200829291030DA
:10022800A800A101A001A70CA60C031C21292208E3
:10023800A00723080318230FA107A10CA00CA50CE5
:10024800A40CA80B17292408292983130313831244
:10025800640008008A11212C32308A018620941605
:10026800141414128316141783128C118316941302
:10027800831205150A308A01862005110710831696
:10028800B001B101831208002A30D00003170130F1
:100298008D0003138A016C20D100031702308D00F2
:1002A80003138A016C20D200031703308D00031357
:1002B8008A016C20D300031704308D0003138A01D0
:1002C8006C20D400031705308D0003138A016C20BD
:1002D800D50083160530CF0083128A1151232130AF
:1002E800D0000130D10083160130CF0083128A116B
:1002F80051232230D0000130D10083160130CF00C5
:1003080083128A1151232530D00003178D0103135E
:100318008A016C20D10083160130CF0083128A1124
:1003280051233130D0001630D10083160130CF0070
:1003380083128A1151232630D0003730D10083161A
:100348000130CF0083128A11512383160130DB005C
:1003580083128A1158228316DB014030D3004B30B8
:10036800D5000130D700E230D80083128A117F22ED
:1003780083160130DB00C030D3004B30D500D701E5
:10038800D80183128A117F2283160230DB00D03015
:10039800D300FC30D5008C30D7000230D80083124F
:1003A8008A117F2283160330DB009930D300D501F0
:1003B8003930D7004130D80083128A117F22831642
:1003C8000430DB00B930D3009E30D5008630D7002A
:1003D8000B30D80083128A117F2283160530DB0088
:1003E8002430D3000630D5007F30D700A630D8009F
:1003F80083128A117F2283160630CA008312640092
:100408000C3083164A028A11831203181B2A83169A
:100418004A08DB00D301D501D701D80183128A111C
:100428007F228316CA0A8A118312031D032A8316A0
:100438000C30DB00D3011230D5007330D700D8015F
:1004480083128A117F2283160D30DB003630D300E9
:10045800B430D5008030D700D80183128A117F22AA
:100468002E30D0004130D1002030D2000830D300E7
:100478000430D4008130D5002030D600CF30D700EA
:10048800F730D800FE30D900FF30DA00FF30DB004B
:1004980083160B30CF0083128A1151238316DB0198
:1004A80083128A11582208000730D00083160130C1
:1004B800CF0083128A116E23803038058316B4006A
:1004C800B50134088312A000831635088312A100F1
:1004D80083165B0883128A01CC208A11031D7E2AA9
:1004E8005030D0005330D10083160130CF00831232
:1004F8008A1151230800203083165B078312D0002D
:10050800831653088312D100831655088312D2002C
:10051800831657088312D300831658088312D40011
:1005280083160430CF0083128A11512308008A11E0
:100538003E2302308A0186208A113E23E130D00012
:100548008316CF0183128A1151232730D00030300F
:10055800D10083160130CF0083128A1151238A11EA
:10056800E123A030D000831646088312D1008316F9
:100578000230DF0083126400183083165F028A118C
:1005880083120318F12AFE3083165F07B400FF3088
:100598000318013EB5003408683E84008312000841
:1005A8008316B4005F08503E84003408831280002C
:1005B80083165F08503E8400831200088316B40037
:1005C800640034080A3C8A1183120319F12A83163D
:1005D800DF0A8A118312031DBF2A83161630CF0043
:1005E80083128A1151230130A100F4308A0194202A
:1005F80005150130A100F4308A01942005110A3054
:100608008A01862064008A110719062B0730D0005A
:1006180083160130CF0083128A116E23703038059B
:100628008316DE0064005E08103C8A118312031DE5
:100638001F2B8A119323640083165E08303C8A11AD
:100648008312031D292B8A11A5232730D0002030BF
:10065800D10083160130CF0083128A115123023052
:100668008A0186208A113E2302308A0186208A1157
:100678003E23080005110130A100F4308A019420BE
:1006880005150130A100F4308A01942005110130CC
:10069800A100F4308A019420080007108316DF01B6
:1006A8008312640083165F084F028A118312031CA9
:1006B8006C2B83165F08503E840083120008930059
:1006C8008A118D238316DF0A8A118312031D552B85
:1006D8000714080007108316DF01831264008316CD
:1006E8005F084F028A118312031C8B2B500893005A
:1006F8008A118D2383165F08383E840083121308FD
:1007080080008316DF0A8A118312031D722B0714D7
:10071800080064008A118C1D8D2B8C110800E130B3
:10072800D0008316CF0183128A0151232730D000CD
:100738001030D10083160130CF0083128A01512373
:100748000800E130D0008316CF0183128A015123BB
:100758002730D0003030D10083160130CF0083120B
:100768008A015123080002308A0186208A013E232B
:1007780002308A0186208A013E232030D0000F30C3
:10078800D10083160130CF0083128A015123023031
:100798008A0186208A013E2302308A0186208A0146
:1007A8003E2308002030D0000D30D10083160130E0
:1007B800CF0083128A01512308003030D00003177C
:1007C80001308D0003138A016C20D1000317023019
:1007D8008D0003138A016C20D200031703308D00AB
:1007E80003138A016C20D300031704308D00031310
:1007F8008A016C20D400031705308D0003138A0189
:100808006C20D50083160530CF0083128A0151234E
:100818002430D0000A30D10083160130CF00831273
:100828008A0151232030D0000E30D10083160130C8
:10083800CF0083128A01512308009F178316703056
:100848008F00831203179E0108309F0099019A01B7
:100858000313A0308B0083168C01043081008B17A2
:1008680083128A113B2C8B1B08008A15F8288A01F1
:10087800372483163030850083128A013724831683
:100888003030860083128A013724831604308700AB
:1008980083128A0137242030840060308A01662060
:1008A800A030840050308A01662020308400503007
:1008B8008A0165208A0137248316851683128A01E6
:1008C8003724031706308D0003138A016C20831622
:1008D800C60083128A013724031707308D000313DB
:1008E8008A016C208316AD0083128A01372403170E
:1008F80008308D0003138A016C208316AC00831224
:100908008A013724031709308D0003138A016C20EC
:100918008316B200B30183128A01372403170A3001
:100928008D0003138A016C208316DC0083128A0170
:10093800372403170B308D0003138A016C208316AC
:10094800C20083128A0137248A1542228A01372479
:100958008A0130218A013724640083164608003C46
:100968008A1183120319BC2C83160430CC0083121D
:100978008A0137248A0148218A0137248A01B7234A
:100988008A01372402308A0186208A013724051516
:100998008A013724640083164C08013C8A118312AB
:1009A800031DFF2C8A013724831632088312A00006
:1009B800831633088312A100A30100308A01CD20D9
:1009C8008A11031DFD2C8A01372483160230CC00BE
:1009D80083128A0137248316D10183128A013724AE
:1009E8008316DD0183128A0137248A15C5248A01FA
:1009F80037248A0137248A013724640083164C0877
:100A0800033C8A118312031D1F2D8A0137246400B9
:100A180083164D08003C8A118312031D1D2D8A017F
:100A280037248A15F6238A0137248A15E6268A018F
:100A380037248A0137248A01372464006808003C77
:100A48008A1103194F2D8A0137246400831644083C
:100A5800013C8A118312031D422D8A0137248A0121
:100A680048218A01372483160430CC0083128A0176
:100A780037248316C40183128A0137248A01372454
:100A88008A019B228A013724E8018A0137248A01D6
:100A9800C02C8A0137248A013724640083164C0845
:100AA800023C8A118312031D782E8A0137246400C0
:100AB8000330831651028A118312031C762E8A0191
:100AC8003724640083165C08003C8A1183120319DA
:100AD800302E8A01372464008A1183168310BF19C7
:100AE800831483128318E92D8A013724640083163E
:100AF8005C0856028A1183120318DD2D8A013724F7
:100B0800831656085C02D40083128A0137246400D5
:100B18000730831656028A11831203189C2D8A0106
:100B280037248316D90183128A0137248A11D92DD3
:100B3800640083165408033C8A118312031DAE2DEA
:100B48008A01372483163230D90083128A01372468
:100B58008A11D92D640083165408023C8A11831225
:100B6800031DC02D8A01372483163C30D900831217
:100B78008A0137248A11D92D640083165408013C50
:100B88008A118312031DD22D8A01372483164B3014
:100B9800D90083128A0137248A11D92D8A01372472
:100BA8008316D90183128A0137248A0137248A11CE
:100BB800E52D8A01372483166430D90083128A010F
:100BC80037248A0137248A11F02D8A0137248316A5
:100BD800D90183128A0137248A0137248A01D6234E
:100BE8008A0137248A1590238A0137248316C7017E
:100BF80083128A013724640083164D08003C8A1149
:100C080083120319132E8A01372483160130C70073
:100C180083128A0137248A01FD2D8A0137248A012B
:100C280037248A0148218A0137246400831647083B
:100C3800013C8A118312031D2E2E8A0137248A153E
:100C4800F6238A0137248A019B228A013724E80186
:100C58008A0137248A0137248B01831610308F00CC
:100C6800013083128A0186208A01D62301308A0145
:100C78008620831632088312A6008316330883124F
:100C8800A7000A30A200A3018A0113218316B40029
:100C9800831225088316B50035088312A70083162A
:100CA800340883128A01A82001308A01862083161D
:100CB800D101DD0170308F00013083128A01862056
:100CC800A0308B0083160430810083128A013724F8
:100CD80083160130CC0083128A0137248A01BC2C88
:100CE8008A0137248A0137248A013724640083164D
:100CF8004C08043C8A118312031DB62E8A0137243E
:100D08004130E8008A0137247330E9008A0137242A
:100D18000D30EA008A0137240A30EB008A013724B3
:100D28008316A001A10183128A0137248316A20128
:100D3800A30183128A0137248316A601A70183120F
:100D48008A0137248316A401A50183128A01372456
:100D580083160530CC0083128A0137248A153A237A
:100D68008A0137248A013724640083164C08053C1D
:100D78008A118312031DF62E8A0137246400831614
:100D88004D08003C8A118312031DF42E8A01372472
:100D98008316A001A10183128A0137248316A201B8
:100DA800A30183128A0137248316A601A70183129F
:100DB8008A0137248316A401A50183128A013724E6
:100DC80083160630CC0083128A0137248316A801C3
:100DD800A90183128A0137248A1565238A013724D9
:100DE8008A0137248A013724640083164C08063C9C
:100DF8008A118312031D382F8A0137246400831651
:100E08004D08003C8A118312031D362F8A013724AE
:100E180083162808AC002908AD0083128A013724FC
:100E2800031707308D00831603132D0883128A01D8
:100E380076208A013724031708308D0083160313A0
:100E48002C0883128A0176208A0137244130E80071
:100E58008A0137246530E9008A0137248A15E62695
:100E68008A0137248A0137248A0137246400033031
:100E780083164C028A1183120318CC2C8A0137245A
:100E880064008A110719CC2C8A01372405118A01BC
:100E980037246130D0008A01372483161630CF00FA
:100EA80083128A0137248A016E238A013724E801D4
:100EB8008A01372464003908831646028A1583128A
:100EC800031DB9288A01372464003A08633C8A1153
:100ED800031DCF2F8A01372464003B083D3C8A114B
:100EE800031DCB2F8A01372403178D0103134108F3
:100EF8008A0176208A013724031701308D000313F5
:100F08003C088A0176208A013724031702308D00B5
:100F180003133D088A0176208A013724031703301A
:100F28008D0003133E088A0176208A0137240317AF
:100F380004308D0003133F088A0176208A01372484
:100F4800031705308D00031340088A0176208A01B3
:100F58003724031706308D00031342088A017620D0
:100F68008A01372442088316C60083128A0137246F
:100F78000A308A0186208A01372483160130C4008A
:100F880083128A0137248A1550228A0137248A015C
:100F980037248A15952864003A08613C8A11031D94
:100FA800E32F8A01372483160430CC0083128A0188
:100FB80037248A1550228A0137248A159528640017
:100FC8003A08703C8A11031DF12F8A0137248A15CB
:100FD80050228A0137248A15952864003A08733C00
:100FE8008A11031DFF2F8A0137248A15C5248A0117
:100FF80037248A1595288A01372464003B083D3C2C
:101008008A15031D13288A01372483160430C80063
:1010180083128A0137248A155F228A0137248A01BC
:10102800372464003A086C3C8A15031D33288A016A
:10103800372464006530831659028A158312031811
:101048002F288A0137248A1590238A0137248A1584
:1010580050228A0137248A0137248A15932864008C
:101068003A086D3C8A15031D57288A01372403174F
:1010780009308D0083160313590883128A017620DC
:101088008A01372483165908B200B30183128A01F2
:1010980037248A15E6268A0137248A1550228A01C0
:1010A80037248A15932864003A08743C8A15031D6E
:1010B80076288A01372403170A308D008316031314
:1010C800590883128A0176208A0137248316590821
:1010D800DC0083128A0137248A1550228A013724BA
:1010E8008A15932864003A086E3C8A15031D9328D4
:1010F8008A01372403170B308D0083160313590810
:1011080083128A0176208A01372483165908C2007F
:1011180083128A0137248A1550228A0137248A01CA
:1011280037248A01372464006808003C8A15031DA7
:10113800B7288A0137244530E8008A01372452301D
:10114800E9008A0137245230EA008A0137244F30F7
:10115800EB008A0137245230EC008A0137240A3028
:10116800ED008A0137248A0137248A013724173091
:10117800D0008A01372483160130CF0083128A01F8
:1011880037248A016E238A01372439088316DE0042
:1011980083128A01372464008A11831683105E1C27
:1011A8008314831283184B2F8A0137242730D000E9
:1011B8008A0137244030D1008A0137248316013050
:1011C800CF0083128A0137248A0151238A013724E8
:1011D80002308A0186208A0137248A01C02C8A01BC
:1011E800372463008A15F52864008A150B1D402AE8
:1011F8008316DD0A64004D08003C8A158312031922
:101208008429640083164E088312851A013C8A15C6
:1012180003192B29640083164D08013C8A15831293
:10122800031D1D298316A80A0319A90A83128A1502
:10123800252901308316A8020030031C013EA902AB
:1012480083120030851A01308316CE00831283166C
:1012580028088312A000831629088312A100831688
:101268002B088312A30083162A0883128A01D72029
:101278008A15031D4929640083164C08033C8A1506
:101288008312031D49298A15422283165D08831299
:10129800A000A1012830A200A3018A01F720240898
:1012A8008316B400831225088316B5008312A001A3
:1012B800A101831635088312A3008316340883120C
:1012C8008A01D7208A15031D8429640004308316F7
:1012D8004C028A158312031C84290B308A014F2083
:1012E8008316BA00831221088316BB003A08A407A4
:1012F8003B080318013EA507A60A0319A70A83128B
:101308006400F13083165D028A158312031C3F2A9C
:10131800640083164D08003C8A1583120319B0290E
:10132800831628088312A000831629088312A100B7
:1013380083162F088312A30083162E0883128A01AE
:10134800D7208A15031DAA298A1542228316280840
:10135800AE002908AF0083126400043083164C02E3
:101368008A158312031C322A640083164D08003C38
:101378008A1583120319322A831624088312A000BF
:10138800831625088312A100831626088312A2005B
:10139800831627088312A3008A01F7208316B40056
:1013A800831221088316B50034088312A600831619
:1013B80035088312A7000A30A200A3018A0113216D
:1013C8008316BA00831225088316BB0064005108EF
:1013D800023C8A158312031D052A83163A088312D4
:1013E800A00083163B088312A1006430A200A30169
:1013F8008A01F7208316A000831221088316A10012
:1014080083128316A401A501A601A7013A08831235
:10141800A00083163B088312A100831620088312BC
:10142800A200831621088312A3008A01F7208316DD
:10143800B400831221088316B50034088312A00073
:10144800831635088312A1008316420883128A0185
:10145800D0208A15031D322A8A1542228316DD01FF
:10146800D10A64003B3051028A158312031C3F2ABB
:101478008316D10183120B118B17090007128316EB
:1014880007128312871283168712CD0183128711E0
:1014980083168711831208008A0137244F30E80029
:1014A8008A0137244B30E9008A0137240A30EA00E0
:1014B8008A01372408008A0137248316B801B90144
:1014C80083128A0137248316C50183128A013724BF
:1014D80083164808383E8400831200088316B40037
:1014E8006400303034028A158312031CDF2A8A0113
:1014F800372483164808383E840083120008831670
:10150800B40064003A3034028A1583120318DD2AC5
:101518008A01372483160130C50083128A013724D3
:10152800831638088312A600831639088312A70089
:101538000A30A200A3018A0113218316B400831282
:1015480025088316B5004808383E84008312000831
:101558008316B60002303607B600B701B70D323031
:10156800B6020030031C013EB70234083607B80043
:1015780035080318013E3707B90083128A0137245A
:101588008316C80A83128A013724831638088312FF
:10159800A000831639088312A1000130A30000308F
:1015A8008A01D1208A15031DDB2A8A156A2A8A0135
:1015B80037248A0137248A0137248316380883128E
:1015C800A000831639088312A100A301FF308A0105
:1015D800D4208A15031DF92A8A0137248316C501E8
:1015E80083128A0137248A15012B8A01372483162E
:1015F8003808D90083128A0137248A013724080061
:101608008A013724831659088312A000A1010230E9
:101618008A01BA208316B400B50130303407D600E9
:1016280083128A013724831659088312A000A10166
:1016380001308A01BA208316B400B501303034076E
:10164800D40083128A013724831659088312A00014
:10165800A10100308A01BA208316B400B5013030E8
:101668003407D20083128A01372408008A013724FC
:1016780083160230CD0083128A0137240716831699
:10168800071283128A01372487128316871283125E
:101698008A01372487158316871183128A01372414
:1016A8008316AE01AF0183128A0137248316DD0148
:1016B80083128A0137248316D10183128A013724C1
:1016C80008008A01372483160130CD0083128A016D
:1016D800372487168316871283128A013724071244
:1016E8008316071283128A013724871583168711F8
:1016F80083128A0137248316AE01AF0183128A014F
:1017080037248316DD0183128A0137248316D10119
:1017180083128A013724080083162C088312A60036
:1017280083162D088312A700831659088312A20076
:10173800A3018A0113218316B80083122508831692
:10174800B9008312A30164308A01E9208316AA0034
:10175800831221088316AB0083128A01372483166B
:101768000330CC0083128A01372483162A08831297
:10177800A00083162B088312A10083162908831260
:10178800A3008316280883128A01CD208A15031D19
:10179800F32B8A01372483162A088312A0008316A4
:1017A8002B088312A100831629088312A30083162D
:1017B800280883128A01D4208A15031DEB2B8A017D
:1017C80037248A1565238A0137248A15F12B8A0163
:1017D80037248A153A238A0137248A0137248A0153
:1017E800372408008A0137246C30E8008A0137243E
:1017F80083160130C80083128A0137248A1507240A
:101808008A01372408008A01372483164808683E6D
:10181800840083127C3080008A01372483162808CC
:101828008312A600831629088312A7000A30A20093
:10183800A3018A0113218316B40083122508831695
:10184800B5002C088312A00083162D088312A1006E
:101858000A30A200A3018A01F7208316B60083127A
:1018680021088316B70034088312A00083163508B0
:101878008312A100831636088312A2008316370844
:101888008312A3008A01F7208316D90083128A01E4
:1018980037248316C80A83128A0137248A157324C9
:1018A8008A013724033083164807B400B501B50D03
:1018B8003408683E840083120D3080008A01372482
:1018C800043083164807B400B501B50D3408683EE6
:1018D800840083120A3080008A01372408008A01B4
:1018E8003724831659088312A000A10102308A0107
:1018F800BA208316B400B5013030B4070318B50A0E
:101908004808683E84003408831280008A0137241E
:10191800013083164807B600B701B70D590883127E
:10192800A000A10101308A01BA208316B400B501D4
:101938003030B4070318B50A3608683E8400340806
:10194800831280008A013724023083164807B600C4
:10195800B701B70D59088312A000A10100308A0110
:10196800BA208316B400B5013030B4070318B50A9D
:101978003608683E84003408831280008A013724C0
:1019880008008A01372487148316871083128A0176
:10199800372402308A0186208A0137240530B600B0
:1019A8001030B40001308A013820CC308A01202060
:1019B80044308A0120208A0135208A0137240530E5
:1019C800B6001030B40004308A0138208A0105209E
:1019D8008316013903195010031D501483128A010C
:1019E80035208A01372464008A158316831050181D
:1019F800831483128318022D8A15E12C8A01372457
:101A08000530B6001030B40001308A013820CC30DF
:101A18008A012020BE308A0120208A0135208A01CF
:101A280037240530B6001030B40002308A0138205F
:101A38008A0105208316BE0083128A0105208316B9
:101A4800BF0083128A0135208A0137248710831644
:101A5800871083128A0137243430E8008A0137243A
:101A68007C30E9008A01372464008A1583168310C4
:101A7800BF1D831483128318962D8A0137242D30B5
:101A8800EA0083163E09B4003F09B500B40A0319F9
:101A9800B50A83127130A6000230A70083163408F5
:101AA8008312A200831635088312A3008A0113212A
:101AB8008316C7008312A3010A308A01E92083161E
:101AC800BC00831221088316BD0083128A013724C3
:101AD80083163C088312A00083163D088312A100D8
:101AE80004308A01BA208316B400B50130303407B7
:101AF8008312EB008A01372483163C088312A00066
:101B080083163D088312A10003308A01BA20831688
:101B1800B400B501303034078312EC008A01372451
:101B28008A15472E7130A6000230A70083163E089A
:101B38008312A20083163F088312A3008A0113218F
:101B48008316C7008312A3010A308A01E92083168D
:101B5800BC00831221088316BD0083128A01372432
:101B68008316F0303E05B4000F303F05B500340849
:101B78008312A000831635088312A10004308A015D
:101B8800C7208316BC00831221088316BD00831268
:101B98008A0137240F3083163E05B400B501340896
:101BA8008312A600831635088312A7007130A2009D
:101BB8000230A3008A011321FE002508FF008A01D4
:101BC800372483163C088312A00083163D0883122D
:101BD800A10001308A01BA208316B400B501303063
:101BE80034078312EA008A01372483163C088312DB
:101BF800A00083163D088312A10000308A01BA2094
:101C08008316B400B501303034078312EB008A0123
:101C180037247E08A0007F08A10003308A01BA207B
:101C28008316B400B501303034078312EC008A0102
:101C3800372483163C088312A600A7010230A200AD
:101C4800A3018A0113218316D60083128A0137243F
:101C5800D0306C078316B400FF300318013EB5007E
:101C680034088312A000831635088312A100A3014B
:101C780004308A01D4208A15031D452E8316D60AFE
:101C880083128A0137248A0137240317181603138D
:101C98008A013724C8308A0193208A0137240D30FD
:101CA8008A014F208316B800831221088316B900D1
:101CB80083128A0137240317181203138A01372461
:101CC800FA30A0001730A100831638088312A2004A
:101CD800831639088312A3008A01F7208316C000EF
:101CE800831221088316C10083128A0137247C30AD
:101CF800ED008A013724831640088312A00083165A
:101D080041088312A10001308A01BA208316B40069
:101D1800B501303034078312EE008A013724831668
:101D280040088312A000831641088312A1000030E6
:101D38008A01BA208316B400B50130303407831203
:101D4800EF008A0137247C30F0008A01372483169B
:101D580032088312A000831633088312A1000A30C8
:101D6800A200A3018A01F7208316D90083128A01F1
:101D7800372483160930C80083128A0137248A154C
:101D880073248A0137247C30F4008A0137248316AF
:101D98000C30C80083128A01372483165C08D900E6
:101DA80083128A0137248A158A248A0137248316E4
:101DB8000F30C80083128A0137248A1507248A0144
:101DC800372408008A013724640083164608003C3B
:101DD8008A158312031DF92E8A0137248316CC0134
:101DE80083128A0137248A151C2F8A013724A001FF
:101DF800A101831633088312A300831632088312C5
:101E08008A01D7208A15031D122F8A0137248316C9
:101E1800CC0183128A0137248A151A2F8A013724A4
:101E280083160130CC0083128A0137248A013724B3
:101E38008A01372408008A01372403178D012830C6
:101E480003138A0176208A013724031701308D0095
:101E5800523003138A0176208A013724031702308F
:101E68008D004F3003138A0176208A013724031727
:101E780003308D00423003138A0176208A0137240B
:101E8800031704308D00493003138A0176208A0134
:101E98003724031705308D004B3003138A01762051
:101EA8008A013724031706308D00003003138A0196
:101EB80076208A013724031707308D00003003137A
:101EC8008A0176208A013724031708308D000030F4
:101ED80003138A0176208A013724031709308D00FD
:101EE800003003138A0176208A01372403170A3049
:101EF8008D002C3003138A0176208A0137240317BA
:101F08000B308D005A3003138A0176208A0137245A
:021F18000800BF
:02400E007C3CF8
:10420000280052004F00420049004B00000000000F
:10421000000000002C005F00000000000000000013
:00000001FF
