:02000000A32833
:10000800080083178001840AFF3E031D06289E28E6
:10001800031783168C010C1483120C0803178D0A1E
:100028009E28030103178C0083168C010C1555308C
:100038008D00AA308D008C148C1820280C11831286
:100048008D0A9E28A301A200FF30A207031CA30764
:10005800031C9E280330A100E33034202828A10186
:10006800F43EA000A109FE30031C3D28A007031898
:100078003A28A0076400A10F3A2800002018442855
:10008800201846280800013EA7000A30A200A30154
:100098006C20A70B4C2824080800A301A2000230FA
:1000A8005528A80023082102031D5C2822082002E5
:1000B800043003180130031902302805031DFF30EE
:1000C8009E280038031DFF300405031DFF309E28BD
:1000D800A501A4011030A600210DA40DA50D22082C
:1000E800A4022308031C230FA50203188228220850
:1000F800A40723080318230FA5070310A00DA10DBB
:10010800A60B702820089E281030A800A101A00185
:10011800A70CA60C031C96282208A007230803187E
:10012800230FA107A10CA00CA50CA40CA80B8C28CC
:1001380024089E28831303138312640008008A117D
:100148005E2B0130A300F4308A0127209416141482
:1001580014128316141783128C11831694138312A6
:1001680005150A308A01262005110710FE01FF0136
:1001780008002A30D000031701308D0003138A01CC
:100188000C20D100031702308D0003138A010C20C4
:10019800D200031703308D0003138A010C20D3000B
:1001A800031704308D0003138A010C20D4000317B1
:1001B80005308D0003138A010C20D5008316053005
:1001C800B10083128A11A0222130D0000130D10061
:1001D80083160130B10083128A11A0222230D00088
:1001E8000130D10083160130B10083128A11A02298
:1001F8002530D00003178D0103138A010C20D1008C
:1002080083160130B10083128A11A0223130D00048
:100218001630D10083160130B10083128A11A02252
:100228002630D0000730D10083160130B100831288
:100238008A11A02283160130BD0083128A11B121D0
:100248008316BD014030B4004B30B6000130B80011
:10025800E230BA0083128A11D82183160130BD001A
:10026800C030B4004B30B600B801BA0183128A110D
:10027800D82183160230BD00D030B400FC30B6005F
:100288008C30B8000230BA0083128A11D821831644
:100298000330BD009930B400B6013930B8004130A0
:1002A800BA0083128A11D82183160430BD00D930D0
:1002B800B4009630B6008230B8001B30BA00831202
:1002C8008A11D82183160530BD002430B4000230CD
:1002D800B6007F30B800A630BA0083128A11D82140
:1002E80083160C30BD00B4011230B6007330B8006C
:1002F800BA0183128A11D82183160D30BD00463009
:10030800B400B430B6008030B800BA0183128A1144
:10031800D8212E30D0004130D1002030D200083012
:10032800D3000430D4008130D5002030D600CF303F
:10033800D700F730D800FE30D900FF30DA00FF30A0
:10034800DB0083160B30B10083128A11A0228316BA
:10035800BD0183128A11B12108000730D00083162D
:100368000130B10083128A11BD228030380583160E
:10037800A000A10120088312A0008316210883127F
:10038800A10083163D0883128A0151208A11031D9A
:10039800D7295030D0005330D10083160130B10036
:1003A80083128A11A0220800203083163D07831289
:1003B800D000831634088312D100831636088312BE
:1003C800D200831638088312D30083163A088312A2
:1003D800D40083160430B10083128A11A0220800C9
:1003E8001E308A0126208A118D22E130D000831622
:1003F800B10183128A11A0222730D0003030D100F9
:1004080083160130B10083128A11A0228A111E239B
:10041800A030D00083162B088312D1008316023037
:10042800C000831264001830831640028A118312B8
:100438000318482AFE3083164007A000FF3003182F
:10044800013EA1002008683E84008312000883163C
:10045800A0004008503E84002008831280008316C4
:100468004008503E8400831200088316A0006400F0
:1004780020080A3C8A1183120319482A8316C00AE5
:100488008A118312031D162A83161630B1008312AF
:100498008A11A0220130A100F4308A013420051508
:1004A8000130A100F4308A013420051101308A019D
:1004B800262064008A1107195D2A0730D0008316A8
:1004C8000130B10083128A11BD22703038058316BD
:1004D800BF0064003F08103C8A118312031D762A6E
:1004E8008A11E222640083163F08303C8A11831285
:1004F800031D802A8A11F4222730D0002030D10031
:1005080083160130B10083128A11A0228A118D222C
:10051800080005110130A100F4308A0134200515C6
:100528000130A100F4308A01342005110130A10006
:10053800F4308A013420080007108316C0018312A2
:1005480064008316400831028A118312031CBB2AF7
:1005580083164008503E84008312000893008A11D5
:10056800DC228316C00A8A118312031DA42A0714E9
:10057800080007108316C001831264008316400820
:1005880031028A118312031CDA2A500893008A1157
:10059800DC2283164008383E84008312130880004A
:1005A8008316C00A8A118312031DC12A0714080082
:1005B80064008A118C1DDC2A8C110800E130D000FF
:1005C8008316B10183128A01A0222730D00010308F
:1005D800D10083160130B10083128A01A0220800DD
:1005E800E130D0008316B10183128A01A02227309E
:1005F800D0003030D10083160130B10083128A0157
:10060800A02208008A018D222030D0000F30D100AE
:1006180083160130B10083128A01A022080020301D
:10062800D0000D30D10083160130B10083128A0149
:10063800A02208003030D000031701308D000313CA
:100648008A010C20D100031702308D0003138A01A0
:100658000C20D200031703308D0003138A010C20ED
:10066800D300031704308D0003138A010C20D40033
:10067800031705308D0003138A010C20D50083165B
:100688000530B10083128A01A0222430D000353011
:10069800D10083160130B10083128A01A0222030D4
:1006A800D0000E30D10083160130B10083128A01C8
:1006B800A0220800831670308F00831203179E0152
:1006C8009F0199019A010313A0308B0083168C01B6
:1006D800073081008B1783128A11762B8B1B080039
:1006E8008A1538298A0172238316850183128A01A3
:1006F800722383163030860083128A017223831690
:100708000630870083128A0172238316FF30950012
:1007180083128A0172230317FF30950003138A019D
:1007280072232030840060308A010620A0308400C3
:1007380050308A0106202030840050308A0105207C
:100748008A017223031707308D0003138A010C20D6
:100758008316AB0083128A017223031709308D00B8
:1007680003138A010C208316B00083128A017223B6
:100778008316871483128A017223831686168312BE
:100788008A0172238316051283128A0172230317C2
:1007980006308D0003138A010C208316BB008312D8
:1007A8008A017223640083163B08003C8A11831275
:1007B800031DE82B8A01722305168316051283127E
:1007C8008A0172238A11F02B8A017223051283167B
:1007D800051283128A0172238A0172238A01A520D5
:1007E8008A0172238A01BD208A0172238A010623A5
:1007F8008A01722302308A0126208A017223051594
:100808008A01722364008A11861A822C8A01722353
:1008180003178D01283003138A0116208A017223D9
:10082800031701308D00523003138A0116208A0104
:100838007223031702308D004F3003138A011620EC
:100848008A017223031703308D00423003138A0193
:1008580016208A017223031704308D0049300313D0
:100868008A0116208A017223031705308D004B3048
:1008780003138A0116208A017223031706308D009C
:10088800003003138A0116208A01722303170730E8
:100898008D00003003138A0116208A017223031782
:1008A80008308D00003003138A0116208A01722354
:1008B800031709308D00003003138A0116208A01BE
:1008C800722303170A308D00003003138A011620A3
:1008D8008A01722303170B308D00003003138A013D
:1008E80016208A0172230730A300D0308A012720FE
:1008F8008A0172238A01A42B8A0172238A01722336
:1009080064006808003C8A110319AC2C8A01722320
:10091800640083162908013C8A118312031D9F2C49
:100928008A0172238A01BD208A0172238316A901D4
:1009380083128A0172238A0172238A01F4218A01AF
:100948007223E8018A0172238A01F82B8A01722333
:100958008A017223640083162808013C8A118312D5
:10096800031DE72C8A01722364008A11871CE52C79
:100978008A01722303170A308D0003138A010C20A1
:100988008316A60083128A01722364008316260840
:10099800003C8A118312031DDB2C8A017223831603
:1009A8000530A80083128A0172238A11E32C8A0178
:1009B800722383160430A80083128A0172238A01E5
:1009C80072238A0172238A0172236400831628081D
:1009D800053C8A118312031D152D8A017223831683
:1009E8000230A80083128A0172234130E8008A018C
:1009F80072234C30E9008A0172234130EA008A01EF
:100A080072235230EB008A0172234D30EC008A01C8
:100A180072230D30ED008A0172230A30EE008A013C
:100A280072238A01722303018718FF308316A000FE
:100A38003008013C031DFF30FF3AA2002008831252
:100A480084008316220883128A0165208316A20077
:100A5800A3006400220823048A1183120319472D76
:100A68008A017223031708308D0003138A010C20B2
:100A78008316AF0083128A017223051683160512A6
:100A880083128A0172238A01722364008A1107196A
:100A9800042C8A01722305118A0172236130D00067
:100AA8008A01722383161630B10083128A017223D9
:100AB8008A01BD228A017223031707308D000313B0
:100AC8008A010C208316BB0083128A017223E80175
:100AD8008A0172236400390883163B028A1583123F
:100AE800031DF9288A01722364003A08633C8A11BD
:100AF800031DDD2D8A01722364003B083D3C8A11E9
:100B0800031DDB2D8A01722303178D01031341088E
:100B18008A0116208A017223031701308D000313FE
:100B28003C088A0116208A017223031702308D00BF
:100B380003133D088A0116208A0172230317033024
:100B48008D0003133E088A0116208A0172230317B9
:100B580004308D0003133F088A0116208A0172238E
:100B6800031705308D00031340088A0116208A01F7
:100B78007223031707308D00031342088A011620D9
:100B88008A0172230A308A0126208A0172234208C8
:100B98008316AB0083128A01722383160130A900E1
:100BA80083128A0172238A15C0218A0172238A015D
:100BB80072238A01722364003A086C3C8A11031D6F
:100BC800F42E8A01722364003B08313C8A11031D0C
:100BD800F22E8A01722364003C08633C8A11031DCB
:100BE8009F2E8A01722364003D086F3C8A11031D01
:100BF8000C2E8A017223031706308D000030031370
:100C08008A0116208A0172238A15C0218A0172235B
:100C18008A01722364003D08663C8A11031D232E55
:100C28008A017223031706308D00013003138A01ED
:100C380016208A0172238A15C0218A0172238A012B
:100C4800722364003D08643C8A11031D402E8A010A
:100C58007223031709308D00013003138A0116200F
:100C68008A01722383160130B00083128A0172232D
:100C78008A15C0218A0172238A01722364003D0803
:100C8800633C8A11031D5C2E8A0172230317093005
:100C98008D00003003138A0116208A0172238316FF
:100CA800B00183128A0172238A15C0218A01722336
:100CB8008A01722364003D08743C8A11031D9D2E2D
:100CC8008A01722364003E083D3C8A11031D9B2E55
:100CD8008A01722383160730AC0083128A017223BB
:100CE8008A15F2218A017223640083162A08013CBE
:100CF8008A118312031D932E8A0172230317083069
:100D08008D00831603133B0883128A0116208A017B
:100D180072238A15C0218A0172238A11992E8A01A9
:100D280072238A15D3218A0172238A0172238A01C8
:100D380072238A0172238A01722364003C086F3C83
:100D48008A11031DDC2E8A01722364003D08663C6B
:100D58008A11031DC92E8A0172238316B2018312D8
:100D68008A017223031708308D0003138A010C20AF
:100D78008316AF0083128A017223051683160512A3
:100D880083128A0172238A11D62E8A0172230516CC
:100D98008316051283128A0172238316AF01831208
:100DA8008A0172238A0172238A15C0218A0172235B
:100DB8008A01722364003C08663C8A11031DF02EE8
:100DC8008A01722305128316051283128A0172237F
:100DD8008A15C0218A0172238A0172238A0172232B
:100DE8008A01722364003A08613C8A11031DBB2FF3
:100DF8008A01722364003B086C3C8A11031DB92FD9
:100E08008A01722364003C08613C8A11031D3E2F4D
:100E18008A01722303170B308D0003138A010C20FB
:100E28008316A70083128A0172238316A6018312F0
:100E38008A017223640083162708003C8A118312F2
:100E4800031D302F8A01722383160130A8008312F4
:100E58008A0172238A11382F8A017223831603307C
:100E6800A80083128A0172238A0172238A15C0217D
:100E78008A0172238A01722364003C08643C8A1147
:100E8800031D5B2F8A0172238316A80183128A012E
:100E980072238316A70183128A0172238316A6017F
:100EA80083128A0172238A15C0218A0172238A015A
:100EB800722364003C08633C8A11031DB72F8A0122
:100EC800722364003E083D3C8A11031DB52F8A0138
:100ED800722383160730AC0083128A0172238A15A5
:100EE800F2218A017223640083162A08013C8A11C0
:100EF8008312031DB32F8A01722364003D08653CE9
:100F08008A11031D982F8A01722303170A308D0056
:100F1800831603133B0883128A0116208A01722361
:100F28008A15C0218A0172238A01722364003D0850
:100F38006C3C8A11031DB12F8A01722303170B30F1
:100F48008D00831603133B0883128A0116208A0139
:100F580072238A15C0218A0172238A0172238A01A9
:100F680072238A0172238A0172238A0172238A01F9
:100F7800722364003A08733C8A15031DD1288A013C
:100F8800722364003B08613C8A15031D40288A01CE
:100F980072233130E8008A0172237C30E9008A012B
:100FA80072236130EA008A0172237C30EB008A01E7
:100FB80072233030831628078312EC008A017223CB
:100FC8007C30ED008A01722330308718013EEE0034
:100FD8008A0172237C30EF008A01722303170A30DA
:100FE8008D0003138A010C208316BB0083128A012B
:100FF80072238A15A9228A0172238316370883125D
:10100800F0008A017223831635088312F1008A01E1
:101018007223831633088312F2008A0172237C300C
:10102800F3008A01722303170B308D0003138A0122
:101038000C208316BB0083128A0172238A15A92209
:101048008A017223831637088312F4008A017223F7
:10105800831635088312F5008A0172238316330834
:101068008312F6008A0172230D30F7008A01722379
:101078000A30F8008A0172238A01722364003B084F
:10108800633C8A15031DCF288A0172233130E8009A
:101098008A0172237C30E9008A0172236330EA00F6
:1010A8008A0172237C30EB008A0172233030051AE2
:1010B800013EEC008A0172237C30ED008A01722324
:1010C800031706308D0003138A010C20EE008A01F5
:1010D80072233030EE078A0172237C30EF008A01D8
:1010E8007223031709308D0003138A010C20F000C6
:1010F8008A0172233030F0078A0172237C30F100B4
:101108008A017223031708308D0003138A010C200B
:101118008316BB0083128A0172238A15A9228A01C9
:101128007223831637088312F2008A01722383160A
:1011380035088312F3008A01722383163308831259
:10114800F4008A0172237C30F5008A017223831629
:101158002F08BB0083128A0172238A15A9228A01EB
:101168007223831637088312F6008A0172238316C6
:1011780035088312F7008A01722383163308831215
:10118800F8008A0172230D30F9008A0172230A30AF
:10119800FA008A0172238A0172238A017223640089
:1011A8003A08703C8A15031DE9288A0172236400F5
:1011B8003B086E3C8A15031DE7288A0172238A15AD
:1011C800C0218A0172238A0172238A017223640072
:1011D8006808003C8A15031DF7288A0172238A15BE
:1011E800D3218A0172238A0172238A01722317305C
:1011F800D0008A01722383160130B10083128A015C
:1012080072238A01BD228A01722339088316BF001E
:1012180083128A01722364008A11831683103F1C8B
:10122800831483128318502D8A0172232730D0002B
:101238008A0172234030D1008A017223831601305B
:10124800B10083128A0172238A01A0228A017223C3
:1012580002308A0126208A0172238A01F82B8A012A
:10126800722363008A15352964008A150B1DBE296F
:101278008316BE0A64001F303E028A158312031CBF
:10128800BD298316BE01B20A6400013026028A1500
:101298008312031C73298316A6032608003C031D2A
:1012A800FF30FF3AA0002808043C031DFF30FF3A36
:1012B800A2002008831284008316220883128A0160
:1012C80065208316A200A3006400220823048A155F
:1012D80083120319732983160530A800831264004A
:1012E8000130831627028A158312031C9F2983164F
:1012F800A7032708003C031DFF30FF3AA000280879
:10130800033C031DFF30FF3AA2002008831284002B
:101318008316220883128A0165208316A200A3007F
:101328006400220823048A15831203199F2983164F
:101338000130A800831264003B30831632028A15FC
:101348008312031CBD298316B201640001302F02E9
:101358008A158312031CBD298316AF0364002F0866
:10136800003C8A158312031DBD2905128316051238
:1013780083120B118B1709008A0172234F30E80082
:101388008A0172234B30E9008A0172230D30EA008A
:101398008A0172230A30EB008A01722308008A014D
:1013A80072234530E8008A0172235230E9008A012D
:1013B80072235230EA008A0172234F30EB008A010F
:1013C80072235230EC008A0172230D30ED008A013D
:1013D80072230A30EE008A01722308008A01722300
:1013E8008316AA0183128A01722383166130BB0017
:1013F80083128A0172238316AE01831264000330BC
:1014080083162E028A15831203187A2A8A017223F8
:1014180083166130B30083128A01722383162C0865
:10142800383E8400831200088316B50083128A01AF
:1014380072236400831635087C3C8A158312031DC9
:10144800262A08008A0172238A157D228A017223BE
:10145800640083163308613C8A158312031D352AFC
:1014680008008A017223640083162E08003C8A153E
:101478008312031D4F2A8A01722383163308BB0087
:1014880083128A01722383160130AA0083128A010B
:1014980072238A156D2A8A01722383163B088312E8
:1014A800A600A7010A30A200A3018A01882083169A
:1014B800A000831225088316A10020083307BB006B
:1014C80083128A01722383160130AA0083128A01CB
:1014D80072238A0172238316AC0A83128A0172234B
:1014E8008316AE0A8A158312031D022A8A01722303
:1014F80008008A017223FF30A200A20A2208093CD0
:101508008A15031CA62A8A159522831635028A1580
:101518008312031D812A22088316B30083128A15B9
:10152800A62A0A308A0022089C3E03188A0A8200EA
:101538003034313432343334343435343634373467
:10154800383439348A01722308008A0172238316D9
:101558003B088312A000A10102308A0147208316AC
:10156800A000A10130302007B70083128A0172233E
:1015780083163B088312A000A10101308A0147208D
:101588008316A000A10130302007B50083128A011C
:10159800722383163B088312A000A10100308A0140
:1015A80047208316A000A10130302007B300831222
:0615B8008A017223080005
:02400E00CC3FA5
:10420000280052004F00420049004B00000000000F
:10421000000000000000000000000000000000009E
:00000001FF
