:100000004528031783168C010C1483120C08031760
:100010008D0A4028A301A200FF30A207031CA307FA
:10002000031C40280330A100DF3018200C28A10158
:10003000E83EA000A109FC30031C2128A0070318FA
:100040001E28A0076400A10F1E2820182728A01C26
:100050002B2800002B280800A301A2000230302822
:10006000A80023082102031D37282208200204309B
:1000700003180130031902302805031DFF30402802
:10008000831303138312640008008A11012B32309A
:100090008A010A209416141414128316141783125A
:1000A0008C1183169413831205150A308A010A20D5
:1000B00005110710FE01FF0108002A30D0000317C8
:1000C00001308D0003138A010120D1000317023093
:1000D0008D0003138A010120D200031703308D0025
:1000E00003138A010120D300031704308D0003138A
:1000F0008A010120D400031705308D0003138A0103
:100100000120D50083160530A40083128A114522F0
:100110002130D0000130D10083160130A4008312B9
:100120008A1145222230D0000130D10083160130DF
:10013000A40083128A1145222530D00003178D01B7
:1001400003138A010120D10083160130A400831219
:100150008A1145223130D0001630D100831601308B
:10016000A40083128A1145222630D0000730D10026
:1001700083160130A40083128A11452283160130B0
:10018000A90083128A1151218316A9014030A500CC
:100190004B30A6000130A700E230A80083128A117C
:1001A000782183160130A900C030A5004B30A6008D
:1001B000A701A80183128A11782183160230A900B1
:1001C000D030A500FC30A6008C30A7000230A8007B
:1001D00083128A11782183160330A9009930A50073
:1001E000A6013930A7004130A80083128A11782176
:1001F00083160430A900D930A5009630A6008230BD
:10020000A7001B30A80083128A11782183160530BD
:10021000A9002430A5000230A6007F30A700A63038
:10022000A80083128A11782183160C30A900A50139
:100230001230A6007330A700A80183128A1178211A
:1002400083160D30A9004630A500B430A6008030DA
:10025000A700A80183128A1178212E30D0004130E6
:10026000D1002030D2000830D3000430D4008130D7
:10027000D5002030D600CF30D700F730D800FE3080
:10028000D900FF30DA00FF30DB0083160B30A4000A
:1002900083128A1145228316A90183128A115121E2
:1002A00008000730D00083160130A40083128A11A1
:1002B0006222803038058316A000A1012008831235
:1002C000A000831621088312A10083162908831237
:1002D0008A012C208A11031D77295030D000533019
:1002E000D10083160130A40083128A114522080030
:1002F0002030831629078312D00083162508831225
:10030000D100831626088312D20083162708831291
:10031000D300831628088312D40083160430A40067
:1003200083128A11452208008A11322202308A0182
:100330000A208A113222E130D0008316A4018312F0
:100340008A1145222730D0003030D1008316013089
:10035000A40083128A1145228A11C122A030D00044
:10036000831622088312D10083160230AB00831259
:100370006400183083162B028A1183120318EA29AD
:10038000FE3083162B07A000FF300318013EA100AA
:100390002008683E8400831200088316A0002B0802
:1003A000503E840020088312800083162B08503EA4
:1003B0008400831200088316A000640020080A3C11
:1003C0008A1183120319EA298316AB0A8A11831250
:1003D000031DB82983161630A40083128A11452202
:1003E0000130A100F4308A01182005150130A10068
:1003F000F4308A01182005110A308A010A206400AD
:100400008A110719FF290730D00083160130A40094
:1004100083128A116222703038058316AA006400A4
:100420002A08103C8A118312031D182A8A11872278
:10043000640083162A08303C8A118312031D222A85
:100440008A1199222730D0002030D1008316013044
:10045000A40083128A11452202308A010A208A11DF
:100460003222080005110130A100F4308A01182061
:1004700005150130A100F4308A0118200511013062
:10048000A100F4308A011820080007108316AB0180
:100490008312640083162B0824028A118312031C22
:1004A000602A83162B08503E8400831200089300B4
:1004B0008A1181228316AB0A8A118312031D492AED
:1004C0000714080007108316AB018312640083161B
:1004D0002B0824028A118312031C7F2A50089300E0
:1004E0008A11812283162B08383E84008312130858
:1004F00080008316AB0A8A118312031D662A071433
:10050000080064008A118C1D812A8C110800E130DA
:10051000D0008316A40183128A0145222730D0001F
:100520001030D10083160130A40083128A014522C5
:100530000800E130D0008316A40183128A0145220D
:100540002730D0003030D10083160130A400831250
:100550008A01452208002030D0000F30D1008316D8
:100560000130A40083128A01452208002030D00007
:100570000D30D10083160130A40083128A01452278
:1005800008003030D000031701308D0003138A01BA
:100590000120D100031702308D0003138A010120CE
:1005A000D200031703308D0003138A010120D3000A
:1005B000031704308D0003138A010120D4000317B0
:1005C00005308D0003138A010120D5008316053004
:1005D000A40083128A0145222430D0003530D10096
:1005E00083160130A40083128A0145222030D000F6
:1005F0000E30D10083160130A40083128A014522F7
:020600000800F0
:02400E00FF3F72
:00000001FF
