:0200000098283E
:10000800080083178001840AFF3E031D06289328F1
:1000180003178D0083168C130C1483120C08932875
:1000280003178C0083168C130C1555308D00AA30DD
:100038008D008C148C181E280C119328A301A20083
:10004800FF30A207031CA307031C93280330A10059
:10005800E33030202428A101F43EA000A109FE309D
:10006800031C3928A00703183628A0076400A10F2D
:100078003628000020184028201842280800013E91
:10008800A7000A30A200A3016120A70B4828240872
:100098000800A301A20002305128A8002308210269
:1000A800031D5828220820020430031801300319C0
:1000B80002302805031DFF309328A501A401103044
:1000C800A600210DA40DA50D2208A4022308031CD7
:1000D800230FA502031877282208A407230803186A
:1000E800230FA5070310A00DA10DA60B6528200856
:1000F80093281030A800A101A001A70CA60C031C8E
:100108008B282208A00723080318230FA107A10C96
:10011800A00CA50CA40CA80B8128240893288313F1
:1001280003138312640008008A11482BC8308A011F
:1001380022209416141414128316141783128C1187
:1001480083169413831205150A308A01222005119B
:100158000710F501F60108002A30D6008A15CC22CE
:1001680083160530D30083128A114E222130D6001F
:100178000130D7008A114A222230D6000130D70038
:100188008A114A222530D60000308A010C20D70077
:100198008A114A223130D6001630D7008A114A22F5
:1001A8002630D6002730D7008A114A22831601301C
:1001B800E00083128A116D218316E0014030D700D8
:1001C8004B30D9000130DB00E230DD0083128A11A8
:1001D8008C2183160130E000C030D7004B30D900A5
:1001E800DB01DD0183128A118C2183160230E000C5
:1001F800D030D700FC30D9008C30DB000230DD0075
:1002080083128A118C2183160330E0009930D700BD
:10021800D9013930DB004130DD0083128A118C218D
:1002280083160430E000D930D7009630D9008230E8
:10023800DB001B30DD0083128A118C218316053008
:10024800E0002830D7000230D9007F30DB00A6302C
:10025800DD0083128A118C2183160C30E000D7014F
:100268001230D9007330DB00DD0183128A118C2132
:1002780083160D30E0004630D700B430D900803006
:10028800DB00DD0183128A118C212E30D60041302B
:10029800D7002030D8000830D9000430DA00813087
:1002A800DB002030DC00CF30DD00F730DE00FE3030
:1002B800DF00FF30E000FF30E10083160B30D30091
:1002C80083128A114E228316E00183128A116D214E
:1002D80008000730D60083160130D30083128A1134
:1002E8006B2280303E05B200B3013208A00033080B
:1002F800A1008316600883128A014D208A11031D0C
:100308008B295030D6005330D7008A114A22080072
:100318002030831660078312D6008316570883128D
:10032800D700831659088312D80083165B088312F6
:10033800D90083165D088312DA0083160430D300CF
:1003480083128A114E2208008A1137221E308A0130
:1003580022208A113722E130D6008316D301831276
:100368008A114E222730D6003030D7008A114A220F
:100378008A11BE22A030D6007C08D700831602302E
:10038800E300831264001830831663028A11831213
:100398000318F629FE30831663078312B200FF3074
:1003A8000318013EB3003208B83E84000008B200CA
:1003B80083166308563E8400831232088000831631
:1003C8006308563E840000088312B20064003208B5
:1003D8000A3C8A110319F6298316E30A8A11831243
:1003E800031DC62983161630D30083128A114E22A4
:1003F8000130A100F4308A01302005150130A10038
:10040800F4308A013020051101308A01222064006D
:100418008A1107190B2A0730D60083160130D3003A
:1004280083128A116B2270303E058316E200640045
:100438006208103C8A118312031D242A8A11902213
:10044800640083166208303C8A118312031D2E2A29
:100458008A119E222730D6002030D7008A114A22DE
:100468008A113722080005110130A100F4308A01F1
:10047800302005150130A100F4308A013020051123
:100488000130A100F4308A013020080083160130C1
:10049800D300831207108316E301831264008316C6
:1004A800630853028A118312031C692A831663089E
:1004B800563E84000008831293008A118A2283160C
:1004C800E30A8A118312031D522A07140800071031
:1004D8008316E301831264008316630853028A11AA
:1004E8008312031C882A560893008A118A228316CD
:1004F80063083E3E84008312130880008316E30AD3
:100508008A118312031D6F2A0714080064008A11D8
:100518008C1D8A2A8C110800E130D6008316D3017D
:1005280083128A014E222730D6001030D7008A0164
:100538004A220800E130D6008316D30183128A01CB
:100548004E222730D6003030D7008A014A220800D0
:100558008A0137222030D6000F30D7008A014A227C
:100568008A01372208002030D6000D30D7008A01D2
:100578004A2208003030D6008A15EB22831605304F
:10058800D30083128A014E222430D600FF30D700D0
:100598008A014A222030D6000E30D7008A014A222A
:1005A80008006130D60083161630D30083128A0102
:1005B8006B2283160130D400D001831264001830F6
:1005C800831650028A1183120318222B83165008AF
:1005D800A03E840000088312B200831650083E3EF5
:1005E800840000088312B4006400320834028A11BF
:1005F8000319012B8316D4018312831650083E3E3B
:10060800840000088312B20083165008A03E8400BC
:1006180083123208800083165008A03E8400000828
:100628008312B200640032080A3C8A110319222B93
:100638008316D00A8A118312031DE22A1730D600C6
:1006480083160130D30083128A016B223F08831678
:10065800E20064008A118310621C831483128318D9
:10066800F32C2730D6004030D7008A014A220230C6
:100678008A0122208316E10164005408013C8A1192
:1006880083120319012C0800831670308F0083121F
:1006980003179E019F0199019A010313A0308B0053
:1006A80083168C01073081008B1783128A11602B07
:1006B8008B1B08008A1569288A015C23831685012B
:1006C80083128A015C2383163030860083128A01E4
:1006D8005C2383160430870083128A015C23831607
:1006E800950183128A015C230317203095000313B8
:1006F8008A015C232030840060308A010620A03003
:10070800840050308A0106202030840050308A014D
:1007180005208A015C238316861683128A015C23CE
:100728008316051283128A015C23831685128312AD
:100738008A015C238316871183128A015C2383163E
:10074800071283128A015C238316871283128A0197
:100758005C238316071383128A015C230A308A01FB
:100768000C20FC008A015C23FF0164000B307F022F
:100778008A110318F52B8A015C230B307F07B2001E
:10078800B301B30D32088A010C208316D6008312F8
:100798008A015C2303107F0CB200B301320A83166E
:1007A800DE0083128A015C23640083165608003C2D
:1007B8008A118312031DE82B8A015C238A151E22E5
:1007C8008A015C238A11EE2B8A015C238A15752223
:1007D8008A015C238A015C230230FF078A11031C0B
:1007E800B92B8A015C238A019A208A015C238A0139
:1007F800B0208A015C238A01B0208A015C238A0127
:10080800AC228A015C2302308A0122208A015C23FF
:1008180005158A015C2364008A11861AC02C031707
:100828008D01283003138A011420031701308D002D
:10083800523003138A011420031702308D0045300B
:1008480003138A011420031703308D004D3003135E
:100858008A011420031704308D004F3003138A01D6
:100868001420031705308D00543003138A01142017
:10087800031706308D00453003138A01142003172F
:1008880007308D00483003138A01142003170830FD
:100898008D004F3003138A011420031709308D008F
:1008A8004D3003138A01142003170A308D000030DD
:1008B80003138A01142003170B308D000130031332
:1008C8008A01142003170C308D00003003138A01AD
:1008D800142003170D308D00013003138A011420F2
:1008E80003170E308D00003003138A0114200317FC
:1008F8000F308D00013003138A01142003171030C4
:100908008D00003003138A011420031711308D0065
:10091800013003138A011420031712308D000030B0
:1009280003138A011420031713308D0001300313B9
:100938008A011420031714308D00003003138A0134
:100948001420031715308D00013003138A01142079
:10095800031716308D00003003138A0114208A0112
:100968005C230330A300E8308A0123208A015C233A
:100978008A017C2B8A015C238A015C23640083162C
:100988003808003C8A1183120319EA2C8A015C2377
:1009980064007A08013C8A11031DDB2C8A015C2360
:1009A8008A01B0208A015C23FA018A015C238A014A
:1009B8005C238A01A8218A015C238316B80183126B
:1009C8008A015C238A01012C8A015C238A015C2349
:1009D80064008A1107190D2C8A015C2305118A010C
:1009E800D5228316B8016400210883127C028A1577
:1009F800031D6028640083162208633C8A11831251
:100A0800031D452D6400831623083D3C8A1183127B
:100A1800031D412DFF0164000B307F028A1103186A
:100A28002C2D04307F07B200B301B30D3208A03E6D
:100A380084000008B2007F0803178D0003133208F2
:100A48008A0114208A015C23FF0A8A11031D0F2DD5
:100A58008A015C230A308A010C20FC008A015C238D
:100A6800FA308A0122208A015C230130FA008A01C7
:100A78005C238A152B218A015C238A015C238A1551
:100A880028288A015C236400831622086C3C8A119A
:100A98008312031DCB2E8A015C230330FF008A01D9
:100AA8005C238A1546218A015C2364007B08013C8B
:100AB8008A11031DC72E8A015C2383165E08DC0099
:100AC80083128A015C236400013083165E028A1156
:100AD8008312031CC52E8A015C2364000730831629
:100AE8005E028A1183120318C32E8A015C236400F4
:100AF80083162408633C8A118312031D1F2E8A0162
:100B08005C236400831625086F3C8A118312031D39
:100B1800AB2D83165C088312A600A7010230A20041
:100B2800A3018A017D20B2002508B3000930B2076D
:100B38000318B30A320803178D00003003138A0123
:100B480014208A015C238A152B218A015C238A01DF
:100B58005C23640083162508663C8A118312031DF2
:100B6800D32D83165C088312A600A7010230A200C9
:100B7800A3018A017D20B2002508B3000930B2071D
:100B88000318B30A320803178D00013003138A01D2
:100B980014208A015C238A152B218A015C238A018F
:100BA8005C23640083162508743C8A118312031D94
:100BB8001B2E8A015C236400831626083D3C8A119B
:100BC8008312031D192E8A015C230730FF008A0156
:100BD8005C238A1546218A015C2364007B08013C5A
:100BE8008A11031D172E83165C088312A600A7011D
:100BF8000230A200A3018A017D20B2002508B300BB
:100C08000A30B2070318B30A320803178D00831697
:100C180003135E0883128A0114208A015C238A1553
:100C28002B218A015C238A015C238A015C238A01C7
:100C38005C238A11C12E8A015C2364008316240870
:100C48006F3C8A118312031DA32E8A015C23640062
:100C580083162508663C8A118312031D862E8A0195
:100C68005C2383165C088312A600A7010230A20049
:100C7800A3018A017D20B2002508B3000A30B2071B
:100C88000318B30A32088A010C20B400B501831690
:100C98005C086E3E84008312340880008A015C235D
:100CA80083165C086E3E840000088312B20064005C
:100CB8003208013C8A11031D742E8A015C236400EA
:100CC8002830831655028A1183120318722E831650
:100CD8005C086E3E84000230800083128A015C2327
:100CE8008A015C2383165C08DE0083128A015C2378
:100CF8008A151E228A015C238A152B218A015C230E
:100D08008A119F2E8A015C2383165C08DE008312F9
:100D18008A015C238A151E228A015C2383165C08DB
:100D28006E3E84000030800083128A015C238A159D
:100D38002B218A015C238A015C238A11BF2E8A0138
:100D48005C23640083162408663C8A118312031D01
:100D5800BD2E8A015C2383165C08DE0083128A019B
:100D68005C238A1575228A015C238A152B218A0146
:100D78005C238A015C238A015C238A015C238A0143
:100D88005C238A015C238A015C238A1526288A0150
:100D98005C23640083162208733C8A158312031DA2
:100DA80006288A015C230330FF008A015C238A1528
:100DB80046218A015C2364007B08013C8A15031DD7
:100DC80002288A015C2383165E08DC0083128A01EC
:100DD8005C236400013083165E028A158312031CAB
:100DE80000288A015C236400073083165E028A119A
:100DF80083120318FE2F8A015C2383163330B80050
:100E080083128A015C2383167C30B90083128A011D
:100E18005C23640083165C08013C8A118312031D5D
:100E28001B2F0030051A01308316BA0083128A017D
:100E38005C23640083165C08023C8A118312031D3C
:100E48002B2F0030851A01308316BA0083128A01CD
:100E58005C23640083165C08033C8A118312031D1B
:100E68003B2F0030871901308316BA0083128A019C
:100E78005C23640083165C08043C8A118312031DFA
:100E88004B2F0030071A01308316BA0083128A01EB
:100E98005C23640083165C08053C8A118312031DD9
:100EA8005B2F0030871A01308316BA0083128A013B
:100EB8005C23640083165C08063C8A118312031DB8
:100EC8006B2F0030071B01308316BA0083128A018A
:100ED8005C2330308316BA0783128A015C23831699
:100EE8007C30BB0083128A015C2383165C08831262
:100EF800A600A7010230A200A3018A017D20B2004A
:100F08002508B3000930B2070318B30A32088A016A
:100F18000C208316BC0083128A015C2330308316B0
:100F2800BC0783128A015C2383167C30BD008312C0
:100F38008A015C2383165C088312A600A70102308D
:100F4800A200A3018A017D20B2002508B3000A305F
:100F5800B2070318B30A32088A010C208316DE0090
:100F680083128A015C238A15E8218A015C2383168F
:100F78005A08BE0083128A015C2383165808BF00F2
:100F880083128A015C2383165608C00083128A01E3
:100F98005C2383167C30C10083128A015C2383168C
:100FA8005C086E3E84000008DE0083128A015C2320
:100FB8008A15E8218A015C2383165A08C200831225
:100FC8008A015C2383165808C30083128A015C23B4
:100FD80083165608C40083128A015C2383160D30D9
:100FE800C50083128A015C2383160A30C600831267
:100FF8008A015C238A015C238A015C238A015C23C1
:101008008A1524288A015C23640083162208703C10
:101018008A158312031D22288A015C236400831623
:1010280023086E3C8A158312031D20288A015C233D
:101038008A152B218A015C238A015C238A015C239F
:101048008A015C238A015C238A015C23640083167D
:101058003808003C8A158312031D5E288A015C2328
:1010680083164530B80083128A015C2383165230F8
:10107800B90083128A015C2383165230BA008312A6
:101088008A015C2383164F30BB0083128A015C23DC
:1010980083165230BC0083128A015C2383160D30FC
:1010A800BD0083128A015C2383160A30BE008312B6
:1010B8008A015C238A015C238A015C238A01012C52
:1010C8008A015C2363008A15662864008A150B1D53
:1010D80029298316E10A64006108053C8A158312F0
:1010E800031D8C288316CF018312640018308316E1
:1010F8004F028A15831203188C2883164F08A03EC6
:10110800840000308000CF0A8A158312031D7928D5
:1011180064001F30831661028A158312031C282974
:101128008316E101D50A64003B3055028A15831203
:10113800031C28298316D5010130CE0083126400D0
:10114800073083164E028A1583120318282983163E
:101158004E086E3E840000088312B200640001301D
:1011680032028A15031C222983164E086E3E84001B
:1011780000088312B200FF303207B200FF300318B4
:10118800013EB30083164E086E3E84008312320877
:10119800800083164E086E3E840000088312B20059
:1011A80064003208003C8A15031D22296400831656
:1011B8004E08013C8A158312031DE6280512831682
:1011C80005128312640083164E08023C8A158312A6
:1011D800031DF22885128316851283126400831674
:1011E8004E08033C8A158312031DFE2887118316B7
:1011F80087118312640083164E08043C8A158312F3
:10120800031D0A2907128316071283126400831626
:101218004E08053C8A158312031D1629871283166A
:1012280087128312640083164E08063C8A158312BF
:10123800031D222907138316071383128316CE0A68
:101248008A158312031DA3280B118B1709008A0125
:101258005C2383164F30B80083128A015C238316FF
:101268004B30B90083128A015C2383160D30BA0013
:1012780083128A015C2383160A30BB0083128A0119
:101288005C2308008A015C23FB018A015C23831626
:101298006130DE0083128A015C23F90164000330A7
:1012A80079028A150318BC298A015C2383166130E8
:1012B800D60083128A015C237F08A03E84000008C0
:1012C8008316D80083128A015C23640083165808A9
:1012D8007C3C8A158312031D722908008A015C234D
:1012E8008A15BF218A015C23640083165608613C75
:1012F8008A158312031D812908008A015C23640072
:101308007908003C8A15031D97298A015C238316F6
:101318005608DE0083128A015C230130FB008A0133
:101328005C238A15B3298A015C2383165E0883121D
:10133800A600A7010A30A200A3018A017D20B200FD
:101348002508B30083165608831232078316DE0079
:1013580083128A015C230130FB008A015C238A0125
:101368005C23FF0A8A015C23F90A8A15031D5229A6
:101378008A015C2308008A015C23FF30A200A20ACC
:101388002208093C8A15031CE5298A15D7218316EA
:1013980058028A158312031DC32922088316D60012
:1013A80083128A15E52909308A0022088207303419
:1013B80031343234333434343534363437343834E1
:1013C80039348A015C2308008A015C2383165E088D
:1013D8008312A000A10102308A014320B200B301A8
:1013E800303032078316DA0083128A015C238316B1
:1013F8005E088312A000A10101308A014320B200D7
:10140800B301303032078316D80083128A015C2377
:1014180083165E088312A000A10100308A014320D0
:10142800B200B301303032078316D60083128A0126
:101438005C2308008A015C23640083165E08013C73
:101448008A158312031D2C2A05168316051283128A
:101458008A015C23640083165E08023C8A158312A5
:10146800031D3A2A85168316851283128A015C2386
:10147800640083165E08033C8A158312031D482AFC
:1014880087158316871183128A015C2364008316EB
:101498005E08043C8A158312031D562A0716831614
:1014A800071283128A015C23640083165E08053CD8
:1014B8008A158312031D642A8716831687128312DE
:1014C8008A015C23640083165E08063C8A15831231
:1014D800031D722A07178316071383128A015C23D8
:1014E80008008A015C23640083165E08013C8A15A3
:1014F8008312031D832A05128316051283128A019B
:101508005C23640083165E08023C8A158312031D5F
:10151800912A85128316851283128A015C2364003E
:1015280083165E08033C8A158312031D9F2A8711C0
:101538008316871183128A015C23640083165E0870
:10154800043C8A158312031DAD2A0712831607125D
:1015580083128A015C23640083165E08053C8A15A1
:101568008312031DBB2A87128316871283128A01EE
:101578005C23640083165E08063C8A158312031DEB
:10158800C92A07138316071383128A015C230800EC
:101598008A015C2306308A010C20D7008A015C236B
:1015A80007308A010C20D8008A015C2308308A01A0
:1015B8000C20D9008A015C2309308A010C20DA004A
:1015C8008A015C237C08DB008A015C2308008A010D
:1015D8005C2301308A010C20D7008A015C23023089
:1015E8008A010C20D8008A015C2303308A010C2070
:1015F800D9008A015C2304308A010C20DA008A01B0
:101608005C2305308A010C20DB008A015C2308007A
:02400E00CC3FA5
:104200002800520045004D004F0054004500480072
:104210004F004D00000001000000010000000100FF
:0E42200000000100000001000000010000008D
:00000001FF
