:020000009F2837
:10000800080083178001840AFF3E031D06289A28EA
:10001800031783168C010C1483120C0803178D0A1E
:100028009A28030103178C0083168C010C15553090
:100038008D00AA308D008C148C1820280C11831286
:100048008D0A9A28A301A200FF30A207031CA30768
:10005800031C9A280330A100E33034202828A1018A
:10006800F43EA000A109FE30031C3D28A007031898
:100078003A28A0076400A10F3A2800002018442855
:10008800201846280800013EA7000A30A200A30154
:100098006820A70B4C2824080800A301A2000230FE
:1000A8005828A20004305828A80023082102031D5C
:1000B8005F28220820020430031801300319023097
:1000C8002805031DFF309A28A501A4011030A600B9
:1000D800210DA40DA50D2208A4022308031C230F3B
:1000E800A50203187E282208A40723080318230F53
:1000F800A5070310A00DA10DA60B6C2820089A28AF
:100108001030A800A101A001A70CA60C031C92287E
:100118002208A00723080318230FA107A10CA00C8D
:10012800A50CA40CA80B882824089A288313031369
:100138008312640008008A11582BC8308A012620CF
:100148009416141414128316141783128C11831620
:100158009413831205150A308A0126200511071009
:10016800FE01FF0108002A30D000031701308D007E
:1001780003138A010C20D100031702308D000313EA
:100188008A010C20D200031703308D0003138A0163
:100198000C20D300031704308D0003138A010C20B0
:1001A800D400031705308D0003138A010C20D500F5
:1001B80083160530B90083128A119A222130D000A3
:1001C8000130D10083160130B90083128A119A22B6
:1001D8002230D0000130D10083160130B9008312DB
:1001E8008A119A222530D00003178D0103138A0142
:1001F8000C20D10083160130B90083128A119A228B
:100208003130D0001630D10083160130B900831286
:100218008A119A222630D0000730D1008316013087
:10022800B90083128A119A2283160130C5008312FD
:100238008A11AB218316C5014030BC004B30BE008B
:100248000130C000E230C20083128A11D221831625
:100258000130C500C030BC004B30BE00C001C20137
:1002680083128A11D22183160230C500D030BC0017
:10027800FC30BE008C30C0000230C20083128A11EC
:10028800D22183160330C5009930BC00BE01393035
:10029800C0004130C20083128A11D2218316043073
:1002A800C500D930BC009630BE008230C0001B307B
:1002B800C20083128A11D22183160530C50024306A
:1002C800BC000230BE007F30C000A630C2008312DE
:1002D8008A11D22183160C30C500BC011230BE0031
:1002E8007330C000C20183128A11D22183160D30E7
:1002F800C5004630BC00B430BE008030C000C2012A
:1003080083128A11D2212E30D0004130D100203002
:10031800D2000830D3000430D4008130D50020301A
:10032800D600CF30D700F730D800FE30D900FF30E4
:10033800DA00FF30DB0083160B30B90083128A1114
:100348009A228316C50183128A11AB21080007304F
:10035800D00083160130B90083128A11B722803089
:1003680038058316A700A80127088312A000831662
:1003780028088312A1008316450883128A01512098
:100388008A11031DD1295030D0005330D100831673
:100398000130B90083128A119A220800203083168E
:1003A80045078312D00083163C088312D1008316B8
:1003B8003E088312D200831640088312D3008316A6
:1003C80042088312D40083160430B90083128A11BC
:1003D8009A2208001E308A0126208A118722E130DD
:1003E800D0008316B90183128A119A222730D000CF
:1003F8003030D10083160130B90083128A119A2255
:100408008A111823A030D000831632088312D10035
:1004180083160230C700831264001830831647021F
:100428008A1183120318422AFE3083164707A70051
:10043800FF300318013EA8002708683E8400831295
:1004480000088316A7004708503E84002708831237
:10045800800083164708503E8400831200088316E4
:10046800A700640027080A3C8A1183120319422A4C
:100478008316C70A8A118312031D102A83161630A1
:10048800B90083128A119A220130A100F4308A013E
:10049800342005150130A100F4308A0134200511FB
:1004A80001308A01262064008A110719572A07306B
:1004B800D00083160130B90083128A11B722703038
:1004C80038058316C60064004608103C8A1183125A
:1004D800031D702A8A11DC22640083164608303C0A
:1004E8008A118312031D7A2A8A11EE222730D0003E
:1004F8002030D10083160130B90083128A119A2264
:100508008A118722080005110130A100F4308A0100
:10051800342005150130A100F4308A01342005117A
:100528000130A100F4308A01342008000710831636
:10053800C701831264008316470839028A1183129F
:10054800031CB52A83164708503E8400831200080E
:1005580093008A11D6228316C70A8A118312031DB3
:100568009E2A0714080007108316C7018312640027
:100578008316470839028A118312031CD42A5008AB
:1005880093008A11D62283164708383E84008312C6
:10059800130880008316C70A8A118312031DBB2A19
:1005A8000714080064008A118C1DD62A8C110800D3
:1005B800E130D0008316B90183128A019A222730CC
:1005C800D0001030D10083160130B90083128A019F
:1005D8009A220800E130D0008316B90183128A01FB
:1005E8009A222730D0003030D10083160130B9006C
:1005F80083128A019A2208008A0187222030D000BB
:100608000F30D10083160130B90083128A019A2273
:1006180008002030D0000D30D10083160130B90019
:1006280083128A019A2208003030D0000317013063
:100638008D0003138A010C20D100031702308D00AE
:1006480003138A010C20D200031703308D00031313
:100658008A010C20D300031704308D0003138A018C
:100668000C20D400031705308D0003138A010C20D9
:10067800D50083160530B90083128A019A222430E6
:10068800D0003530D10083160130B90083128A01B9
:100698009A222030D0000E30D10083160130B900E4
:1006A80083128A019A220800831670308F00831201
:1006B80003179E019F0199019A010313A0308B0033
:1006C80083168C01073081008B1783128A11702BD7
:1006D8008B1B08008A15AF288A016C2383168501B5
:1006E80083128A016C2383163030860083128A01B4
:1006F8006C2383160430870083128A016C238316C7
:10070800950183128A016C23031720309500031387
:100718008A016C232030840060308A010620A030D2
:10072800840050308A0106202030840050308A012D
:1007380005208A016C238316861683128A016C238E
:100748008316051283128A016C238316851283127D
:100758008A016C238316871183128A016C238316FE
:10076800071283128A016C238316871283128A0167
:100778006C238316071383128A016C230317063030
:100788008D0003138A010C208316B20083128A019C
:100798006C238316B501831264000B30831635026F
:1007A8008A1183120318152C8A016C2307308316CB
:1007B8003507A700A801A80D2708831203178D0085
:1007C80003138A010C208316BB0083128A016C2351
:1007D80003108316350CA700A801270AC30083124B
:1007E8008A016C23640083163B08003C8A1183123B
:1007F800031D062C8A016C238A1561228A016C2349
:100808008A110C2C8A016C238A15B8228A016C2360
:100818008A016C2302308316B5078A118312031CE0
:10082800D02B8A016C238A01A1208A016C238A01BA
:10083800B7208A016C238A0100238A016C230230C5
:100848008A0126208A016C2305158A016C2364001D
:100858008A11861AC42C8A016C2303178D0128304B
:1008680003138A0116208A016C23031701308D00B7
:10087800523003138A0116208A016C2303170230B1
:100888008D004F3003138A0116208A016C23031749
:1008980003308D00423003138A0116208A016C232D
:1008A800031704308D00493003138A0116208A018A
:1008B8006C23031705308D004B3003138A01162073
:1008C8008A016C2383160630B50083126400153044
:1008D800831635028A1183120318852C8A016C232A
:1008E80083163508831203178D00003003138A011D
:1008F80016208A016C238316B50A8A118312031DF8
:100908006A2C8A016C23031707308D00013003130A
:100918008A0116208A016C23031709308D000130E3
:1009280003138A0116208A016C2303170B308D00EC
:10093800013003138A0116208A016C2303170D3036
:100948008D00013003138A0116208A016C230317D6
:100958000F308D00013003138A0116208A016C23A1
:10096800031711308D00013003138A0116208A0104
:100978006C230330A300E8308A0127208A016C2306
:100988008A016C2364006808003C8A110319EE2C64
:100998008A016C23640083163008013C8A11831293
:1009A800031DE12C8A016C238A01B7208A016C237C
:1009B8008316B00183128A016C238A016C238A0191
:1009C800EE218A016C23E8018A016C238A011D2C1F
:1009D8008A016C238A016C2364008A110719292C67
:1009E8008A016C2305118A016C236130D0008A01C9
:1009F8006C2383161630B90083128A016C238A018E
:100A0800B7228A016C23E8018A016C236400390843
:100A1800831632028A158312031D70288A016C23FB
:100A280064003A08633C8A11031D7B2D8A016C23FC
:100A380064003B083D3C8A11031D772D8A016C2315
:100A480003178D01031341088A0116208A016C23BC
:100A5800031701308D0003133C088A0116208A0110
:100A68006C23031702308D0003133D088A011620FA
:100A78008A016C23031703308D0003133E088A0193
:100A880016208A016C23031704308D0003133F08D6
:100A98008A0116208A016C23031705308D00031381
:100AA80040088A0116208A016C23031706308D003E
:100AB800031342088A0116208A016C230A308A012E
:100AC80026208A016C2342088316B20083128A0109
:100AD8006C2383160130B00083128A016C238A15B7
:100AE80061218A016C238A016C238A1548286400D5
:100AF8003A086C3C8A11031D072F8A016C23831660
:100B08000330B50083128A016C238A1574218A0187
:100B18006C23640083163108013C8A118312031D7B
:100B2800032F8A016C2383164308C10083128A01AC
:100B38006C2364000130831643028A118312031C5C
:100B4800012F8A016C2364000730831643028A113F
:100B580083120318FF2E8A016C2364003C08633C4F
:100B68008A11031D612E8A016C2364003D086F3CC5
:100B78008A11031DE32D8A016C2383164108831211
:100B8800A600A7010230A200A3018A0184208316CF
:100B9800A700831225088316A8000530A7070318A5
:100BA800A80A2708831203178D00003003138A014F
:100BB80016208A016C238A1561218A016C238A0117
:100BC8006C2364003D08663C8A11031D0F2E8A01C0
:100BD8006C23831641088312A600A7010230A200E5
:100BE800A3018A0184208316A7008312250883168F
:100BF800A8000530A7070318A80A270883120317B7
:100C08008D00013003138A0116208A016C238A158E
:100C180061218A016C238A016C2364003D08743CBD
:100C28008A11031D5D2E8A016C2364003E083D3C39
:100C38008A11031D5B2E8A016C2383160730B500C9
:100C480083128A016C238A1574218A016C2364003B
:100C580083163108013C8A118312031D592E8A011B
:100C68006C23831641088312A600A7010230A20054
:100C7800A3018A0184208316A700831225088316FE
:100C8800A8000630A7070318A80A27088312031725
:100C98008D0083160313430883128A0116208A01E4
:100CA8006C238A1561218A016C238A016C238A01CD
:100CB8006C238A016C238A11FD2E64003C086F3C6A
:100CC8008A11031DE72E8A016C2364003D08663CE7
:100CD8008A11031DCB2E8A016C23831641088312C7
:100CE800A600A7010230A200A3018A01842083166E
:100CF800A700831225088316A8000630A707031843
:100D0800A80A2708831203178D0003138A010C20F1
:100D18008316A700A8014108A03E84002708831273
:100D280080008A016C2383164108A03E8400831248
:100D380000088316A70064002708013C8A11831263
:100D4800031DB92E8A016C236400283083163A02E9
:100D58008A1183120318B72E83164108A03E840017
:100D68008312023080008A016C238A016C23831667
:100D78004108C30083128A016C238A1561228A0103
:100D88006C238A1561218A016C238A11E32E8A015A
:100D98006C2383164108C30083128A016C238A15C9
:100DA80061228A016C2383164108A03E84008312C5
:100DB80080018A016C238A1561218A016C238A01CA
:100DC8006C238A11FD2E64003C08663C8A11031DC1
:100DD800FD2E8A016C2383164108C30083128A0101
:100DE8006C238A15B8228A016C238A1561218A012D
:100DF8006C238A016C238A016C238A016C238A0183
:100E08006C238A15482864003A08733C8A15031D28
:100E180032288A016C2383160330B50083128A01B5
:100E28006C238A1574218A016C23640083163108A7
:100E3800013C8A158312031D2E288A016C23831610
:100E48004308C10083128A016C23640001308316B1
:100E580043028A158312031C2C288A016C23640020
:100E68000730831643028A15831203182A288A0139
:100E78006C233330E8008A016C237C30E9008A0156
:100E88006C23640083164108013C8A118312031DF8
:100E9800512F0030051A0130EA008A016C236400E2
:100EA80083164108023C8A118312031D5F2F00300C
:100EB800851A0130EA008A016C2364008316410810
:100EC800033C8A118312031D6D2F003087190130EE
:100ED800EA008A016C23640083164108043C8A11E5
:100EE8008312031D7B2F0030071A0130EA008A01A4
:100EF8006C23640083164108053C8A118312031D84
:100F0800892F0030871A0130EA008A016C236400B7
:100F180083164108063C8A118312031D972F00305F
:100F2800071B0130EA008A016C233030EA078A0186
:100F38006C237C30EB008A016C23831641088312F2
:100F4800A600A7010230A200A3018A01842083160B
:100F5800A700831225088316A8000530A7070318E1
:100F6800A80A2708831203178D0003138A010C208F
:100F7800EC008A016C233030EC078A016C237C304A
:100F8800ED008A016C23831641088312A600A7018D
:100F98000230A200A3018A0184208316A7008312CD
:100FA80025088316A8000630A7070318A80A2708EB
:100FB800831203178D0003138A010C208316C300C4
:100FC80083128A016C238A152B228A016C238316CB
:100FD8003F088312EE008A016C2383163D088312B2
:100FE800EF008A016C2383163B088312F0008A0104
:100FF8006C237C30F1008A016C2383164108A03EE3
:101008008400831200088316C30083128A016C23AC
:101018008A152B228A016C2383163F088312F2005B
:101028008A016C2383163D088312F3008A016C231E
:1010380083163B088312F4008A016C230D30F500F7
:101048008A016C230A30F6008A016C238A016C231A
:101058008A016C238A016C238A15482864003A089F
:10106800703C8A15031D48288A016C2364003B08DC
:101078006E3C8A15031D46288A016C238A15612156
:101088008A016C238A016C238A016C236400680836
:10109800003C8A15031D6E288A016C234530E80040
:1010A8008A016C235230E9008A016C235230EA002D
:1010B8008A016C234F30EB008A016C235230EC001C
:1010C8008A016C230D30ED008A016C230A30EE0092
:1010D8008A016C238A016C238A016C231730D000A3
:1010E8008A016C2383160130B90083128A016C23AC
:1010F8008A01B7228A016C2339088316C600831235
:101108008A016C2364008A1183168310461C831499
:1011180083128318F72C8A016C232730D0008A01A8
:101128006C234030D1008A016C2383160130B9004A
:1011380083128A016C238A019A228A016C23023065
:101148008A0126208A016C238A011D2C8A016C23BE
:1011580063008A15AC2864008A150B1D5F29831665
:10116800AD0A0319AE0A2D088312A00083162E08B3
:101178008312A100A3011F308A0155208A15031D7F
:101188005E298316AD01AE01BA0A64003B303A020B
:101198008A158312031C5E298316BA010130B60032
:1011A800831264000730831636028A1583120318E7
:1011B8005E2983163608A03E840083120008831631
:1011C800A7006400013027028A158312031C5829DE
:1011D80083163608A03E8400831200088316A700F1
:1011E800FF302707A700FF300318013EA800360884
:1011F800A03E840027088312800083163608A03E8C
:101208008400831200088316A70064002708003CA6
:101218008A158312031D5829640083163608013C79
:101228008A158312031D1C290512831605128312C1
:10123800640083163608023C8A158312031D282988
:101248008512831685128312640083163608033CC0
:101258008A158312031D3429871183168711831277
:10126800640083163608043C8A158312031D40293E
:101278000712831607128312640083163608053C8A
:101288008A158312031D4C2987128316871283122D
:10129800640083163608063C8A158312031D5829F4
:1012A80007138316071383128316B60A8A15831247
:1012B800031DD5280B118B1709008A016C234F30A9
:1012C800E8008A016C234B30E9008A016C230D3059
:1012D800EA008A016C230A30EB008A016C230800BB
:1012E8008A016C238316B10183128A016C23831649
:1012F8006130C30083128A016C238316AF01831205
:101308006400033083162F028A1583120318FC2900
:101318008A016C2383166130BB0083128A016C2317
:1013280083163508383E8400831200088316BD00F2
:1013380083128A016C23640083163D087C3C8A155D
:101348008312031DA82908008A016C238A15FF212E
:101358008A016C23640083163B08613C8A1583125A
:10136800031DB72908008A016C23640083162F081F
:10137800003C8A158312031DD1298A016C23831628
:101388003B08C30083128A016C2383160130B10025
:1013980083128A016C238A15EF298A016C2383162C
:1013A80043088312A600A7010A30A200A3018A01FC
:1013B80084208316A700831225088316A80027080F
:1013C8003B07C30083128A016C2383160130B100E6
:1013D80083128A016C238A016C238316B50A83124F
:1013E8008A016C238316AF0A8A158312031D842988
:1013F8008A016C2308008A016C23FF30A200A20A2C
:101408002208093C8A15031C282A8A1517228316E4
:101418003D028A158312031D032A22088316BB0086
:1014280083128A15282A0A308A0022081E3E0318C9
:101438008A0A820030343134323433343434353427
:1014480036343734383439348A016C2308008A0139
:101458006C23831643088312A000A10102308A017D
:1014680047208316A700A80130302707BF00831242
:101478008A016C23831643088312A000A10101305E
:101488008A0147208316A700A80130302707BD002E
:1014980083128A016C23831643088312A000A101DA
:1014A80000308A0147208316A700A801303027079B
:1014B800BB0083128A016C2308008A016C23640034
:1014C80083164308013C8A158312031D6F2A0516EB
:1014D8008316051283128A016C236400831643085D
:1014E800023C8A158312031D7D2A851683168512F0
:1014F80083128A016C23640083164308033C8A150F
:101508008312031D8B2A87158316871183128A017C
:101518006C23640083164308043C8A158312031D58
:10152800992A07168316071283128A016C2364000E
:1015380083164308053C8A158312031DA72A8716BC
:101548008316871283128A016C236400831643086A
:10155800063C8A158312031DB52A0717831607133D
:1015680083128A016C2308008A016C2364008316A5
:101578004308013C8A158312031DC62A05128316E7
:10158800051283128A016C23640083164308023C07
:101598008A158312031DD42A851283168512831295
:1015A8008A016C23640083164308033C8A1583125E
:1015B800031DE22A87118316871183128A016C237F
:1015C800640083164308043C8A158312031DF02A1D
:1015D80007128316071283128A016C23640083168C
:1015E8004308053C8A158312031DFE2A87128316B9
:1015F800871283128A016C23640083164308063C11
:101608008A158312031D0C2B0713831607138312E5
:061618008A016C230800AA
:02400E00CC3FA5
:10420000280052004F00420049004B00000001000E
:10421000000001000000010000000100000001009A
:0642200000000100000097
:00000001FF
