:020000000029D5
:100008000800083037190130A300A2013A0884001B
:100018003808492038088004FB20FF208413000595
:10002800FF3E371DA20C3719A20D32307920A30BE1
:100038000C2822080314FB28A200083037190130C5
:10004800A300A20C3A08840038084920380803188D
:1000580080043C30792038088004A30B2528031439
:10006800FB28B71CFB283B28B700371CFB283A089D
:100078008400380849200130A100F4307A2038087B
:1000880080040130A100F4307A28FF3A80054C281A
:1000980084178005FB2883178001840AFF3E031D0F
:1000A8005028FB2803178D0083168C130C14831219
:1000B8000C08FB2803178C0083168C130C1555307D
:1000C8008D00AA308D008C148C1868280C11FB2820
:1000D800A301A200FF30A207031CA307031CFB28EF
:1000E8000330A100E3307A206E28A101F43EA0007D
:1000F800A109FE30031C8328A00703188028A00745
:100108006400A10F8028000020188A2820188C2855
:100118000800013EA7000A30A200A301C920A70BCE
:100128009228240808000310A10CA00CFF3E031815
:1001380097282008FB28A301A2000230AB28A200C0
:100148000330AB28A2000630AB28A2000530A80077
:1001580023082102031DB2282208200204300318B4
:100168000130031902302805031DFF30FB28A200C7
:100178002008A6002408A0002608A4002108A6003C
:100188002508A1002608A500CB28A501A401103048
:10019800A600210DA40DA50D2208A4022308031C06
:1001A800230FA5020318DF282208A4072308031831
:1001B800230FA5070310A00DA10DA60BCD2820081D
:1001C800FB281030A800A101A001A70CA60C031C55
:1001D800F3282208A00723080318230FA107A10C5E
:1001E800A00CA50CA40CA80BE9282408FB28831351
:1001F80003138312640008008A11B82BC8308A01DF
:100208006C209416141414128316141783128C116C
:1002180083169413831205150A308A016C20051180
:100228000710F401F50108002A30D4008A15CA2302
:1002380083160530DE0083128A11B8222130D400DB
:100248000130D5008A11B4222230D4000130D50003
:100258008A11B4222530D40000308A015620D500F6
:100268008A11B4223130D4001630D5008A11B42254
:100278002630D4002730D5008A11B42283160130E5
:10028800ED0083128A11D5218316ED014030E40078
:100298004B30E6000130E800E230EA0083128A11B0
:1002A800F42183160130ED00C030E4004B30E60045
:1002B800E801EA0183128A11F42183160230ED0065
:1002C800D030E400FC30E6008C30E8000230EA0070
:1002D80083128A11F42183160330ED009930E4006B
:1002E800E6013930E8004130EA0083128A11F4212E
:1002F80083160430ED00D930E4009630E6008230F1
:10030800E8001B30EA0083128A11F42183160530B5
:10031800ED002830E4000230E6007F30E800A63027
:10032800EA0083128A11F42183160C30ED00E401EF
:100338001230E6007330E800EA0183128A11F421D2
:1003480083160D30ED004630E400B430E60080300E
:10035800E800EA0183128A11F4212E30D4004130DA
:10036800D5002030D6000830D7000430D8008130BE
:10037800D9002030DA00CF30DB00F730DC00FE3067
:10038800DD00FF30DE00FF30DF0083160B30DE00BB
:1003980083128A11B8228316ED0183128A11D5219E
:1003A80008000730D40083160130DE0083128A115A
:1003B800D72280303C05B200B3013208A0003308D0
:1003C800A10083166D0883128A019F208A11031DDC
:1003D800F3295030D4005330D5008A11B4220800D4
:1003E800203083166D078312D400831664088312A5
:1003F800D500831666088312D60083166808831210
:10040800D70083166A088312D80083160430DE00EA
:1004180083128A11B82208008A11A1221E308A018B
:100428006C208A11A122E130D4008316DE018312E8
:100438008A11B8222730D4003030D5008A11B4226E
:100448008A112C23A030D400831653088312D500B8
:1004580003170230A20003136400183003172202A6
:100468008A1103130318602AFE30031722070313A7
:10047800B200FF300318013EB3003208B83E8400D2
:100488000008B20003172208543E84000313320800
:10049800800003172208543E840000080313B200AA
:1004A800640032080A3C8A110319602A0317A20A59
:1004B8008A110313031D302A83161630DE008312B7
:1004C8008A11B8220130A100F4308A017A2005157A
:1004D8000130A100F4308A017A20051101308A0127
:1004E8006C2064008A110719752A0730D400831616
:1004F8000130DE0083128A11D72270303C050317C1
:10050800A10064002108103C8A110313031D8E2AE0
:100518008A11FE22640003172108303C8A11031354
:10052800031D982A8A110C232730D4002030D500C7
:100538008A11B4228A11A122080005110130A100F4
:10054800F4308A017A2005150130A100F4308A01BF
:100558007A2005110130A100F4308A017A200800C0
:1005680083160130DE00831207100317A20103135C
:10057800640003172208831603135E028A1183128C
:10058800031CD52A03172208543E840000080313CD
:1005980093008A11F8220317A20A8A110313031D74
:1005A800BC2A0714080007100317A20103136400EC
:1005B80003172208831603135E028A118312031C91
:1005C800F62A540893008A11F822031722083C3EA1
:1005D80084000313130880000317A20A8A11031367
:1005E800031DDB2A0714080064008A118C1DF82AF1
:1005F8008C110800E130D4008316DE0183128A01D1
:10060800B8222730D4001030D5008A01B42208005F
:10061800E130D4008316DE0183128A01B822273024
:10062800D4003030D5008A01B42208008A01A12202
:100638002030D4000F30D5008A01B4228A01A122CB
:1006480008002030D4000D30D5008A01B4220800FB
:100658003030D4008A15EB2383160530DE00831270
:100668008A01B8222430D400FF30D5008A01B42290
:100678002030D4000E30D5008A01B4220800613041
:10068800D40083161630DE0083128A01D72283161F
:100698000130E100D9018312640018308316590231
:1006A8008A1183120318902B83165908A03E8400E0
:1006B80000088312B200831659083C3E84000008E3
:1006C8008312B4006400320834028A1103196F2BB4
:1006D8008316E1018312831659083C3E8400000802
:1006E8008312B20083165908A03E84008312320890
:1006F800800083165908A03E840000088312B200C7
:10070800640032080A3C8A110319902B8316D90A0F
:100718008A118312031D502B1730D4008316013021
:10072800DE0083128A01D7223D080317A100640066
:100738008A118310211C831403138318782D273002
:10074800D4004030D5008A01B42202308A016C20DE
:100758000317A0016400831603136108013C8A1182
:1007680083120319712C0800831670308F008312CE
:1007780003179E019F0199019A010313A0308B0072
:1007880083168C01073081008B1783128A11D02BB6
:100798008B1B08008A113C2F8A01CC23831620303A
:1007A800850083128A01CC23831630308600831299
:1007B8008A01CC2383160430870083128A01CC2354
:1007C8008316FF30950083128A01CC230317FF306C
:1007D800950003138A01CC232030840060308A01FD
:1007E8005020A030840050308A01502020308400EE
:1007F80050308A014F208A01CC23831605128312B8
:100808008A01CC238316851683128A01CC230C30E7
:100818008A015620F600F7018A01CC237608A60043
:100828007708A7000A30A200A3018A01E520F60094
:100838002508F7008A01CC230A308A01562083163E
:10084800D30083128A01CC230B308A0156208316E9
:10085800EF0083128A01CC230D308A0156208316BB
:10086800EE0083128A01CC230E308A0156208316AB
:10087800DC0083128A01CC238A159D208A01CC23AF
:1008880083164E088312F00083164F088312F10076
:100898008A01CC238316DD0183128A01CC238A15B1
:1008A8008C238A01CC238A0102218A01CC238A0164
:1008B80018218A01CC238A0118218A01CC236400DB
:1008C80083165308003C8A1183120319712C8A017C
:1008D800CC238A15A9238A01CC238A01CC238A0137
:1008E8001A238A01CC2302308A016C208A01CC2386
:1008F80005158A01CC2364008A11861A162D8A01EF
:10090800CC2303178D01283003138A015E208A0146
:10091800CC23031701308D00523003138A015E2067
:100928008A01CC23031702308D00453003138A0156
:100938005E208A01CC23031703308D004D3003134A
:100948008A015E208A01CC23031704308D004F30C2
:1009580003138A015E208A01CC23031705308D001A
:10096800543003138A015E208A01CC230317063012
:100978008D00453003138A015E208A01CC230317BA
:1009880007308D00483003138A015E208A01CC238A
:10099800031708308D004F3003138A015E208A0147
:1009A800CC23031709308D004D3003138A015E20D4
:1009B8008A01CC2303170A308D00003003138A0103
:1009C8005E208A01CC2303170B308D0000300313FF
:1009D8008A015E208A01CC2303170C308D000C306D
:1009E80003138A015E208A01CC2303170D308D0082
:1009F8002C3003138A015E208A01CC2303170E30A2
:100A08008D00003003138A015E208A01CC23033055
:100A1800A300E8308A016D208A01CC238A01EE2BDD
:100A28008A01CC238A01CC23640083165D08013C2B
:100A38008A118312031D412D8A01CC237608A00058
:100A48007708A100A30100308A01A0208A11031DA4
:100A58003F2D8A01CC2383160230DD0083128A01E0
:100A6800CC2376088316E20083128A01CC238A15E8
:100A780010218A01CC238A01CC238A01CC2364006B
:100A880083163808003C8A11831203196F2D8A01D6
:100A9800CC23640083165008013C8A118312031D7D
:100AA800602D8A01CC238A0118218A01CC23831660
:100AB800D00183128A01CC238A01CC238A01102217
:100AC8008A01CC238316B80183128A01CC238A01B8
:100AD800712C8A01CC238A01CC2364008A1107195E
:100AE8007D2C8A01CC2305118A0143238316B80182
:100AF8006400210853028A118312031D332F6400F6
:100B0800831623083D3C8A118312031D722E831617
:100B18000430D60083128A11EC2764008316220859
:100B2800633C8A118312031DDC2D8316D6018312C0
:100B380064000B30831656028A1183120318C12DE4
:100B48000430831656078312B200B301B30D32087E
:100B5800A03E84000008B2008316560883120317CB
:100B68008D00031332088A015E208A01CC23831684
:100B7800D60A8A118312031D9C2D8A01CC230A30C0
:100B88008A0156208316D30083128A01CC23FA30B7
:100B98008A016C208A01CC2383160130D00083128D
:100BA8008A01CC238A11D1278A01CC238A116E2E7F
:100BB8008A01CC23640083165108013C8A118312F0
:100BC800031D6C2E8A01CC236400831622086D3C19
:100BD8008A118312031D1A2E03170C308D008316F9
:100BE80003136B0883128A015E208A01CC238316C3
:100BF8006B088312A600A7010A30A200A3018A018C
:100C0800E520F6002508F7008A01CC23760883162C
:100C1800E20083128A01CC238A15A9238A01CC23F6
:100C28008A11D1278A01CC238A116A2E8A01CC2302
:100C3800640083162208743C8A118312031D3B2E1C
:100C480003170D308D00831603136B0883128A0176
:100C58005E208A01CC2383166B08EE0083128A017A
:100C6800CC238A11D1278A01CC238A11682E8A01C4
:100C7800CC23640083162208723C8A118312031D58
:100C8800662E8A01CC2364000A3083166B028A110F
:100C980083120318642E03170B308D008316031379
:100CA8006B0883128A015E208A01CC2383166B08A5
:100CB800EF0083128A01CC238A11D1278A01CC2321
:100CC8008A01CC238A01CC238A01CC238A01CC2334
:100CD8008A01CC238A01CC238A11212F8A01CC23B3
:100CE800640083162208733C8A118312031D842E24
:100CF8008A01CC238A1510218A01CC238A111F2F3F
:100D08008A01CC236400831622086F3C8A1183125F
:100D1800031DA02E8A01CC238A159A238A01CC238D
:100D280083160130DC0083128A01CC238A11D12773
:100D38008A01CC238A111D2F8A01CC2364008316D3
:100D48002208663C8A118312031DBC2E8A01CC231B
:100D58008A158C238A01CC2383160130DC00831288
:100D68008A01CC238A11D1278A01CC238A111B2F0F
:100D78008A01CC23640083162208783C8A118312E6
:100D8800031DDB2E8A01CC2383160130DC0083127D
:100D980003170E308D00013003138A015E208A018B
:100DA800CC238A11D1278A01CC238A11192F8A01D1
:100DB800CC23640083162208793C8A118312031D10
:100DC800F92E8A01CC238316DC01831203170E3017
:100DD8008D00003003138A015E208A01CC238A111A
:100DE800D1278A01CC238A11172F8A01CC236400CA
:100DF80083162208703C8A118312031D152F8A015D
:100E0800CC236400831623086E3C8A118312031DC9
:100E1800132F8A01CC238A11D1278A01CC238A0176
:100E2800CC238A01CC238A01CC238A01CC238A01D2
:100E3800CC238A01CC238A01CC238A01CC236400E9
:100E480083163808003C8A118312031D312F8A014A
:100E5800CC238A11A4278A01CC238A01CC238A01B6
:100E6800CC238A01712C8A01CC2363008A01392F93
:100E780064008A110B1DA22F0317A00A6400200822
:100E88000A3C8A110313031D5F2F8316D8018312AE
:100E980064001830831658028A11831203185F2FD2
:100EA80083165808A03E840000308000D80A8A11B2
:100EB8008312031D4C2F64001F30031720028A1170
:100EC8000313031CA12F0317A00183160313E00AC1
:100ED80064006008323C8A118312031D8E2F83162A
:100EE800E00164005408003C8A118312031D8E2F10
:100EF80083160130D40083128A159D20700883164A
:100F08004E028312EE007108031C013E83164F0245
:100F18008312EF0064000130831662028A11831283
:100F2800031CA12F8316E20364006208003C8A11A7
:100F38008312031DA12F8A15A9230B118B170900F2
:100F48008A01CC2383164530B80083128A01CC234A
:100F580083165230B90083128A01CC23831652308B
:100F6800BA0083128A01CC2383164F30BB00831248
:100F78008A01CC2383165230BC0083128A01CC2309
:100F880083160D30BD0083128A01CC2383160A30E4
:100F9800BE0083128A01CC2308008A01CC23831661
:100FA8004F30B80083128A01CC2383164B30B90026
:100FB80083128A01CC2383160D30BA0083128A016A
:100FC800CC2383160A30BB0083128A01CC23080085
:100FD8008A01CC238316EB0183128A01CC23831662
:100FE800D10183128A01CC238316D70183126400AE
:100FF8000330831657028A158312031871288A0151
:10100800CC2383166130E30083128A01CC23831634
:101018005608A03E84000008E50083128A01CC230C
:101028006400831665087C3C8A158312031D1D28FD
:1010380008008A01CC238A1574208A01CC23640015
:1010480083166308613C8A158312031D2C28080047
:101058008A01CC23640083165708003C8A15831242
:10106800031D46288A01CC2383166308EB008312EC
:101078008A01CC2383160130D10083128A01CC2344
:101088008A1564288A01CC2383166B088312A6006C
:10109800A7010A30A200A3018A01E520B2002508B1
:1010A800B30083166308831232078316EB0083129A
:1010B8008A01CC2383160130D10083128A01CC2304
:1010C8008A01CC238316D60A83128A01CC2383167D
:1010D800D70A8A118312031DFB2F8A01CC2308002B
:1010E8008A01CC23FF30A200A20A2208093C8A15F3
:1010F800031C9A288A158C20831665028A15831288
:10110800031D782822088316E30083128A159A287B
:1011180008308A00220882073034313432343334BC
:101128003434353436343734383439348A01CC23BE
:1011380008008A01CC230530BA002030B8000130FD
:101148008A013820CC308A01202044308A012020AE
:101158008A0135208A01CC230530BA002030B80036
:1011680004308A0138208A010520831601390319C1
:101178005F10031D5F1483128A0135208A01CC2376
:1011880064008A15831683105F18831483128318EA
:10119800CF288A15AE288A01CC230530BA00203022
:1011A800B80001308A013820CC308A012020BE30B6
:1011B8008A0120208A0135208A01CC230530BA0013
:1011C8002030B80002308A0138208A0105208316B1
:1011D800CE0083128A0105208316CF0083128A016C
:1011E80035208A01CC23640083165408013C8A15F3
:1011F8008312031D0D298A01CC236E088316CE02A3
:1012080083126F08031C013E8316CF0283128A01E2
:10121800CC238A01CC2308008A01CC238A159D207F
:101228008A01CC2383163630B80083128A01CC2376
:1012380083167C30B90083128A01CC2364008A1596
:1012480083168310CF1D8314831283187E298A0185
:10125800CC2383162D30BA004E098312B2008316B0
:101268004F098312B300B20A0319B30A7130A600FA
:101278000230A7003208A2003308A3008A01E52043
:101288008316D5008312A3010A308A01BB20FE0011
:101298002108FF008A01CC237E08A0007F08A10056
:1012A80004308A018D20B200B30130303207831632
:1012B800BB0083128A01CC237E08A0007F08A1000E
:1012C80003308A018D20B200B30130303207831613
:1012D800BC0083128A01CC23640083165208013CA7
:1012E8008A15831203197A298A159A238A01CC232D
:1012F8008A15D02A7130A6000230A70083164E083E
:101308008312A20083164F088312A3008A01E520E6
:101318008316D5008312A3010A308A01BB20FE0080
:101328002108FF008A01CC238316F0304E05831272
:10133800B2000F3083164F058312B3003208A000A5
:101348003308A10004308A019A20FE002108FF001A
:101358008A01CC230F3083164E058312B200B301E5
:101368003208A6003308A7007130A2000230A3009B
:101378008A01E520F2002508F3008A01CC237E08C3
:10138800A0007F08A10001308A018D20B200B301BE
:10139800303032078316BA0083128A01CC237E08C4
:1013A800A0007F08A10000308A018D20B200B3019F
:1013B800303032078316BB0083128A01CC237208AF
:1013C800A0007308A10003308A018D20B200B30188
:1013D800303032078316BC0083128A01CC237E0882
:1013E800A600A7010A30A200A3018A01E520B200E5
:1013F8002508B300D03083163C078312B400FF30B1
:101408000318013EB50032083407FA003308031800
:10141800013E3507FB008A01CC237A08A0007B082F
:10142800A100A3011E308A01A3208A15031D2C2ABE
:101438008A01CC23640083165208013C8A15831262
:101448000319282A8A159A238A01CC238A15CE2AB9
:101458008A01CC23640083165C08003C8A15831239
:10146800031DCC2A8A01CC23640083166E08003C35
:101478008A1583120319CA2A8A01CC2383166F0896
:1014880083127A07FC007B080318013EFD008A01DD
:10149800CC23031083166E0C8312B200B3013208FA
:1014A800A6003308A7000A30A200A3018A01E5209C
:1014B800B2002508B30083166E088312A000A101AC
:1014C8000230A200A3018A01C9202408B40025081B
:1014D800B5003408A6003508A7000530A200A3010E
:1014E8008A01E520B4002508B50032083407F80061
:1014F80033080318013E3507F9008A01CC237C081C
:10150800A0007D08A1007908A30078088A01A62018
:101518008A15031D9F2A8A01CC236400831652086A
:10152800003C8A15831203199B2A8A158C238A0189
:10153800CC238A15C82A8A01CC2383166F08831204
:101548007A02FC007B08031CFF3EFD008A01CC23C5
:101558007C08A0007D08A1007908A30078088A010A
:10156800A3208A15031DC62A8A01CC23640083168A
:101578005208013C8A1583120319C42A8A159A2332
:101588008A01CC238A01CC238A01CC238A01CC236B
:101598008A01CC238A01CC238A01CC2383167C3090
:1015A800BD0083128A01CC237608A0007708A10029
:1015B8000A30A200A3018A01C9208316EB00831216
:1015C8008A01CC2383160630D60083128A01CC23E5
:1015D8008A153A238A01CC2383167C30C1008312F2
:1015E8008A01CC2383160930D60083128A01CC23C2
:1015F80083166E08EB0083128A01CC238A155123C7
:101608008A01CC2383167C30C40083128A01CC2340
:10161800303083165207C50083128A01CC23831603
:101628007C30C60083128A01CC23303083166F07C2
:10163800C70083128A01CC2383167C30C80083122A
:101648008A01CC23303083165C07C90083128A01D3
:10165800CC2383160D30CA0083128A01CC2383164B
:101668000A30CB0083128A01CC2308008A01CC23DC
:1016780083166B088312A000A10102308A018D2015
:10168800B200B3013030B2070318B30A8316560804
:10169800B83E84008312320880008A01CC230130CE
:1016A800831656078312B400B501B50D83166B086F
:1016B8008312A000A10101308A018D20B200B3017C
:1016C8003030B2070318B30A3408B83E8400320831
:1016D80080008A01CC230230831656078312B40097
:1016E800B501B50D83166B088312A000A101003067
:1016F8008A018D20B200B3013030B2070318B30A53
:101708003408B83E8400320880008A01CC230800DF
:101718008A01CC2305128316051283128A01CC2371
:101728008316D20183128A01CC2308008A01CC23B4
:1017380005168316051283128A01CC2383160130FD
:10174800D20083128A01CC2308008A01CC237608B0
:10175800A0007708A100A30100308A01A9208A15FA
:10176800031DBF2B8A01CC238316DD0183128A0156
:10177800CC238A15C72B8A01CC2383160130DD00C0
:1017880083128A01CC238A01CC2308008A01CC2346
:1017980006308A015620D5008A01CC2307308A01F9
:1017A8005620D6008A01CC2308308A015620D7005B
:1017B8008A01CC2309308A015620D8008A01CC231B
:1017C800831653088312D9008A01CC2308008A01A2
:1017D800CC2301308A015620D5008A01CC2302305F
:1017E8008A015620D6008A01CC2303308A0156206C
:1017F800D7008A01CC2304308A015620D8008A01F8
:10180800CC2305308A015620D9008A01CC23080050
:02400E00CC3FA5
:104200002800520045004D004F0054004500480072
:0E4210004F004D00000000000C002C000000CC
:00000001FF
