:020000002329B2
:1000080008009818181218162C08A0002D08A1002E
:10001800A201A3010F28102864008C1A2C28FF3095
:10002800A207031CA307031CA007031CA107031CAA
:100038000800220F0E28230F0F286430A20000307A
:10004800A300102898181812181664008C1E292866
:100058001A0803141E29040864000C1E302899008D
:1000680003141E29A4002908031403191E291921A1
:10007800031C0800A0002518831724088400200802
:1000880080002E0203194C288313A40AA9033728D9
:100098008001840AA90B4C2803141E29B3132908CC
:1000A8000319B3170530A8002730A30010306820C3
:1000B8000330A300E8306820A30164306820A3015E
:1000C8000A30682024086F28A2002508A100240807
:1000D800A000E7202008A000A8030319B3132908EB
:1000E800031979282802031808002008031DB313F0
:1000F800B31B0800303E192983178001840AFF3E8C
:10010800031D81281E29031783168C010C148312E2
:100118000C0803178D0A1E29030103178C00831688
:100128008C010C1555308D00AA308D008C148C185C
:100138009B280C1183128D0A1E29A301A200FF30EF
:10014800A207031CA307031C1E290330A100E330E8
:10015800AF20A328A101F43EA000A109FE30031C92
:10016800B828A0070318B528A0076400A10FB52870
:1001780000002018BF282018C1280800A301A200E9
:100188000230CC28A2000330CC28A2000630CC28AC
:10019800A80023082102031DD328220820020430C6
:1001A80003180130031902302805031DFF301E29EA
:1001B8000038031DFF300405031DFF301E29040409
:1001C800031DFF301E29A501A4011030A600210D32
:1001D800A40DA50D2208A4022308031C230FA502C1
:1001E8000318FD282208A40723080318230FA507CE
:1001F8000310A00DA10DA60BEB2820081E29103016
:10020800A800A101A001A70CA60C031C1129220813
:10021800A00723080318230FA107A10CA00CA50C05
:10022800A40CA80B072924081E29840031088A0079
:1002380030088200831303138312640008008316B6
:1002480033309900243098008312903098008A1136
:10025800A42B0330A300E8308A01A22094161414BA
:1002680014128316141783128C1183169413831295
:1002780005150A308A01A12005110710FE01FF01AA
:1002880008002A30D0008A15EB2283160530DF00DB
:1002980083128A1107232130D0000130D100831640
:1002A8000130DF0083128A1107232230D000013089
:1002B800D10083160130DF0083128A11072325300D
:1002C800D00003178D0103138A018720D1008316FC
:1002D8000130DF0083128A1107233130D000163035
:1002E800D10083160130DF0083128A1107232630DC
:1002F800D0000730D10083160130DF0083128A1145
:10030800072383160130EB0083128A111822831603
:10031800EB014030E2004B30E4000130E600E2300F
:10032800E80083128A113F2283160130EB00C030A7
:10033800E2004B30E400E601E80183128A113F2213
:1003480083160230EB00D030E200FC30E4008C3041
:10035800E6000230E80083128A113F228316033038
:10036800EB009930E200E4013930E6004130E80062
:1003780083128A113F2283160430EB00D930E20041
:100388009630E4008230E6001B30E80083128A11C0
:100398003F2283160530EB002830E2000230E400EB
:1003A8007F30E600A630E80083128A113F228316C8
:1003B8000C30EB00E2011230E4007330E600E80193
:1003C80083128A113F2283160D30EB004630E2007B
:1003D800B430E4008030E600E80183128A113F223D
:1003E8002E30D0004130D1002030D2000830D30068
:1003F8000430D4008130D5002030D600CF30D7006B
:10040800F730D800FE30D900FF30DA00FF30DB00CB
:1004180083160B30DF0083128A1107238316EB0142
:1004280083128A11182208000730D0008316013081
:10043800DF0083128A112423803038058316CC000C
:10044800CD014C088312A00083164D088312A10029
:1004580083166B0883128A01C2208A11031D3E2A63
:100468005030D0005330D10083160130DF008312A2
:100478008A1107230800203083166B078312D000E7
:10048800831662088312D100831664088312D2008F
:10049800831666088312D300831668088312D40073
:1004A80083160430DF0083128A11072308001E30E8
:1004B8008A01A1208A11F422E130D0008316DF01DD
:1004C80083128A1107232730D0003030D1008316D9
:1004D8000130DF0083128A1107238A118523A03097
:1004E800D000831658088312D10083160230EE001C
:1004F80083126400183083166E028A11831203185F
:10050800AF2AFE3083166E07CC00FF300318013E79
:10051800CD004C08B63E8400831200088316CC0038
:100528006E08503E84004C088312800083166E08C3
:10053800503E8400831200088316CC0064004C08E7
:100548000A3C8A1183120319AF2A8316EE0A8A110C
:100558008312031D7D2A83161630DF0083128A1149
:1005680007230130A100F4308A01AF2005150130BE
:10057800A100F4308A01AF20051101308A01A120C1
:1005880064008A110719C42A0730D0008316013085
:10059800DF0083128A112423703038058316ED009A
:1005A80064006D08103C8A118312031DDD2A8A112C
:1005B8004923640083166D08303C8A118312031D99
:1005C800E72A8A115B232730D0002030D100831618
:1005D8000130DF0083128A1107238A11F4220800F0
:1005E80005110130A100F4308A01AF200515013052
:1005F800A100F4308A01AF2005110130A100F430C8
:100608008A01AF20080007108316EE0183126400E8
:1006180083166E085F028A118312031C222B83162D
:100628006E08503E84008312000893008A11432309
:100638008316EE0A8A118312031D0B2B0714080078
:1006480007108316EE018312640083166E085F029A
:100658008A118312031C412B500893008A114323EB
:1006680083166E08383E84008312130880008316B0
:10067800EE0A8A118312031D282B07140800640050
:100688008A118C1D432B8C110800E130D000831691
:10069800DF0183128A0107232730D0001030D100F0
:1006A80083160130DF0083128A0107230800E13036
:1006B800D0008316DF0183128A0107232730D00078
:1006C8003030D10083160130DF0083128A010723FE
:1006D80008008A01F4222030D0000F30D1008316A0
:1006E8000130DF0083128A01072308002030D00080
:1006F8000D30D10083160130DF0083128A010723F1
:1007080008003030D0008A151B2383160530DF001F
:1007180083128A0107232430D0003530D100831694
:100728000130DF0083128A0107232030D0000E3009
:10073800D10083160130DF0083128A0107230800E5
:10074800831670308F00831203179E019F01990151
:100758009A010313E0308B00831620308C00073099
:1007680081008B1783128A11BD2B8B1B08008A11FD
:100778000C2F8A01B92383162030850083128A0141
:10078800B92383161030860083128A01B923831691
:100798000430870083128A01B9238316FF3095003D
:1007A80083128A01B9230317FF30950003138A01C6
:1007B800B9232030840060308A018120A030840071
:1007C80050308A0181202030840050308A018020F6
:1007D8008A01B9238A012D218A01B9238A01452179
:1007E8008A01B9238A016D238A01B92302308A015B
:1007F800A1208A01B92305158A01B92364008A1149
:10080800851A1B2C8A01B9238A15BF218A01B923AD
:100818008A155E228A01B9230330A300E8308A01D1
:10082800A2208A01B9238A01DB2B8A01B9238A0114
:10083800B923640083165908023C8A118312031DE8
:10084800342C8A01B9238316D90183128A01B9236A
:100858008A1591218A01B9238A01F02B8A01B923CB
:100868008A01B923640083165D08013C8A1183124A
:10087800031D732E8A01B9238316DD0183128A01B1
:10088800B92383162008433C031DFF30FF3ACC00F0
:100898002008633C031DFF30FF3ACE004C0883124A
:1008A800840083164E0883128A01E3208316CE0043
:1008B800CF0021083D3C031DFF30FF3AD0004E0811
:1008C8004F048400500883128A01DC208316D0006C
:1008D800D1006400500851048A1183120319CE2CE8
:1008E8008A01B92383160230DA0083128A01B923F8
:1008F8008A11C4278A01B923640083165708013C6A
:100908008A118312031DC42C8A01B92364000130A3
:10091800831669028A118312031CBA2C8A01B9232F
:1009280064005130831669028A1183120318B02CAF
:1009380003178D0183160313690883128A01912016
:100948008A01B9238A11B3278A01B9238A01F02BB6
:100958008A01B9238A11B62C8A01B9238A119927E9
:100968008A01B9238A01B9238A11C02C8A01B923C3
:100978008A1199278A01B9238A01B9238A11CA2CB5
:100988008A01B9238A1199278A01B9238A01B923CF
:100998008A116D2E83162008503C031DFF30FF3A44
:1009A800CC002008703C031DFF30FF3ACE004C08F5
:1009B8008312840083164E0883128A01E32083166B
:1009C800CE00CF0021083D3C031DFF30FF3AD00088
:1009D8004E084F048400500883128A01DC208316D5
:1009E800D000D1006400500851048A118312031901
:1009F800092D8A01B9238A1569208A01B9238A0138
:100A0800F0238A01B9238A116D2E83162008413CF0
:100A1800031DFF30FF3ACC002008613C031DFF3066
:100A2800FF3ACE004C088312840083164E088312C6
:100A38008A01E3208316CE00CF0021083D3C031D28
:100A4800FF30FF3AD0004E084F048400500883124C
:100A58008A01DC208316D000D100640050085104BC
:100A68008A1183120319742D8A01B923831602305F
:100A7800DA0083128A01B9238A11C4278A01B923AB
:100A8800640083165708013C8A118312031D6A2DDE
:100A98008A01B9238A1566218A01B9238A15BF21DB
:100AA8008A01B9238A0145218A01B9238A01F422DE
:100AB8008A01B9238A1507228A01B92383160230CD
:100AC800D90083128A01B9238A11702D8A01B923AA
:100AD8008A1199278A01B9238A01B9238A116D2EAF
:100AE80083162008533C031DFF30FF3ACC00200832
:100AF800733C031DFF30FF3ACE004C08831284007C
:100B080083164E0883128A01E3208316CE00CF0095
:100B180064004E084F048A11831203199B2D8A0121
:100B2800B9238A155E228A01B9238A116D2E8A019A
:100B3800B9238316DA0183128A01B9238A11C427DB
:100B48008A01B923640083165708013C8A1183126D
:100B58000319B62D8A01B9238A1199278A01B92365
:100B68008A116B2E83165A08A03E8400831200084F
:100B78008316CC0064004C083D3C8A11831203198B
:100B8800CD2D8A01B9238A1199278A01B9238A119F
:100B98006B2E8A01B92383166908D80083128A014B
:100BA800B9238316DB0183126400173083165B02B6
:100BB8008A1183120318362E8A01B923013083164D
:100BC8005A07CC00CD01CD0D4C08A03E84008312FD
:100BD80000088316CC005B08B63E84004C088312DC
:100BE80080008A01B92383165B08B63E840083120D
:100BF80000088316CC0064004C08003C8A1183125C
:100C0800031D152E8A01B92383165B08B63E84009E
:100C180083120A3080008A01B9238A11362E8A018C
:100C2800B9238A01B9238316DA0A83128A01B92300
:100C3800640083165A08163C8A118312031D2E2E4F
:100C48008A01B9238A1199278A01B9238A01F42BC9
:100C58008A01B9238A01B9238316DB0A8A11831210
:100C6800031DD82D8A01B923640083165808003C57
:100C78008A118312031D632E8A01B9238A156621FE
:100C88008A01B9238A15BF218A01B9238A0145211E
:100C98008A01B9238A01F4228A01B9238A015B22D5
:100CA8008A01B92383160130D90083128A01B92336
:100CB8008316EC0183128A01B9238A11692E8A01ED
:100CC800B9238A015B228A01B9238A01B9238A01DF
:100CD800B9238A01B9238A01F42B8A01B9238A012D
:100CE800B92364008A110719002C8A01B923051158
:100CF8008A01B9236130D0008A01B92383161630DE
:100D0800DF0083128A01B9238A0124238A01B923C7
:100D18002B308A013020A9013908A400A5012F3001
:100D2800B000B1018A01522020308A0130208A01A6
:100D3800B92383160230EE0083126400173083163D
:100D48006E028A1183120318D22E8A01B9238316E0
:100D58006E08383E8400831200088316CC004C08C5
:100D680083128A0130208A01B92383166E08383E1F
:100D78008400831200088316CC0064004C080A3CE7
:100D88008A118312031DCA2E8A11D22E8A01B92311
:100D98008316EE0A8A118312031DA12E8A01B92334
:100DA8001730D0008A01B92383160130DF0083127F
:100DB8008A01B9238A0124238A01B92339088316B1
:100DC800ED0083128A01B92364008A118316831007
:100DD8006D1C8314831283187C2E8A01B923273053
:100DE800D0008A01B9234030D1008A01B923831683
:100DF8000130DF0083128A01B9238A0107238A019F
:100E0800B9238A01F42B8A01B92363008A01092FC7
:100E180064008A110B1D3E2F8316EC0A64005908E2
:100E2800013C8A118312031D252F64000B308316A1
:100E38006C028A118312031C252F83160230D900F5
:100E4800831264001F3083166C028A118312031CFC
:100E58003B2F8316EC01E00A64003B3060028A11E4
:100E68008312031C3B2F8316E001DE0A83120B1149
:100E78008A11832F64008A118C1E832F64008316C5
:100E88005D08013C8A1183120319832F64008A11BB
:100E9800181D532F8A0126208316EA008312643016
:100EA800AC00AD018A0105208A11031C832F413C47
:100EB8008A11031D562F8A0105208A11031C832FCE
:100EC800543C8A11031D562F8A0105208A11031CE0
:100ED800832F2B3C8A11031D562F1630A9000A3088
:100EE800AE000530B000B101A501A0308A0136205E
:100EF8008A11031C832F83160130DD0083128B17A0
:100F080009008A01B92364008A118C1E962F8A0170
:100F1800B9238A0126208316E90083128A01B9239E
:100F28008A01872F8A01B92308008A01B92345302D
:100F38008A01302052308A01302052308A01302014
:100F48004F308A01302052308A0130200D308A011A
:100F580030200A308A0130208A01B92308008A012A
:100F6800B9234F308A0130204B308A0130200D30B0
:100F78008A0130200A308A0130208A01B92308000A
:100F88008A01B9238316D401D50183128A01B923B2
:100F98008316D70183128A01B92383165A08A03E03
:100FA8008400831200088316CC00640030304C02A1
:100FB8008A158312031C44288A01B92383165A0808
:100FC800A03E8400831200088316CC0064003A30E7
:100FD8004C028A158312031842288A01B923831602
:100FE8000130D70083128A01B9238316540883126B
:100FF800A600831655088312A7000A30A200A30191
:101008008A0103218316CC00831225088316CD009C
:101018005A08A03E8400831200088316CE000230CE
:101028004E07CE00CF01CF0D3230CE020030031C68
:10103800013ECF024C084E07D4004D080318013E6C
:101048004F07D50083128A01B9238316DA0A83125F
:101058008A01B923831654088312A0008316550801
:101068008312A1000130A30000308A01C6208A152E
:10107800031D40288A01CF2F8A01B9238A01B92389
:101088008A01B923831654088312A00083165508D1
:101098008312A100A301FF308A01C9208A15031D0C
:1010A8005E288A01B9238316D70183128A01B923DE
:1010B8008A1566288A01B92383165408E900831221
:1010C8008A01B9238A01B92308008A01B923831642
:1010D8000230DA00831264000B3083165A028A1534
:1010E80083120318E5288A01B92383165A08A03EFB
:1010F8008400831200088316CC004C08003C031DB2
:10110800FF30FF3ACC005A08A03E84008312000842
:101118008316CE004E080A3C031DFF30FF3ACE006E
:101128004C088312840083164E0883128A01E32038
:101138008316CE00CF005A08A03E84008312000810
:101148008316D00050080D3C031DFF30FF3AD00035
:101158004E084F048400500883128A01E320831646
:10116800D000D1005A08A03E8400831200088316DC
:10117800D2005208203C031DFF30FF3AD20050082D
:1011880051048400520883128A01E3208316D20096
:10119800D3006400520853048A1583120319DD280A
:1011A8008A01B9238A0199278A01B92308008A018B
:1011B800B9238A01B9238316DA0A8A158312031D13
:1011C8006F288A01B92364008316220827028A152A
:1011D8008312031D1C298A01B9236400831623087E
:1011E80028028A158312031D1A298A01B92364006B
:1011F8008316240829028A158312031D18298A01D7
:10120800B9236400831625082A028A158312031D50
:1012180016298A01B9238A0199278A01B923080066
:101228008A01B9238A01B9238A01B9238A01B9231A
:101238008A01B923640083162B08003C8A1583129F
:10124800031D5D298A01B92383160230DA0083124F
:1012580064000B3083165A028A1583120318552925
:10126800FF3083165A07CC00FF300318013ECD002B
:101278004C08831203178D00831603135A08A03EE7
:101288008400831200088316CC004C0883128A015C
:1012980091208A01B9238316DA0A8A158312031D5D
:1012A8002C298A01B9238A01B3278A01B9238A150F
:1012B80063298A01B9238A0199278A01B9238A01F6
:1012C800B92308008A01B9238316DA01831264005E
:1012D8000A3083165A028A15831203188E298A0146
:1012E800B92383165A08831203178D0003138A0142
:1012F80087208316CC00CD015A08683E84004C082C
:10130800831280008A01B9238316DA0A8A158312A8
:10131800031D6B298A01B92308008A01B9238316A2
:10132800DA01831264000A3083165A028A1583127E
:101338000318B82983165A08831203178D008316D9
:1013480003135A08683E8400831200088316CC00F1
:101358004C0883128A0191208A01B9238316DA0A7C
:101368008A158312031D96298A01B9238A0145210A
:101378008A01B923080003178D01283003138A0155
:101388009120031701308D00523003138A019120F8
:10139800031702308D00453003138A01912003178B
:1013A80003308D004D3003138A0191200317043058
:1013B8008D004F3003138A019120031705308D00EB
:1013C800543003138A019120031706308D004530ED
:1013D80003138A019120031707308D004830031347
:1013E8008A019120031708308D004F3003138A01BA
:1013F8009120031709308D004D3003138A01912085
:101408008A01B92308008A01B9238316D8018312F7
:101418008A01B92383166330B60083128A01B9237F
:1014280083163D30B70083128A01B9238316023030
:10143800DA00831264000C3083165A028A1583126C
:101448000318452A8A01B923FE3083165A07CC00AF
:10145800FF300318013ECD004C08683E840083121B
:1014680000088316CC005A08B63E84004C08831244
:1014780080008A01B9238316DA0A8A158312031DAC
:101488001E2A8A01B92383166908C20083128A01B9
:10149800B92383160D30C30083128A01B92383163A
:1014A8000A30C40083128A01B9238A015B228A01A7
:1014B800B92308008A01B92303178D0103138A0190
:1014C80087208316E90083128A01B9232B308A0109
:1014D800302043308A01302068308A013020613062
:1014E8008A0130206E308A0130206E308A01302027
:1014F80065308A0130206C308A0130203A308A0108
:101508003020A901831669088312A400A5012F3091
:10151800B000B1018A0152200D308A0130200A3012
:101528008A0130208A01B9232B308A0130205030BB
:101538008A01302061308A01302073308A013020DE
:1015480073308A01302077308A0130206F308A0169
:10155800302072308A01302064308A0130203A30DD
:101568008A0130208A01B92383160130DA008312F8
:1015780064000A3083165A028A1583120318E02A77
:101588008A01B92383165A08831203178D0003139F
:101598008A0187208316E90083128A01B9238316FA
:1015A800690883128A0130208A01B9238316DA0A6E
:1015B8008A158312031DBC2A8A01B9230D308A01BA
:1015C80030200A308A0130208A01B92308008A01B4
:1015D800B923031701308D0003138A018720D10036
:1015E8008A01B923031702308D0003138A0187206B
:1015F800D2008A01B923031703308D0003138A012F
:101608008720D3008A01B923031704308D00031300
:101618008A018720D4008A01B923031705308D0079
:1016280003138A018720D5008A01B92308008A019B
:10163800B923031706308D0003138A018720D100D0
:101648008A01B923031707308D0003138A01872005
:10165800D2008A01B923031708308D0003138A01C9
:101668008720D3008A01B923031709308D0003139B
:101678008A018720D4008A01B92383165808831267
:08168800D5008A01B923080016
:02400E00CC3FA5
:104200002800520045004D004F0054004500480072
:104210004F004D0000000000000000000000000002
:00000001FF
