:020000002D29A8
:100008000800083033190130A300A2013608840023
:100018003408492034088004282128218413000545
:10002800FF3E331DA20C3319A20D32309320A30BCF
:100038000C28220803142829A2000830331901309B
:10004800A300A20C36088400340849203408031899
:1000580080043730932034088004A30B2528031428
:100068002829B31C28293B28B300331C2829360823
:100078008400340849200130A100E030942034087D
:1000880080040130A100E0309428FF3A80054C2814
:100098008417800528290F39A0000310A00DA00D92
:1000A8001F08C039200401389F000030A1003230F9
:1000B80094209F149F185E281E08A10083161E080E
:1000C800282983178001840AFF3E031D66282829F2
:1000D800031783168C010C1483120C0803178D0A5E
:1000E8002829030103178C0083168C010C15553041
:1000F8008D00AA308D008C148C1880280C11831266
:100108008D0A2829A301A200FF30A207031CA30718
:10011800031C28290330A100E33094208828A1017A
:10012800F43EA000A109FE30031C9D28A007031877
:100138009A28A0076400A10F9A2800002018A42874
:100148002018A6280800A701A6001C30A2006F30BE
:10015800A30012210F30831681048312FF3063003D
:10016800A007031CA1070318B3282829013EA700EC
:100178000A30A200A301F620A70BBF282408080014
:100188000310A10CA00CFF3E0318C428200828293E
:10019800A301A2000230D828A2000330D828A20068
:1001A8000630D828A2000530A80023082102031D24
:1001B800DF28220820020430031801300319023016
:1001C8002805031DFF302829A2002008A6002408BE
:1001D800A0002608A4002108A6002508A1002608DA
:1001E800A500F828A501A4011030A600210DA40D32
:1001F800A50D2208A4022308031C230FA502031837
:100208000C292208A40723080318230FA5070310A5
:10021800A00DA10DA60BFA28200828291030A80047
:10022800A101A001A70CA60C031C20292208A007E5
:1002380023080318230FA107A10CA00CA50CA40CDC
:10024800A80B162924082829831303138312640092
:1002580008008A11222C0130A300F4308A0187207B
:100268009416141414128316141783128C118316FF
:100278009413831205150A308A0186200511071088
:100288008316AC01AD01831208002A30D000031791
:1002980001308D0003138A016C20D100031702304E
:1002A8008D0003138A016C20D200031703308D00E0
:1002B80003138A016C20D300031704308D00031345
:1002C8008A016C20D400031705308D0003138A01BE
:1002D8006C20D50083160530CC0083128A11522376
:1002E8002130D0000130D10083160130CC008312B8
:1002F8008A1152232230D0000130D10083160130F8
:10030800CC0083128A1152232530D00003178D01A7
:1003180003138A016C20D10083160130CC008312AC
:100328008A1152233130D0001630D10083160130A3
:10033800CC0083128A1152232630D0003730D100E6
:1003480083160130CC0083128A11522383160130A0
:10035800DB0083128A1159228316DB014030D30057
:100368004B30D5000130D700E230D80083128A1113
:10037800802283160130DB00C030D3004B30D5001B
:10038800D701D80183128A11802283160230DB003C
:10039800D030D300FC30D5008C30D7000230D800E4
:1003A80083128A11802283160330DB009930D30030
:1003B800D5013930D7004130D80083128A11802204
:1003C80083160430DB00B930D3009E30D500863068
:1003D800D7000B30D80083128A118022831605308B
:1003E800DB002430D3000630D5007F30D700A6309C
:1003F800D80083128A11802283160630C600831221
:1004080064000C30831646028A11831203181C2AD2
:1004180083164608DB00D301D501D701D801831222
:100428008A1180228316C60A8A118312031D042AA0
:1004380083160C30DB00D3011230D5007330D7009F
:10044800D80183128A11802283160D30DB003630E2
:10045800D300B430D5008030D700D80183128A1178
:1004680080222E30D0004130D1002030D200083018
:10047800D3000430D4008130D5002030D600CF30EE
:10048800D700F730D800FE30D900FF30DA00FF304F
:10049800DB0083160B30CC0083128A11522383169B
:1004A800DB0183128A11592208000730D000831615
:1004B8000130CC0083128A116F23803038058316EF
:1004C800B000B10130088312A000831631088312EE
:1004D800A10083165B0883128A01CC208A11031DB0
:1004E8007F2A5030D0005330D10083160130CC0021
:1004F80083128A1152230800203083165B07831267
:10050800D000831653088312D1008316550883122E
:10051800D200831657088312D30083165808831213
:10052800D40083160430CC0083128A1152230800A9
:100538008A113F2302308A0186208A113F23E13045
:10054800D0008316CC0183128A1152232730D000A1
:100558003030D10083160130CC0083128A11522327
:100568008A11E223A030D000831640088312D100FC
:1005780083160230DF0083126400183083165F028E
:100588008A1183120318F22AFE3083165F07B0001F
:10059800FF300318013EB1003008683E8400831222
:1005A80000088316B0005F08503E840030088312AC
:1005B800800083165F08503E84008312000883166B
:1005C800B000640030080A3C8A1183120319F22A29
:1005D8008316DF0A8A118312031DC02A8316163078
:1005E800CC0083128A1152230130A100F4308A0111
:1005F800942005150130A100F4308A0194200511DA
:100608000A308A01862064008A110719072B0730EF
:10061800D00083160130CC0083128A116F2370300A
:1006280038058316DE0064005E08103C8A118312C8
:10063800031D202B8A119423640083165E08303C26
:100648008A118312031D2A2B8A11A6232730D00072
:100658002030D10083160130CC0083128A11522336
:1006680002308A0186208A113F2302308A018620BF
:100678008A113F23080005110130A100F4308A01D6
:10068800942005150130A100F4308A019420051149
:100698000130A100F4308A01942008000710831665
:1006A800DF018312640083165F084C028A118312EB
:1006B800031C6D2B83165F08503E840083120008CC
:1006C80093008A118E238316DF0A8A118312031D71
:1006D800562B0714080007108316DF0183126400E5
:1006E80083165F084C028A118312031C8C2B500856
:1006F80093008A118E2383165F08383E8400831284
:10070800130880008316DF0A8A118312031D732BD6
:100718000714080064008A118C1D8E2B8C110800A8
:10072800E130D0008316CC0183128A01522327308E
:10073800D0001030D10083160130CC0083128A011A
:1007480052230800E130D0008316CC0183128A01BD
:1007580052232730D0003030D10083160130CC002E
:1007680083128A015223080002308A0186208A01F6
:100778003F2302308A0186208A013F232030D0009F
:100788000F30D10083160130CC0083128A01522326
:1007980002308A0186208A013F2302308A0186209E
:1007A8008A013F2308002030D0000D30D100831685
:1007B8000130CC0083128A01522308003030D00067
:1007C800031701308D0003138A016C20D100031731
:1007D80002308D0003138A016C20D2000317033006
:1007E8008D0003138A016C20D300031704308D0099
:1007F80003138A016C20D400031705308D000313FE
:100808008A016C20D50083160530CC0083128A013A
:1008180052232430D0000A30D10083160130CC0096
:1008280083128A0152232030D0000E30D100831663
:100838000130CC0083128A01522308009F178316C7
:1008480070308F008312031780309E009F0199013A
:100858009A010313A0308B0083168C0107308100A6
:100868008B1783128A113C2C8B1B08008A151D29B3
:100878008A01382483162030850083128A0138249F
:1008880083161030860083128A01382483160C30B0
:10089800870083128A01382483160130CA00831224
:1008A8008A0138242030840060308A016620A03014
:1008B800840050308A0166202030840050308A013C
:1008C80065208A0138248316051283128A01382488
:1008D8008316071283128A0138248316871283121B
:1008E8008A0138248316851683128A01382403174F
:1008F80009308D0003138A016C208316AE00AF0106
:1009080083128A01382483162E088312A6008316C0
:100918002F088312A7000A30A200A3018A0112211E
:100928008316AE00831225088316AF0083128A014E
:100938003824031706308D0003138A016C208316B0
:10094800C00083128A01382403170A308D0003136C
:100958008A016C208316DC0083128A0138248A11EC
:100968001E2D8A01382403178D01283003138A01AC
:1009780076208A013824031701308D005230031382
:100988008A0176208A013824031702308D004F30FF
:1009980003138A0176208A013824031703308D0057
:1009A800423003138A0176208A0138240317043061
:1009B8008D00493003138A0176208A0138240317F1
:1009C80005308D004B3003138A0176208A013824C4
:1009D800031706308D00003003138A0176208A0140
:1009E8003824031707308D00003003138A0176205E
:1009F8008A013824031708308D00003003138A0158
:100A080076208A013824031709308D00003003133B
:100A18008A0176208A01382403170A308D000030B5
:100A280003138A0176208A01382463008A01192D6C
:100A38008A0138248A013824051283160512831284
:100A48008A0138248A152B278A0138248316CB017A
:100A580083128A013824031707308D0003138A0193
:100A68006C208316A90083128A01382403170830E2
:100A78008D0003138A016C208316A80083128A0153
:100A880038248A012F218A0138248A0149218A01C0
:100A98003824640083164008003C8A118312031925
:100AA800702D8A01382483162E088312A00083161D
:100AB8002F088312A100A30100308A01CD208A11DA
:100AC800031D6E2D8A01382483160130CB00831252
:100AD8008A0138248A0138248A0138248A01B823F3
:100AE8008A01382402308A0186208A0138240515B3
:100AF8008A013824640083165008013C8A11831245
:100B0800031D912D8A0138248316D00183128A018E
:100B180038248A15F6228A0138248A013824640088
:100B280083164B08013C8A118312031DC42D8A01C8
:100B3800382483162E088312A00083162F088312E8
:100B4800A100A30100308A01CD208A11031DC22D06
:100B58008A01382483160230CB0083128A01382494
:100B68008316CE0183128A0138248316DD0183128D
:100B78008A0138248A15FB238A0138248A013824FB
:100B88008A01382464006808003C8A110319062E7B
:100B98008A013824640083163E08013C8A118312B6
:100BA800031DE22D8A0138248A0149218A0138244B
:100BB80083160230BE0083128A0138248A01382441
:100BC8008A019C228A013824E8018A0138246400B9
:100BD80083165108013C8A118312031D002E8A01D5
:100BE80038248316D10183128A01382483160130F0
:100BF800D00083128A0138248A0138248A01702D92
:100C08008A0138248A013824640083164B08033C7F
:100C18008A118312031DCC2E8A013824640083169E
:100C28005C08003C8A11831203199F2E8A0138241C
:100C380064008A1183168310B919831483128318E8
:100C48008D2E8A013824640083165C0856028A11A6
:100C580083120318782E8A013824831656085C02FA
:100C6800D40083128A0138246400073083165602A0
:100C78008A1183120318492E8A0138248316D90150
:100C880083128A0138248A11742E6400831654084A
:100C9800023C8A118312031D5B2E8A0138248316B5
:100CA8003230D90083128A0138248A11742E6400E4
:100CB80083165408013C8A118312031D6D2E8A0184
:100CC800382483165030D90083128A0138248A11B7
:100CD800742E8A0138248316D90183128A01382494
:100CE8008A0138248A11802E8A01382483166430B8
:100CF800D90083128A0138248A0138248A1573227C
:100D08008A0138248316D10183128A0138248A1172
:100D18009D2E8A0138248316D90183128A0138242A
:100D28008A1573228A0138248316D10183128A0115
:100D380038248A0138248B0183168C0183128A0196
:100D4800D7230A308A01862083162F088312A7002A
:100D580083162E0883128A01A8200A308A01862069
:100D68008316CE01DD018312E0308B00831620301C
:100D78008C000730810083128A01382483160130E1
:100D8800CB0083128A0138248A01472D8A0138242E
:100D98008A013824640083163E08023C8A118312B3
:100DA800031D292F8A013824031706308D000313E9
:100DB8008A016C208316C00083128A0138244130CE
:100DC800E8008A0138247330E9008A0138240D309C
:100DD800EA008A0138240A30EB008A0138248A01A3
:100DE8009C228A0138248A153F278A013824640006
:100DF80083164208013C8A118312031D142F8A01AD
:100E080038248316C20183128A0138248A152B27B5
:100E18008A0138248A1513238A0138248A111A2F43
:100E28008A0138246530E9008A0138248A01382487
:100E38008A019C228A0138248316BE0183128A0102
:100E480038248A01702D8A0138248A0138246400E4
:100E580083164B08023C8A118312031D532F8A0103
:100E680038246400033083164E028A118312031C4F
:100E7800512F8A013824640083164908003C8A11DE
:100E88008312031D4F2F8A01382483160330CB00A9
:100E980083128A0138248A0138248A0138248A0175
:100EA800382464008A1107197C2D8A013824051119
:100EB8008A0138246130D0008A013824831616301C
:100EC800CC0083128A0138248A016F238A013824CE
:100ED800E8018A01382464003908831640028A151B
:100EE8008312031DDE288A01382464003B083D3C38
:100EF8008A15031D8C288A01382483160430C30000
:100F080083128A0138248A1545238A01382464000B
:100F18003A08633C8A11031DE82F8A013824031715
:100F28008D01031341088A0176208A0138240317AA
:100F380001308D0003133C088A0176208A01382489
:100F4800031702308D0003133D088A0176208A01B9
:100F58003824031703308D0003133E088A017620D6
:100F68008A013824031704308D0003133F088A01CF
:100F780076208A013824031705308D0003134008B2
:100F88008A0176208A013824031706308D0003135E
:100F980042088A0176208A0138240A308A0186208C
:100FA8008A01382483160130BE0083128A0138244E
:100FB80042088316C00083128A0138248A15322316
:100FC8008A0138248A158828640083163F08013C62
:100FD8008A158312031D88288A01382464003A0878
:100FE8006C3C8A15031D1C288A013824640083166A
:100FF8004008003C8A158312031918288A013824EE
:1010080064006530831659028A158312031816285E
:101018008A0138248A1573228A0138248A153223D2
:101028008A0138248A0138248A0138248A158628B6
:1010380064003A086D3C8A15031D69288A01382422
:10104800031709308D0083160313590883128A0188
:1010580076208A013824831659088312A600A7012E
:101068000A30A200A3018A0112218316AE0083125E
:1010780025088316AF0083128A013824A001A10134
:1010880083162F088312A30083162E0883128A0161
:10109800D6208A15031D59288A0138248316CB01C6
:1010A80083128A0138248A1561288A013824831614
:1010B8000130CB0083128A0138248A0138248A152A
:1010C80032238A0138248A15862864003A08743C39
:1010D8008A15031D86288A01382403170A308D00D3
:1010E80083160313590883128A0176208A0138244B
:1010F80083165908DC0083128A0138248A153223A2
:101108008A0138248A0138248A0138248A15CE288D
:1011180064003A08613C8A15031DAA288A0138240C
:1011280064003B08643C8A15031DA6288A013824FC
:1011380083160230BE0083128A0138248A153223AE
:101148008A0138248A0138248A15CE2864003A088E
:10115800733C8A15031DB8288A0138248A15FB2395
:101168008A0138248A15CE2864003A08703C8A150A
:10117800031DCE288A01382464003B086E3C8A157A
:10118800031DCC288A0138248A1532238A01382481
:101198008A0138248A01382464006808003C8A15CA
:1011A800031DDC288A0138248A1513238A01382470
:1011B8008A0138248A0138241730D0008A0138245B
:1011C80083160130CC0083128A0138248A016F23E8
:1011D8008A01382439088316DE0083128A013824EC
:1011E80064008A11831683105E1C8314831283188B
:1011F8005C2F8A0138242730D0008A0138244030F7
:10120800D1008A01382483160130CC0083128A0168
:1012180038248A0152238A01382402308A01862020
:101228008A0138248A01702D8A01382463008A15BE
:101238001A2964008A150B1D4E2A8316DD0A6400DC
:1012480004304B028A15831203186A296400831636
:101258004908013C8A158312031D4929831624086D
:101268008312A000831625088312A100FF30A30073
:10127800FF308A01CD208A15031D47298316A40A49
:101288000319A50A83128A15502264008316490897
:10129800023C8A158312031D6A29831624088312C7
:1012A800A000831625088312A100A30100308A013B
:1012B800CD208A15031D682901308316A402003049
:1012C800031C013EA50283128A155022640083166E
:1012D8004B08043C8A158312031D77298316A80A34
:1012E8000319A90A831283165D088312A000A101BD
:1012F8000530A200A3018A01F62024088316B00055
:10130800831225088316B1008312A001A101831658
:1013180031088312A3008316300883128A01D6206D
:101328008A15031D372A64000130831649028A157D
:101338008312031C372A07308A014F208316BA000C
:10134800831221088316BB002A088312A000831683
:101358002B088312A1006430A200A3018A01F620A1
:101368008316B000831221088316B1003008831257
:10137800A600831631088312A7006130A200A301DA
:101388008A0112218316B000831225088316B10042
:101398003A088312A00083163B088312A100831623
:1013A80031088312A3008316300883128A01D020E3
:1013B8008A15031D372A2C30A6000130A700831692
:1013C8004A088312A200A3018A0112218316B000E1
:1013D800831225088316B1003A08B0073B080318A2
:1013E800013EB10722088312A00083162308831246
:1013F800A100831631088312A300831630088312D4
:101408008A01D3208A15031D302A8316C80A64006E
:10141800023048028A158312031C2E2A64008316A0
:101428004908013C8A158312031D202A83162808BF
:10143800A4002908A5008312640083164908023C09
:101448008A158312031D2C2A8316A401A501831271
:101458008A1567228A15372A83163A08A2003B089C
:10146800A300C801831264001F3083165D028A1529
:101478008312031C4D2A8316DD01CE0ACF0A6400AD
:101488003B304E028A158312031C4D2A8316CE0167
:1014980083120B118B170900831624088312A000EE
:1014A800831625088312A100831627088312A30038
:1014B8008316260883128A01D6208A15031D662AF8
:1014C8008A156722080007128316071283128712EB
:1014D80083168712C9010130D000831208008A01DF
:1014E8003824831628088312A0008316290883123B
:1014F800A1006430A200A3018A01F6208316B0007F
:10150800831221088316B10030088312A6008316BF
:1015180031088312A700831659088312A200A30179
:101528008A0112218316A600831225088316A700B4
:1015380083128A013824640083165908643C8A158A
:101548008312031DAD2A83162808A6002908A700C0
:1015580083128A013824831626088312A000831672
:1015680027088312A100831625088312A300831677
:10157800240883128A01CD208A15031DEB2A8A01CB
:101588003824831626088312A0008316270883129E
:10159800A100831625088312A3008316240883124A
:1015A8008A01D3208A15031DE12A8A0138248A1565
:1015B800FF268A0138248A15E72A8A0138248A15E1
:1015C800D3268A0138248A0138248A15F32A8A0105
:1015D800382483160130D10083128A0138248A0105
:1015E800382408008A013824640083163E08023C27
:1015F8008A1583120319102B8A0138246C30E800ED
:101608008A01382483160130C30083128A013824E2
:101618008A1515268A0138248A01382408008A0187
:1016280038244530E8008A0138245230E9008A011C
:1016380038245230EA008A0138244F30EB008A01FE
:1016480038245230EC008A0138240D30ED008A012C
:1016580038240A30EE008A01382408008A01382428
:101668004F30E8008A0138244B30E9008A013824D9
:101678000D30EA008A0138240A30EB008A01382448
:1016880008008A0138248316D90183128A01382474
:101698008316BF0183128A0138248316C40183127A
:1016A80064000330831644028A1583120318CC2B76
:1016B8008A01382483166130D20083128A013824C3
:1016C80083164308383E8400831200088316D4002A
:1016D80083128A0138246400831654087C3C8A15D6
:1016E8008312031D782B08008A0138248A15CF231A
:1016F8008A013824640083165208613C8A158312D3
:10170800031D872B08008A013824640083164408C7
:10171800003C8A158312031DA12B8A0138248316E5
:101728005208D90083128A01382483160130BF0079
:1017380083128A0138248A15BF2B8A01382483161C
:1017480059088312A600A7010A30A200A3018A0142
:1017580012218316B000831225088316B1003008C1
:101768005207D90083128A01382483160130BF003A
:1017780083128A0138248A0138248316C30A831203
:101788008A0138248316C40A8A158312031D542B30
:101798008A01382408008A013824FF30A200A20AEE
:1017A8002208093C8A15031CF82B8A15E72383169F
:1017B80054028A158312031DD32B22088316D200E4
:1017C80083128A15F82B0B308A002208EE3E031884
:1017D8008A0A820030343134323433343434353484
:1017E80036343734383439348A01382408008A01C9
:1017F800382405168316051283128A0138243230DC
:101808008A0186208A0138240530B6002030B400C9
:1018180001308A013820CC308A01202044308A01E6
:1018280020208A0135208A0138240530B60020306E
:10183800B40004308A0138208A0105208316013952
:1018480003194D10031D4D1483128A0135208A0196
:10185800382464008A15831683104D188314831264
:101868008318382C8A15172C8A0138240530B600BD
:101878002030B40001308A013820CC308A01202081
:10188800BE308A0120208A0135208A01382405309B
:10189800B6002030B40002308A0138208A010520C1
:1018A8008316B80083128A0105208316B9008312B3
:1018B8008A0135208A0138240512831605128312FD
:1018C8008A0138243430E8008A0138247C30E90061
:1018D8008A01382464008A1583168310B91D83147D
:1018E80083128318D02C8A0138242D30EA008A010B
:1018F800382483163809B0003909B100B00A031931
:10190800B10A83127130A6000230A700831630088E
:101918008312A200831631088312A3008A011221C0
:101928008316C10083128A013824A3010A308A0170
:10193800E8208316B600831221088316B7008312A5
:101948008A013824831636088312A00083163708C4
:101958008312A10004308A01BA208316B000B101B5
:10196800303030078312EB008A013824831636089A
:101978008312A000831637088312A10003308A015E
:10198800BA208316B000B101303030078312EC0062
:101998008A0138248A157D2D8A0138247130A600E1
:1019A8000230A700831638088312A200831639086C
:1019B8008312A3008A0112218316C10083128A01AF
:1019C8003824A3010A308A01E8208316B60083125E
:1019D80021088316B70083128A0138248316F03051
:1019E8003805B0000F303905B10030088312A00067
:1019F800831631088312A10004308A01C720831698
:101A0800B600831221088316B70083128A0138248E
:101A18000F3083163805B000B10130088312A600D4
:101A2800831631088312A7007130A2000230A30088
:101A38008A0112218316A000831225088316A100AB
:101A480083128A013824831636088312A00083166D
:101A580037088312A10001308A01BA208316B0002A
:101A6800B101303030078312EA008A013824831626
:101A780036088312A000831637088312A1000030AD
:101A88008A01BA208316B000B101303030078312C2
:101A9800EB008A013824831620088312A0008316DD
:101AA80021088312A10003308A01BA208316B000EE
:101AB800B101303030078312EC008A0138248316D4
:101AC80036088312A600A7010230A200A3018A01EA
:101AD80012218316D60083128A0138246400053047
:101AE8006C028A15031C7B2D8316D60A83128A0181
:101AF80038248A0138240317181603138A01382456
:101B0800C8308A0193208A0138240D308A014F2079
:101B18008316B400831221088316B50083128A0144
:101B280038240317181203138A013824FA30A00046
:101B38001730A100831634088312A20083163508D3
:101B48008312A3008A01F6208316BC0083122108A1
:101B58008316BD0083128A0138247C30ED008A0187
:101B6800382483163C088312A00083163D0883128C
:101B7800A10001308A01BA208316B000B1013030CB
:101B880030078312EE008A01382483163C0883123A
:101B9800A00083163D088312A10000308A01BA20F4
:101BA8008316B000B101303030078312EF008A018C
:101BB80038247C30F0008A013824031709308D005E
:101BC80003138A016C208316D90083128A013824F2
:101BD80083160930C30083128A0138248A158126A6
:101BE8008A0138247C30F4008A01382483160C30AA
:101BF800C30083128A01382483165C08D900831233
:101C08008A0138248A1598268A01382483160F30C9
:101C1800C30083128A0138248A1515268A013824BC
:101C280008008A01382483164308683E840083121A
:101C38007C3080008A013824831624088312A60089
:101C4800831625088312A7000A30A200A3018A017F
:101C580012218316B000831225088316B1002808C4
:101C68008312A000831629088312A1000A30A2005B
:101C7800A3018A01F6208316B20083122108831675
:101C8800B30030088312A000831631088312A10024
:101C9800831632088312A200831633088312A30026
:101CA8008A01F6208316D90083128A013824831604
:101CB800C30A83128A0138248A1581268A013824A6
:101CC800033083164307B000B101B10D3008683EF8
:101CD800840083120D3080008A0138240430831672
:101CE8004307B000B101B10D3008683E840083128B
:101CF8000A3080008A01382408008A0138248316B3
:101D080059088312A000A10102308A01BA20831663
:101D1800B000B1013030B0070318B10A4308683E7B
:101D280084003008831280008A0138240130831629
:101D38004307B200B301B30D59088312A000A101F3
:101D480001308A01BA208316B000B1013030B007E3
:101D58000318B10A3208683E8400300883128000F4
:101D68008A013824023083164307B200B301B30D49
:101D780059088312A000A10100308A01BA208316F5
:101D8800B000B1013030B0070318B10A3208683E1C
:101D980084003008831280008A01382408008A01F0
:101DA800382407308A014F208316AA00831221089D
:101DB8008316AB0083128A01382407128316071290
:101DC80083128A01382487168316871283128A01A0
:101DD800382483160230C90083128A0138248316F6
:101DE800A201A30183128A0138248316C801831231
:101DF8008A01382408008A01382407308A014F20D4
:101E08008316AA00831221088316AB0083128A0165
:101E1800382487128316871283128A0138240716FA
:101E28008316071283128A01382483160130C900E9
:101E380083128A0138248316A201A30183128A011E
:101E480038248316C80183128A01382408008A01BD
:101E5800382407128316071283128A01382487123E
:101E68008316871283128A0138248316C9018312C4
:101E78008A01382408008A0138248316C201831293
:101E88008A01382483160530CB0083128A0138244E
:101E98008A15D3268A0138248316CF0183128A0132
:101EA80038246400C93083164F028A158312031C34
:101EB800682F8A01382483160130C20083128A01F0
:101EC800382408008A0138248A01382464008316DB
:101ED8004908003C8A1583120319742F8A15532F59
:101EE8008A01382483160430CB0083128A013824EF
:101EF8008316A801A90183128A0138248A15FF26AE
:101F08008A0138248316CF0183128A013824640099
:101F1800C93083164F028A158312031C9E2F8A012B
:101F2800382483160130C20083128A01382408003D
:101F38008A0138248A013824640083164908003C41
:101F48008A1583120319AA2F8A15892F8A01382422
:101F58008316CE0183128A013824031707308D00B7
:101F680083160313290883128A0176208A013824EC
:101F7800031708308D0083160313280883128A017B
:101F880076208A013824A001A10183162F08831224
:101F9800A30083162E0883128A01D6208A15031DF2
:101FA800DE2F8A0138248316CB0183128A01382454
:101FB8008A15E62F8A01382483160130CB00831254
:0A1FC8008A0138248A013824080039
:02400E00CC3FA5
:10420000280052004F00420049004B00000000000F
:10421000000000000000000000000000000000009E
:00000001FF
