:0200000098283E
:10000800080083178001840AFF3E031D06289328F1
:1000180003178D0083168C130C1483120C08932875
:1000280003178C0083168C130C1555308D00AA30DD
:100038008D008C148C181E280C119328A301A20083
:10004800FF30A207031CA307031C93280330A10059
:10005800E33030202428A101F43EA000A109FE309D
:10006800031C3928A00703183628A0076400A10F2D
:100078003628000020184028201842280800013E91
:10008800A7000A30A200A3016120A70B4828240872
:100098000800A301A20002305128A8002308210269
:1000A800031D5828220820020430031801300319C0
:1000B80002302805031DFF309328A501A401103044
:1000C800A600210DA40DA50D2208A4022308031CD7
:1000D800230FA502031877282208A407230803186A
:1000E800230FA5070310A00DA10DA60B6528200856
:1000F80093281030A800A101A001A70CA60C031C8E
:100108008B282208A00723080318230FA107A10C96
:10011800A00CA50CA40CA80B8128240893288313F1
:1001280003138312640008008A11272BC8308A0140
:1001380022209416141414128316141783128C1187
:1001480083169413831205150A308A01222005119B
:1001580007108316A001A101831208002A30D200DB
:100168008A11F52583160530AE0083128A1188227C
:100178002130D2000130D30083160130AE00831243
:100188008A1188222230D2000130D3008316013030
:10019800AE0083128A1188222530D20000308A01ED
:1001A8000C20D30083160130AE0083128A118822F6
:1001B8003130D2001630D30083160130AE008312DE
:1001C8008A1188222630D2003730D30083160130B6
:1001D800AE0083128A11882283160130B900831277
:1001E8008A119F218316B9014030B1004B30B3000A
:1001F8000130B500E230B60083128A11C22183169D
:100208000130B900C030B1004B30B300B501B601C0
:1002180083128A11C22183160230B900D030B1008E
:10022800FC30B3008C30B5000230B60083128A115E
:10023800C22183160330B9009930B100B3013930B7
:10024800B5004130B60083128A11C22183160430EA
:10025800B900B930B1009E30B3008630B5000B301C
:10026800B60083128A11C22183160530B9002430E2
:10027800B1000630B3007F30B500A630B600831257
:100288008A11C22183160630AC00831264000C3038
:1002980083162C028A1183120318622983162C08EC
:1002A800B900B101B301B501B60183128A11C221A7
:1002B8008316AC0A8A118312031D4A2983160C304F
:1002C800B900B1011230B3007330B500B601831222
:1002D8008A11C22183160D30B9003630B100B4300E
:1002E800B3008030B500B60183128A11C2212E30C6
:1002F800D2004130D3002030D4000830D50004307B
:10030800D6008130D7002030D800CF30D900F73060
:10031800DA00FE30DB00FF30DC00FF30DD00831642
:100328000B30AE0083128A1188228316B90183121A
:100338008A119F2108000730D20083160130AE00D1
:1003480083128A11A52280303A05B200B30132081F
:10035800A0003308A1008316390883128A014D20B2
:100368008A11031DC1295030D2005330D30083169F
:100378000130AE0083128A118822080020308316CB
:1003880039078312D200831631088312D3008316EB
:1003980033088312D400831635088312D5008316D8
:1003A80036088312D60083160430AE0083128A11F1
:1003B800882208001E308A0122208A117522E13025
:1003C800D2008316AE0183128A1188222730D20008
:1003D8003030D30083160130AE0083128A11882290
:1003E8008A110823A030D200831627088312D3006D
:1003F80083160230BC0083126400183083163C0256
:100408008A1183120318302AFE3083163C078312A0
:10041800B200FF300318013EB30032086A3E840080
:100428000008B20083163C08523E8400831232084A
:10043800800083163C08523E840000088312B200F4
:10044800640032080A3C8A110319302A8316BC0A50
:100458008A118312031D002A83161630AE008312F8
:100468008A1188220130A100F4308A013020051554
:100478000130A100F4308A013020051101308A01D1
:10048800222064008A110719452A0730D2008316F2
:100498000130AE0083128A11A52270303A05831606
:1004A800BB0064003B08103C8A118312031D5E2ABE
:1004B8008A11CA22640083163B08303C8A118312D1
:1004C800031D682A8A11DC222730D2002030D3008D
:1004D80083160130AE0083128A1188228A11752290
:1004E800080005110130A100F4308A0130200515FB
:1004F8000130A100F4308A01302005110130A1003B
:10050800F4308A013020080007108316BC018312DA
:10051800640083163C082E028A118312031CA32A46
:1005280083163C08523E84000008831293008A1107
:10053800C4228316BC0A8A118312031D8C2A07144D
:10054800080007108316BC018312640083163C0858
:100558002E028A118312031CC22A520893008A11A0
:10056800C42283163C083A3E840083121308800094
:100578008316BC0A8A118312031DA92A07140800CE
:1005880064008A118C1DC42A8C110800E130D20045
:100598008316AE0183128A0188222730D2001030D8
:1005A800D30083160130AE0083128A018822080026
:1005B800E130D2008316AE0183128A0188222730E7
:1005C800D2003030D30083160130AE0083128A0186
:1005D800882208008A0175222030D2000F30D3000B
:1005E80083160130AE0083128A0188228A0175229F
:1005F80008002030D2000D30D30083160130AE0041
:1006080083128A01882208003030D2008A11162607
:1006180083160530AE0083128A0188222430D20066
:100628003530D30083160130AE0083128A01882248
:100638002030D2000E30D30083160130AE00831272
:100648008A0188220800831670308F0083120317EE
:100658009E019F0199019A010313A0308B00831614
:100668008C01073081008B1783128A113F2B8B1B5B
:1006780008008A11E12C8A013B2383168501831225
:100688008A013B2383161030860083128A013B239C
:1006980083160430870083128A013B2320308400AC
:1006A80060308A010620A030840050308A0106207C
:1006B8002030840050308A0105208A013B230A300B
:1006C8008A010C208316A70083128A013B23851216
:1006D8008316851283128A013B230512831605129D
:1006E80083128A013B2307128316071283128A0199
:1006F8003B2387118316871183128A013B23071333
:100708008316071383128A013B23871283168712E5
:1007180083128A013B238A019A208A013B238A019A
:10072800B2208A013B238A01B2208A013B238A0135
:10073800EE228A013B2302308A0122208A013B23D0
:1007480005158A013B2364006A08003C8A110319D5
:10075800CF2B8A013B23640083162508013C8A11AC
:100768008312031DC22B8A013B238A01B2208A010E
:100778003B238316A50183128A013B238A013B236D
:100788008A01DE218A013B23EA018A013B238A018F
:10079800992B8A013B238A013B2364008A1107199C
:1007A800A52B8A013B2305118A013B236130D20026
:1007B8008A013B2383161630AE0083128A013B233D
:1007C8008A01A5228A013B23EA018A013B236400AE
:1007D8003B08831627028A118312031DA22C8A0163
:1007E8003B2364003C08633C8A11031D4A2C8A01A0
:1007F8003B2364003D083D3C8A11031D462C8A01B9
:100808003B238316AA01831264000B3083162A0245
:100818008A11831203182D2C043083162A07831299
:10082800B200B301B30D32083A3E84000008B200AA
:1008380083162A08831203178D00031332088A01CE
:1008480014208A013B238316AA0A8A118312031DE6
:10085800082C8A013B230A308A010C208316A70042
:1008680083128A013B23FA308A0122208A013B2322
:1008780083160130A50083128A013B238A11FE24C6
:100888008A013B238A013B238A117E2C8A013B2360
:1008980064003C08733C8A11031D622C8A013B23C7
:1008A8003230EA008A013B237C30EB008A013B238B
:1008B8000A30EC008A013B238A117C2C8A013B23F5
:1008C80064003C08703C8A11031D7A2C8A013B2382
:1008D80064003D086E3C8A11031D782C8A013B2375
:1008E8008A11FE248A013B238A013B238A013B2388
:1008F8008A013B238A013B2364006A08003C8A1171
:10090800031DA02C8A013B234530EA008A013B23C2
:100918005230EB008A013B235230EC008A013B2322
:100928004F30ED008A013B235230EE008A013B2311
:100938000A30EF008A013B238A013B238A013B23CB
:100948001730D2008A013B2383160130AE00831290
:100958008A013B238A01A5228A013B233B0883168F
:10096800BB0083128A013B2364008A11831683101B
:100978003B1C831483128318D82B8A013B2327300E
:10098800D2008A013B234030D3008A013B238316DF
:100998000130AE0083128A013B238A0188228A0132
:1009A8003B2302308A0122208A013B238A01992BAA
:1009B8008A013B2363008A01DE2C64008A110B1D27
:1009C800FC2C8316BA0A64001F303A028A1183127B
:1009D800031CFB2C8316BA01AF0A64003B302F02BC
:1009E8008A118312031CFB2C8316AF0183120B118F
:1009F8008B1709008A013B234F30EA008A013B2309
:100A08004B30EB008A013B230A30EC008A013B2380
:100A180008008A013B238316A60183128A013B231F
:100A280083166130B70083128A013B238316A40121
:100A3800831264000330831624028A118312031878
:100A4800932D8A013B2383166130B00083128A01FB
:100A58003B2383162A083A3E84000008B20083121A
:100A68008A013B236400831632087C3C8A11831276
:100A7800031D3F2D08008A013B238A1196258A0110
:100A88003B23640083163008613C8A118312031DDE
:100A98004E2D08008A013B23640083162408003C7D
:100AA8008A118312031D682D8A013B23831630089F
:100AB800B70083128A013B2383160130A6008312F4
:100AC8008A013B238A11862D8A013B238316370826
:100AD8008312A600A7010A30A200A3018A017D2083
:100AE800B2002508B3008316300883123207831634
:100AF800B70083128A013B2383160130A6008312B4
:100B08008A013B238A013B238316AA0A83128A019E
:100B18003B238316A40A8A118312031D1D2D8A0103
:100B28003B2308008A013B23FF30A200A20A2208C7
:100B3800093C8A11031CBC2D8A11AE25831632028A
:100B48008A118312031D9A2D22088316B00083127E
:100B58008A11BC2D05308A002208820730343134CE
:100B68003234333434343534363437343834393431
:100B78008A013B2308008A013B2383163708831226
:100B8800A000A10102308A014320B200B301303035
:100B980032078316B40083128A013B238316370871
:100BA8008312A000A10101308A014320B200B301E1
:100BB800303032078316B20083128A013B23831632
:100BC80037088312A000A10100308A014320B20037
:100BD800B301303032078316B00083128A013B23F9
:100BE80008008A013B2306308A010C20D3008A01C1
:100BF8003B2307308A010C20D4008A013B230830AC
:100C08008A010C20D5008A013B2309308A010C2077
:100C1800D6008A013B23831627088312D7008A014E
:100C28003B2308008A013B2301308A010C20D300B2
:100C38008A013B2302308A010C20D4008A013B231D
:100C480003308A010C20D5008A013B2304308A0135
:100C58000C20D6008A013B2305308A010C20D700DE
:060C68008A013B23080095
:02400E00CC3FA5
:104200002800520045004D004F0054004500480072
:104210004F004D0000000000000000000000000002
:00000001FF
