:02000000A02836
:10000800080083178001840AFF3E031D06289B28E9
:1000180003178D0083168C130C1483120C089B286D
:1000280003178C0083168C130C1555308D00AA30DD
:100038008D008C148C181E280C119B28A301A2007B
:10004800FF30A207031CA307031C9B280330A10051
:10005800E33030202428A101F43EA000A109FE309D
:10006800031C3928A00703183628A0076400A10F2D
:100078003628000020184028201842280800013E91
:10008800A7000A30A200A3016920A70B482824086A
:100098000800A101A301A20002305228A8002308E9
:1000A8002102031D592822082002043003180130B8
:1000B800031902302805031DFF309B280038031D53
:1000C800FF300405031DFF309B28A501A401103053
:1000D800A600210DA40DA50D2208A4022308031CC7
:1000E800230FA50203187F282208A4072308031852
:1000F800230FA5070310A00DA10DA60B6D2820083E
:100108009B281030A800A101A001A70CA60C031C75
:1001180093282208A00723080318230FA107A10C7E
:10012800A00CA50CA40CA80B892824089B288313D1
:1001380003138312640008008A11F52AC8308A0163
:1001480022209416141414128316141783128C1177
:1001580083169413831205150A308A01222005118B
:100168000710EC01ED0108002A30D4008A151B2283
:100178000530FC008A1168222130D4000130D500F6
:100188000130FC008A1168222230D4000130D500E9
:100198000130FC008A1168222530D40000308A0121
:1001A8000C20D5000130FC008A1168223130D400BF
:1001B8001630D5000130FC008A1168222630D400A0
:1001C8003730D5000130FC008A11682283160130CF
:1001D800BF0083128A1191218316BF014030B600F7
:1001E8004B30B8000130BA00E230BC0083128A11EB
:1001F800B02183160130BF00C030B6004B30B800C4
:10020800BA01BC0183128A11B02183160230BF00E3
:10021800D030B600FC30B8008C30BA000230BC00D8
:1002280083128A11B02183160330BF009930B600BB
:10023800B8013930BA004130BC0083128A11B021AC
:1002480083160430BF00B930B6009E30B80086303F
:10025800BA000B30BC0083128A11B0218316053016
:10026800BF002430B6000630B8007F30BA00A63090
:10027800BC0083128A11B0210630F90064000C30EA
:1002880079028A110318562979088316BF00B60126
:10029800B801BA01BC0183128A11B021F90A8A1186
:1002A800031D422983160C30BF00B6011230B80076
:1002B8007330BA00BC0183128A11B02183160D3045
:1002C800BF003630B600B430B8008030BA00BC0188
:1002D80083128A11B0212E30D4004130D50020304D
:1002E800D6000830D7000430D8008130D90020303B
:1002F800DA00CF30DB00F730DC00FE30DD00FF3005
:10030800DE00FF30DF000B30FC008A116822831604
:10031800BF0183128A11912108000730D4000130EF
:10032800FC008A11852280303C05B200B3013208F6
:10033800A0003308A10083163F0883128A014E20CB
:100348008A11031DAF295030D4005330D500013035
:10035800FC008A1168220800203083163F078312A8
:10036800D400831636088312D50083163808831202
:10037800D60083163A088312D70083163C088312E6
:10038800D8000430FC008A11682208001E308A0157
:1003980022208A115522E130D400FC018A116822FA
:1003A8002730D4003030D5000130FC008A11682293
:1003B8008A11DC22A030D4007608D50083160230DA
:1003C800C200831264001830831642028A11831215
:1003D8000318162AFE30831642078312B200FF3034
:1003E8000318013EB3003208A03E84000008B200A2
:1003F80083164208543E8400831232088000831614
:100408004208543E840000088312B2006400320897
:100418000A3C8A110319162A8316C20A8A11831202
:10042800031DE6291630FC008A1168220130A1005C
:10043800F4308A01302005150130A100F4308A011A
:100448003020051101308A01222064008A11071921
:10045800292A0730D4000130FC008A118522703027
:100468003C058316C10064004108103C8A118312C0
:10047800031D402A8A11AA22640083164108303CD1
:100488008A118312031D4A2A8A11B8222730D40000
:100498002030D5000130FC008A1168228A115522CB
:1004A800080005110130A100F4308A01302005153B
:1004B8000130A100F4308A01302005110130A1007B
:1004C800F4308A013020080007108316C201831215
:1004D80064008316420883127C028A11031C832A53
:1004E80083164208543E84000008831293008A1140
:1004F800A4228316C20A8A118312031D6C2A0714C8
:10050800080007108316C20183126400831642088C
:1005180083127C028A11031CA22A540893008A11B0
:10052800A422831642083C3E8400831213088000EC
:100538008316C20A8A118312031D892A0714080028
:1005480064008A118C1DA42A8C110800E130D400A3
:10055800FC018A0168222730D4001030D500013010
:10056800FC008A0168220800E130D400FC018A01FD
:1005780068222730D4003030D5000130FC008A01D1
:10058800682208008A0155222030D4000F30D50097
:100598000130FC008A0168228A01552208002030B7
:1005A800D4000D30D5000130FC008A016822080013
:1005B8003030D4008A153A220530FC008A016822BE
:1005C8002430D4003530D5000130FC008A0168227F
:1005D8002030D4000E30D5000130FC008A0168229A
:1005E8000800831670308F00831203179E019F0145
:1005F80099019A010313A0308B0083168C010730F0
:1006080081008B1783128A110D2B8B1B08008A150A
:1006180016288A0109238316850183128A01092372
:1006280083163030860083128A0109238316063028
:10063800870083128A0109238316950183128A0190
:10064800092303172030950003138A01092320305A
:10065800840060308A010620A030840050308A016E
:1006680006202030840050308A0105208A010923A1
:100678000A308A010C20F6008A0109230D308A010C
:100688000C20FB008A0109238316871483128A0130
:1006980009238316861683128A01092383160512F5
:1006A80083128A0109230B308A010C208316BD00AE
:1006B80083128A010923640083163D08003C8A11CD
:1006C8008312031D6F2B8A0109238A15DB218A01F6
:1006D80009238A11752B8A0109238A15FB218A01AE
:1006E80009238A0109238A01A2208A0109238A0190
:1006F800B8208A0109238A01C6228A010923023007
:100708008A0122208A01092305158A010923640028
:100718008A11861A0B2C03178D01283003138A01BE
:100728001420031701308D00523003138A0114205E
:10073800031702308D00453003138A011420031774
:1007480003308D004D3003138A0114200317043041
:100758008D004F3003138A011420031705308D00D4
:10076800543003138A011420031706308D004530D6
:1007780003138A011420031707308D004830031330
:100788008A011420031708308D004F3003138A01A3
:100798001420031709308D004D3003138A011420EB
:1007A80003170A308D00003003138A011420031741
:1007B8000B308D00013003138A01142003170C300D
:1007C8008D00003003138A01142003170D308D00AB
:1007D800003003138A01142003170E308D000030F7
:1007E80003138A01142003170F308D000030031300
:1007F8008A0114208A0109230330A300E8308A0102
:1008080023208A0109238A01292B8A0109238A01C5
:100818000923640083162008003C8A1183120319F7
:10082800352C8A01092364007408013C8A11031DD0
:10083800262C8A0109238A01B8208A010923F40198
:100848008A0109238A0109238A01CA218A01092305
:100858008316A00183128A0109238A017D2B8A014C
:1008680009238A01092364007308053C8A11031DC2
:100878006D2C8A0109230230F3008A0109238316AB
:100888004130A00083128A01092383164C30A1004D
:1008980083128A01092383164130A20083128A0138
:1008A800092383165230A30083128A010923831671
:1008B8004D30A40083128A01092383160D30A50048
:1008C80083128A01092383160A30A60083128A013B
:1008D80009238A01092364008A110719892B8A01CF
:1008E800092305118A0109236130D4008A010923EB
:1008F8001630FC008A0109238A0185228A0109230E
:100908008316A00183128A01092364003D08760238
:100918008A11031DDB2F8A01092364003E08633C0A
:100928008A11031DD62C8A01092364003F083D3C27
:100938008A11031DD42C8A010923F70164000B30A6
:1009480077028A110318BF2C04307707B200B3016D
:10095800B30D32083C3E84000008B2007708031744
:100968008D00031332088A0114208A010923F70A2B
:100978008A11031DA22C8A0109230A308A010C203E
:10098800F6008A010923FA308A0122208A01092304
:100998000130F4008A0109238A15C5208A01092338
:1009A8008A0109238A01092364003E086C3C8A11E4
:1009B800031DCC2D8A01092364003F08313C8A11AC
:1009C800031DCA2D8A01092364004008633C8A116B
:1009D800031D862D8A010923640041086F3C8A1192
:1009E800031D032D03170B308D00003003138A01FC
:1009F80014208A0109238A15C5208A0109238A013E
:100A0800092364004108663C8A11031D182D031749
:100A18000B308D00013003138A0114208A01092349
:100A28008A15C5208A0109238A010923640041081F
:100A3800643C8A11031D312D03170D308D000130E0
:100A480003138A0114208A0109230130FB008A015B
:100A580009238A15C5208A0109238A01092364000C
:100A68004108633C8A11031D492D03170D308D0081
:100A7800003003138A0114208A010923FB018A012B
:100A880009238A15C5208A0109238A0109236400DC
:100A98004108743C8A11031D842D8A0109236400CE
:100AA80042083D3C8A11031D822D8A010923073023
:100AB800F7008A0109238A150D218A010923640098
:100AC8007508013C8A11031D7A2D03170C308D001F
:100AD800831603133D0883128A0114208A0109230F
:100AE8008A15C5208A0109238A11802D8A010923C4
:100AF8008A15E0208A0109238A0109238A0109232A
:100B08008A0109238A010923640040086F3C8A117D
:100B1800031DB62D8A01092364004108663C8A1129
:100B2800031DA72D8A010923FE018A0109230C3020
:100B38008A010C20FA008A0109238A15DB218A011F
:100B480009238A11B02D8A0109238A15DB218A011C
:100B58000923FA018A0109238A0109238A15C52074
:100B68008A0109238A01092364004008663C8A1126
:100B7800031DC82D8A0109238A15FB218A0109232F
:100B88008A15C5208A0109238A0109238A010923B4
:100B98008A01092364003E08613C8A11031D782EEE
:100BA8008A01092364003F086C3C8A11031D762ED4
:100BB8008A01092364004008613C8A11031D092E3B
:100BC8008A0109230F308A010C20F2008A010923C7
:100BD800F1018A01092364007208003C8A11031D8F
:100BE800FD2D8A0109230130F3008A0109238A11A6
:100BF800032E8A0109230330F3008A0109238A019D
:100C080009238A15C5208A0109238A01092364005A
:100C18004008643C8A11031D202E8A010923F30130
:100C28008A010923F2018A010923F1018A010923B2
:100C38008A15C5208A0109238A010923640040080E
:100C4800633C8A11031D742E8A010923640042083B
:100C58003D3C8A11031D722E8A0109230730F700D3
:100C68008A0109238A150D218A0109236400750860
:100C7800013C8A11031D702E8A0109236400410872
:100C8800653C8A11031D572E03170E308D008316FD
:100C980003133D0883128A0114208A0109238A1547
:100CA800C5208A0109238A010923640041086C3C94
:100CB8008A11031D6E2E03170F308D008316031340
:100CC8003D0883128A0114208A0109238A15C52048
:100CD8008A0109238A0109238A0109238A01092330
:100CE8008A0109238A0109238A01092364003E082D
:100CF800733C8A11031DB12F8A01092364003F0840
:100D0800613C8A11031D0B2F8A0109238316313098
:100D1800A00083128A01092383167C30A100831264
:100D28008A01092383166130A20083128A010923EC
:100D380083167C30A30083128A010923303073079D
:100D48008316A40083128A01092383167C30A50028
:100D580083128A01092330308718013E8316A600C2
:100D680083128A01092383167C30A70083128A0123
:100D780009230E308A010C208316BD0083128A01D4
:100D880009238A15A7218A01092383163908A8008F
:100D980083128A01092383163708A90083128A015E
:100DA80009237F088316AA0083128A010923831660
:100DB8007C30AB0083128A0109230F308A010C2092
:100DC8008316BD0083128A0109238A15A7218A0187
:100DD800092383163908AC0083128A010923831674
:100DE8003708AD0083128A0109237F088316AE00F5
:100DF80083128A01092383160D30AF0083128A01FA
:100E0800092383160A30B00083128A0109238A0154
:100E1800092364003F08633C8A11031DAF2F8A0130
:100E2800092383163130A00083128A01092383160F
:100E38007C30A10083128A01092383166330A20043
:100E480083128A01092383167C30A30083128A0146
:100E580009233030051A013E8316A40083128A0143
:100E6800092383167C30A50083128A0109230B30DD
:100E78008A010C208316A60083128A0109233030C8
:100E88008316A60783128A01092383167C30A700DC
:100E980083128A0109230D308A010C208316A800C9
:100EA80083128A01092330308316A80783128A0126
:100EB800092383167C30A90083128A0109230C3088
:100EC8008A010C208316BD0083128A0109238A1522
:100ED800A7218A01092383163908AA0083128A01E7
:100EE800092383163708AB0083128A0109237F0878
:100EF8008316AC0083128A01092383167C30AD0067
:100F080083128A0109237A088316BD0083128A0195
:100F180009238A15A7218A01092383163908AE00F7
:100F280083128A01092383163708AF0083128A01C6
:100F380009237F088316B00083128A0109238316C8
:100F48000D30B10083128A01092383160A30B200DA
:100F580083128A0109238A0109238A01092364006B
:100F68003E08703C8A11031DC92F8A0109236400B9
:100F78003F086E3C8A11031DC72F8A0109238A1571
:100F8800C5208A0109238A0109238A0109236400EB
:100F980083162008003C8A118312031DD92F8A0169
:100FA80009238A15E0208A0109238A0109238A0175
:100FB80009231730D4008A0109230130FC008A0173
:100FC80009238A0185228A0109233D088316C10065
:100FD80083128A01092364008A1183168310411C35
:100FE800831483128318762C8A0109232730D400AE
:100FF8008A0109234030D5008A0109230130FC0009
:101008008A0109238A0168228A01092302308A0198
:1010180022208A0109238A017D2B8A010923630082
:101028008A15132864008A150B1DC3288316C00A65
:1010380064001F3040028A158312031CC2288316DD
:10104800C0018312FE0A6400013071028A15031C74
:101058004928F1037108A00000308A014D20B20030
:101068007308A00004308A014D20B40032088400BF
:1010780034088A016220B400B500640034083504DD
:101088008A15031949280530F300640001307202FB
:101098008A15031C6B28F2037208A00000308A012D
:1010A8004D20B2007308A00003308A014D20B4001F
:1010B8003208840034088A016220B400B500640054
:1010C800340835048A1503196B280130F3006400CD
:1010D8008A15871C9C286400013070028A15031C3D
:1010E8009B2864007308013C8A15031D8B280E3069
:1010F8008A010C20F10064007108003C8A15031D68
:1011080089280530F3008A158B280430F300640021
:101118007B08013C8A15031D9828FE010C308A01C2
:101128000C20FA008A15DB21F0018A159C28F00AA8
:10113800640001307D028A15031CAC28FD0364009D
:101148007D08003C8A15031DAC288316871483127A
:1011580064003B307E028A15031CC228FE0164002D
:1011680001307A028A15031CC228FA0364007A083F
:10117800003C8A15031DC2288A15FB210B118B1709
:1011880009008A01092383164F30A00083128A01BF
:10119800092383164B30A10083128A010923831681
:1011A8000D30A20083128A01092383160A30A30096
:1011B80083128A01092308008A010923831645300E
:1011C800A00083128A01092383165230A1008312DA
:1011D8008A01092383165230A20083128A01092347
:1011E80083164F30A30083128A01092383165230D5
:1011F800A40083128A01092383160D30A5008312E7
:101208008A01092383160A30A60083128A0109235A
:1012180008008A010923F5018A0109238316613030
:10122800BD0083128A010923F901640003307902A1
:101238008A1503187D298A0109236130FF008A0174
:10124800092377083C3E840000088316B700831200
:101258008A0109236400831637087C3C8A158312A7
:10126800031D372908008A0109238A1580218A016C
:10127800092364007F08613C8A15031D442908007E
:101288008A01092364007908003C8A15031D5A293C
:101298008A0109237F088316BD0083128A01092366
:1012A8000130F5008A0109238A1574298A01092366
:1012B80083163D088312A600A7010A30A200A301E5
:1012C8008A018520B2002508B3007F0832078316FB
:1012D800BD0083128A0109230130F5008A01092320
:1012E8008A010923F70A8A010923F90A8A15031DC5
:1012F80019298A01092308008A010923FF30A2005D
:10130800A20A2208093C8A15031CA4298A159621D9
:10131800831637028A158312031D84292208FF00C9
:101328008A15A42909308A0022088207303431340A
:101338003234333434343534363437343834393459
:101348008A01092308008A01092383163D088312AC
:10135800A000A10102308A014320B200B30130305D
:1013680032078316B90083128A01092383163D08C0
:101378008312A000A10101308A014320B200B30109
:10138800303032078316B70083128A010923831687
:101398003D088312A000A10100308A014320B20059
:1013A800B30130303207FF008A01092308008A019F
:1013B800092364008A15051AF8298A0109230430CB
:1013C800FD008A0109238316871083128A010923E5
:1013D80087108316871083128A010923051683163E
:1013E800051283128A0109238A01092308008A0148
:1013F800092364008A15051E182A8A010923043066
:10140800FD008A0109238316871083128A010923A4
:1014180087108316871083128A0109230512831601
:10142800051283128A0109238A01092308008A0107
:10143800092306308A010C20D5008A0109230730C8
:101448008A010C20D6008A01092308308A010C2061
:10145800D7008A01092309308A010C20D8008A01A3
:1014680009237608D9008A01092308008A0109237B
:1014780001308A010C20D5008A01092302308A0133
:101488000C20D6008A01092303308A010C20D700DA
:101498008A01092304308A010C20D8008A01092313
:0E14A80005308A010C20D9008A0109230800B2
:02400E00CC3FA5
:104200002800520045004D004F0054004500480072
:104210004F004D0000000100000000000000000001
:00000001FF
