:02000000AF2827
:10000800080083178001840AFF3E031D0628AA28DA
:10001800031783168C010C1483120C0803178D0A1E
:10002800AA28030103178C0083168C010C15553080
:100038008D00AA308D008C148C1820280C11831286
:100048008D0AAA28A301A200FF30A207031CA30758
:10005800031CAA280330A100E33034202828A1017A
:10006800F43EA000A109FE30031C3D28A007031898
:100078003A28A0076400A10F3A2800002018442855
:10008800201846280800013EA7000A30A200A30154
:100098007820A70B4C2824080800A301A2000230EE
:1000A8005A28A20006305A28A2000530A8002308C2
:1000B8002102031D612822082002043003180130A0
:1000C800031902302805031DFF30AA28A2002008C2
:1000D800A6002408A0002608A4002108A6002508D8
:1000E800A1002608A5007A28A501A4011030A600C1
:1000F800210DA40DA50D2208A4022308031C230F1B
:10010800A50203188E282208A40723080318230F22
:10011800A5070310A00DA10DA60B7C282008AA286E
:100128001030A800A101A001A70CA60C031CA2284E
:100138002208A00723080318230FA107A10CA00C6D
:10014800A50CA40CA80B98282408AA288313031329
:100158008312640008008A11462BC8308A012620C1
:100168009416141414128316141783128C11831600
:100178009413831205150A308A01262005110710E9
:100188008316A201A301831208002A30D0008A1521
:10019800432283160530BA0083128A11A722213020
:1001A800D0000130D10083160130BA0083128A11C1
:1001B800A7222230D0000130D10083160130BA00C6
:1001C80083128A11A7222530D00003178D0103134B
:1001D8008A010C20D10083160130BA0083128A11DB
:1001E800A7223130D0001630D10083160130BA0072
:1001F80083128A11A7222630D0003730D100831607
:100208000130BA0083128A11A72283160130C50073
:1002180083128A11B8218316C5014030BD004B30C6
:10022800BF000130C100E230C20083128A11DF2111
:1002380083160130C500C030BD004B30BF00C1017E
:10024800C20183128A11DF2183160230C500D03023
:10025800BD00FC30BF008C30C1000230C2008312E8
:100268008A11DF2183160330C5009930BD00BF0114
:100278003930C1004130C20083128A11DF21831650
:100288000430C500B930BD009E30BF008630C100C3
:100298000B30C20083128A11DF2183160530C50096
:1002A8002430BD000630BF007F30C100A630C20038
:1002B80083128A11DF2183160630B9008312640085
:1002C8000C30831639028A11831203187B2983168E
:1002D8003908C500BD01BF01C101C20183128A11DD
:1002E800DF218316B90A8A118312031D6329831635
:1002F8000C30C500BD011230BF007330C100C2010F
:1003080083128A11DF2183160D30C5003630BD00F7
:10031800B430BF008030C100C20183128A11DF21CE
:100328002E30D0004130D1002030D2000830D30028
:100338000430D4008130D5002030D600CF30D7002B
:10034800F730D800FE30D900FF30DA00FF30DB008C
:1003580083160B30BA0083128A11A7228316C501AF
:1003680083128A11B82108000730D00083160130A3
:10037800BA0083128A11C422803038058316A4007B
:10038800A50124088312A000831625088312A10062
:100398008316450883128A0151208A11031DDE291C
:1003A8005030D0005330D10083160130BA00831288
:1003B8008A11A72208002030831645078312D0002F
:1003C80083163D088312D10083163F088312D2009A
:1003D800831641088312D300831642088312D4007F
:1003E80083160430BA0083128A11A72208001E302F
:1003F8008A0126208A119422E130D0008316BA019E
:1004080083128A11A7222730D0003030D1008316FA
:100418000130BA0083128A11A7228A112723A0303B
:10042800D000831633088312D10083160230C80027
:10043800831264001830831648028A118312031845
:100448004F2AFE3083164807A400FF300318013EE8
:10045800A5002408683E8400831200088316A400BF
:100468004808503E840024088312800083164808F8
:10047800503E8400831200088316A40064002408F8
:100488000A3C8A11831203194F2A8316C80A8A1153
:100498008312031D1D2A83161630BA0083128A118F
:1004A800A7220130A100F4308A013420051501305B
:1004B800A100F4308A013420051101308A01262078
:1004C80064008A110719642A0730D00083160130A6
:1004D800BA0083128A11C422703038058316C70007
:1004E80064004708103C8A118312031D7D2A8A1173
:1004F800E922640083164708303C8A118312031DE1
:10050800872A8A11FB222730D0002030D100831699
:100518000130BA0083128A11A7228A119422080096
:1005280005110130A100F4308A013420051501308D
:10053800A100F4308A01342005110130A100F43003
:100548008A013420080007108316C801831264004A
:10055800831648083A028A118312031CC22A83169A
:100568004808503E84008312000893008A11E32251
:100578008316C80A8A118312031DAB2A07140800C0
:1005880007108316C80183126400831648083A02CC
:100598008A118312031CE12A500893008A11E3226E
:1005A80083164808383E8400831213088000831697
:1005B800C80A8A118312031DC82A07140800640098
:1005C8008A118C1DE32A8C110800E130D0008316B3
:1005D800BA0183128A01A7222730D0001030D10037
:1005E80083160130BA0083128A01A7220800E1307D
:1005F800D0008316BA0183128A01A7222730D000BF
:100608003030D10083160130BA0083128A01A72244
:1006180008008A0194222030D0000F30D1008316C0
:100628000130BA0083128A01A7228A0194220800A5
:100638002030D0000D30D10083160130BA0083126B
:100648008A01A72208003030D0008A15702283164C
:100658000530BA0083128A01A7222430D000353031
:10066800D10083160130BA0083128A01A7222030F4
:10067800D0000E30D10083160130BA0083128A01EF
:10068800A7220800831670308F00831203179E017B
:100698009F0199019A010313A0308B0083168C01E6
:1006A800073081008B1783128A115E2B8B1B080081
:1006B8008A1550288A015A238316850183128A01D4
:1006C8005A2383163030860083128A015A238316F0
:1006D8000430870083128A015A23831695018312F6
:1006E8008A015A2303172030950003138A015A23DD
:1006F8002030840060308A010620A0308400503009
:100708008A0106202030840050308A0105208A01A1
:100718005A238A15A4208A015A2303170A308D0008
:1007280003138A010C208316B30083128A015A230B
:1007380003170B308D0003138A010C208316AC00BD
:10074800AD0183128A015A2383162C088312A6004E
:1007580083162D088312A7001E30A200A3018A0168
:1007680094208316AC00831225088316AD008312EB
:100778008A015A238316851283128A015A23831603
:10078800051283128A015A238316861683128A0158
:100798005A238A01B1208A015A238A01C9208A0171
:1007A8005A238A01C9208A015A238A010D238A0102
:1007B8005A2302308A0126208A015A2305158A0104
:1007C8005A2364008A11861A492C03178D01283090
:1007D80003138A011620031701308D0052300313CA
:1007E8008A011620031702308D00453003138A0151
:1007F8001620031703308D004D3003138A0116208D
:10080800031704308D004F3003138A011620031795
:1008180005308D00543003138A0116200317063063
:100828008D00453003138A011620031707308D0009
:10083800483003138A011620031708308D004F3003
:1008480003138A011620031709308D004D30031356
:100858008A01162003170A308D00003003138A011D
:10086800162003170B308D00013003138A01162060
:100878008A015A230330A300E8308A0127208A011D
:100888005A238A017A2B8A015A238A015A2364003F
:100898006808003C8A110319732C8A015A236400E2
:1008A80083162F08013C8A118312031D662C8A01C6
:1008B8005A238A01C9208A015A238316AF01831259
:1008C8008A015A238A015A238A01FB218A015A2361
:1008D800E8018A015A238A01D72B8A015A238A01FF
:1008E8005A2364008A110719E32B8A015A23051138
:1008F8008A015A236130D0008A015A2383161630A0
:10090800BA0083128A015A238A01C4228A015A230F
:10091800E8018A015A2364003908831633028A15CC
:100928008312031D11288A015A2364003A08633C84
:100938008A11031DF32C8A015A2364003B083D3CAD
:100948008A11031DEF2C8A015A238316B6018312DC
:1009580064000B30831636028A1183120318D32CD5
:1009680083163608831203178D0004308316031389
:100978003607A400A501A50D2408383E840083127B
:1009880000088316A400240883128A0116208A010D
:100998005A238316B60A8A118312031DAC2C8A01C6
:1009A8005A2303170A308D0003138A010C2083167B
:1009B800B30083128A015A23FA308A0126208A0159
:1009C8005A2383160130AF0083128A015A238A15ED
:1009D80043218A015A238A015A238A11E92F640084
:1009E8003A08623C8A11031D272F8A015A236400A2
:1009F8003B08743C8A11031D452D8A015A23640063
:100A08003C083D3C8A11031D412D8A015A23831657
:100A18000530B60083128A015A238A1556218A01A5
:100A28005A23640083163008013C8A118312031D7F
:100A38003F2D03170B308D008316031343088312D1
:100A48008A0116208A015A23831643088312A600B6
:100A5800A7011E30A200A3018A0194208316AC00CE
:100A6800831225088316AD0083128A015A238A153A
:100A780043218A015A238A015A238A015A238A1157
:100A8800232FA001A10183162D088312A30083162A
:100A98002C0883128A0158208A11031D572D8A01B8
:100AA8005A238A11232F64003B08643C8A11031DD2
:100AB800892D8A015A2383162C088312FE00831677
:100AC8002D088312FF008A015A237E088316A0008E
:100AD80083127F088316A10083128A015A238A157C
:100AE800D6208A015A2383163108B70083128A0157
:100AF8005A2383166430B10083128A015A238A1557
:100B080043218A015A238A11232F64003B08753C2C
:100B18008A11031DBA2D8A015A2383162C088312C1
:100B2800FE0083162D088312FF008A015A237E08CF
:100B38008316A00083127F088316A10083128A01FE
:100B48005A238A15B8208A015A2383163108B70018
:100B580083128A015A238316B10183128A015A2308
:100B68008A1543218A015A238A11232F64003B08DE
:100B78006D3C8A11031D672E8A015A2364003C08C4
:100B88003D3C8A11031D632E8A015A2383160530C2
:100B9800B60083128A015A238A1556218A015A23DC
:100BA800640083163008013C8A118312031D612EEC
:100BB8008A015A2364006530831643028A1183121E
:100BC80003185F2E8A015A236400831643083102F2
:100BD8008A118312031DFD2D8A015A238A15432188
:100BE8008A015A230430FE00FF018A015A238A1120
:100BF8005D2E64008316430831028A11831203189C
:100C0800322E8A015A23831631084302BE0083120A
:100C18008A015A2383163108B70083128A015A239E
:100C28008A1523218A015A237E088316A00083127D
:100C38007F088316A10083128A015A238A15D620B9
:100C48008A015A2383164308B10083128A015A2362
:100C58008A1543218A015A238A115D2E8A015A2353
:100C6800831643083102BE0083128A015A23831671
:100C78003108B70083128A015A238A1523218A0171
:100C88005A237E088316A00083127F088316A100CA
:100C980083128A015A238A15B8208A015A23831697
:100CA8004308B10083128A015A238A1543218A0115
:100CB8005A238A015A238A015A238A015A238A010C
:100CC8005A238A11232F64003B08733C8A11031DA1
:100CD800232F8A015A23640083163208003C8A11A4
:100CE80083120319162F8A015A237E0883162002BD
:100CF800AA0083127F08031C013E83162102AB0061
:100D08002A088312A60083162B088312A7006430D2
:100D1800A200A3018A0194208316AA008312250841
:100D28008316AB002D088312A30083162C088312A8
:100D38008A016A208316A600831221088316A70059
:100D480083128A015A23640083163208013C8A11EF
:100D58008312031DDA2E8A015A23831637082607C1
:100D6800A80027080318013EA90083128A015A2304
:100D7800831628088312A000831629088312A1006D
:100D8800A30164308A0155208A11031DD02E8316D1
:100D98006430A800A90183128A015A2383162808FF
:100DA800B10083128A015A238A11092F640083161D
:100DB8003208023C8A118312031D092F8A015A2323
:100DC800831637088312A000A1018316270883120F
:100DD800A3008316260883128A0155208A11031D51
:100DE800002F8A015A23831626083702B10083127E
:100DF8008A015A238A11072F8A015A238316B101BF
:100E080083128A015A238A015A238A015A238A158E
:100E180043218A015A230430FE00FF018A015A2324
:100E28008A11212F8A015A238A1543218A015A23BC
:100E38000430FE00FF018A015A238A015A238A01DD
:100E48005A238A11E92F64003A08733C8A11031D5A
:100E58009D2F8A015A233530E8008A015A237C30B5
:100E6800E9008A015A233030851A013EEA008A01D6
:100E78005A237C30EB008A015A233030051A013E90
:100E8800EC008A015A237C30ED008A015A2383162C
:100E98002C088312A00083162D088312A1001E308F
:100EA800A200A3018A0178208316C30083128A0155
:100EB8005A238A150D228A015A2383164008831261
:100EC800EE008A015A2383163E088312EF008A0136
:100ED8005A2383163C088312F0008A015A237C3077
:100EE800F1008A015A2383163B08C30083128A0142
:100EF8005A238A150D228A015A2383164008831221
:100F0800F2008A015A2383163E088312F3008A01ED
:100F18005A2383163C088312F4008A015A230D30A1
:100F2800F5008A015A230A30F6008A015A238A11E9
:100F3800E92F64003A08703C8A11031DB52F8A0115
:100F48005A2364003B086E3C8A11031DB12F8A01A5
:100F58005A238A1543218A015A238A015A238A115E
:100F6800E92F64003A08753C8A11031DC72F8A01CE
:100F78005A238A15B8208A015A238A1543218A01DF
:100F88005A238A11E92F64003A08643C8A11031D28
:100F9800D92F8A015A238A15D6208A015A238A15FD
:100FA80043218A015A238A11E92F64003A08653CD3
:100FB8008A11031DE92F8A015A238A15A4208A0160
:100FC8005A238A1543218A015A238A015A23640025
:100FD8006808003C8A15031D0F288A015A234530EA
:100FE800E8008A015A235230E9008A015A23523014
:100FF800EA008A015A234F30EB008A015A23523003
:10100800EC008A015A230D30ED008A015A230A3078
:10101800EE008A015A238A015A238A015A2317307B
:10102800D0008A015A2383160130BA0083128A013C
:101038005A238A01C4228A015A2339088316C70011
:1010480083128A015A2364008A1183168310471C6D
:101058008314831283187C2C8A015A232730D000EA
:101068008A015A234030D1008A015A23831601305D
:10107800BA0083128A015A238A01A7228A015A23B5
:1010880002308A0126208A015A238A01D72B8A0135
:101098005A2363008A154D2864008A150B1D8A2877
:1010A8008316C60A83127E08A0007F08A100A30148
:1010B80000308A0155208A15031D74280130FE026C
:1010C8000030031C013EFF02A001A1017F08A3001C
:1010D8007E088A0158208A15031D74288A158C20D9
:1010E80064001F30831646028A158312031C892860
:1010F8008316C601BB0A64003C303B028A15831282
:10110800031C89288316BB0183120B118B17090056
:101118008A015A2385128316851283128A015A235B
:1011280005128316051283128A015A238A15F420A0
:101138008A015A238316B20183128A015A230800AE
:101148008A015A2385128316851283128A015A232B
:1011580005128316051283128A015A238316B201D7
:1011680083128A015A2308008A015A238A15A42067
:101178008A015A2364308A0126208A015A23851657
:101188008316851283128A015A23051283160512C3
:1011980083128A015A2383160230B20083128A010D
:1011A8005A2308008A015A238A15A4208A015A233F
:1011B80064308A0126208A015A23851283168512F3
:1011C80083128A015A2305168316051283128A018F
:1011D8005A2383160130B20083128A015A23080069
:1011E8008A015A236C30E8008A015A237C30E900CE
:1011F8008A015A2383163108C30083128A015A23AD
:101208008A150D228A015A23831640088312EA00A0
:101218008A015A2383163E088312EB008A015A2357
:1012280083163C088312EC008A015A230D30ED0026
:101238008A015A230A30EE008A015A2308008316CD
:101248002C088312A60083162D088312A700831684
:101258003E088312A200A3018A0194208316AA00E3
:10126800831225088316AB008312A30164308A0118
:101278006A20FE002108FF008A015A2308008A011B
:101288005A234F30E8008A015A234B30E9008A017B
:101298005A230D30EA008A015A230A30EB008A01EA
:1012A8005A2308008A015A238316B00183128A013F
:1012B8005A2383166130C30083128A015A23831686
:1012C800AE0183126400033083162E028A1583123E
:1012D8000318DE298A015A2383166130BC00831261
:1012E8008A015A2383163608383E84008312000880
:1012F8008316BE0083128A015A23640083163E08AF
:101308007C3C8A158312031D8A2908008A015A2306
:101318008A15E1218A015A23640083163C08613C3E
:101328008A158312031D992908008A015A2364002B
:1013380083162E08003C8A158312031DB3298A01DF
:101348005A2383163C08C30083128A015A23831642
:101358000130B00083128A015A238A15D1298A01E3
:101368005A23831643088312A600A7010A30A20055
:10137800A3018A0194208316A400831225088316EA
:10138800A50024083C07C30083128A015A23831648
:101398000130B00083128A015A238A015A23831626
:1013A800B60A83128A015A238316AE0A8A15831253
:1013B800031D66298A015A2308008A015A23FF302F
:1013C800A200A20A2208093C8A15031C0A2A8A15C7
:1013D800F92183163E028A158312031DE529220886
:1013E8008316BC0083128A150A2A0A308A0022084A
:1013F800003E03188A0A82003034313432343334E0
:101408003434353436343734383439348A015A234D
:1014180008008A015A23831643088312A000A101F9
:1014280002308A0147208316A400A5013030240722
:10143800C00083128A015A23831643088312A0002E
:10144800A10101308A0147208316A400A50130308C
:101458002407BE0083128A015A2383164308831285
:10146800A000A10100308A0147208316A400A5012D
:1014780030302407BC0083128A015A2308008A01ED
:101488005A23031706308D0003138A010C20D1005C
:101498008A015A23031707308D0003138A010C2091
:1014A800D2008A015A23031708308D0003138A01DA
:1014B8000C20D3008A015A23031709308D00031327
:1014C8008A010C20D4008A015A2383163308831218
:1014D800D5008A015A2308008A015A2303170130CC
:1014E8008D0003138A010C20D1008A015A230317A7
:1014F80002308D0003138A010C20D2008A015A237E
:10150800031703308D0003138A010C20D3008A01CE
:101518005A23031704308D0003138A010C20D400CA
:101528008A015A23031705308D0003138A010C2002
:08153800D5008A015A230800C6
:02400E00CC3FA5
:104200002800520045004D004F0054004500480072
:104210004F004D0000000100000000000000000001
:00000001FF
