:020000009C283A
:10000800080083178001840AFF3E031D06289728ED
:10001800031783168C010C1483120C0803178D0A1E
:100028009728030103178C0083168C010C15553093
:100038008D00AA308D008C148C1820280C11831286
:100048008D0A9728A301A200FF30A207031CA3076B
:10005800031C97280330A100E33034202828A1018D
:10006800F43EA000A109FE30031C3D28A007031898
:100078003A28A0076400A10F3A2800002018442855
:10008800201846280800013EA7000A30A200A30154
:100098006520A70B4C2824080800A301A200023001
:1000A8005528A80023082102031D5C2822082002E5
:1000B800043003180130031902302805031DFF30EE
:1000C8009728A501A4011030A600210DA40DA50DA7
:1000D8002208A4022308031C230FA50203187B2867
:1000E8002208A40723080318230FA5070310A00D4F
:1000F800A10DA60B6928200897281030A800A10197
:10010800A001A70CA60C031C8F282208A00723080F
:100118000318230FA107A10CA00CA50CA40CA80B75
:100128008528240897288313031383126400080082
:100138008A11132BC8308A0126209416141414121D
:100148008316141783128C118316941383120515C2
:100158000A308A01262005110710FE01FF01080058
:100168002A30D0008A11E22583160530AE008312AA
:100178008A1176222130D0000130D1008316013057
:10018800AE0083128A1176222230D0000130D100CD
:1001980083160130AE0083128A1176222530D000F2
:1001A80003178D0103138A010C20D1008316013037
:1001B800AE0083128A1176223130D0001630D10079
:1001C80083160130AE0083128A1176222630D000C1
:1001D8000730D10083160130AE0083128A117622CF
:1001E80083160130B90083128A1187218316B90159
:1001F8004030B1004B30B3000130B500E230B600FA
:1002080083128A11AE2183160130B900C030B100C3
:100218004B30B300B501B60183128A11AE218316A3
:100228000230B900D030B100FC30B3008C30B500DA
:100238000230B60083128A11AE2183160330B9004A
:100248009930B100B3013930B5004130B60083129E
:100258008A11AE2183160430B900D930B100963026
:10026800B3008230B5001B30B60083128A11AE216C
:1002780083160530B9002430B1000230B3007F3056
:10028800B500A630B60083128A11AE2183160C3051
:10029800B900B1011230B3007330B500B601831252
:1002A8008A11AE2183160D30B9004630B100B43042
:1002B800B3008030B500B60183128A11AE212E300A
:1002C800D0004130D1002030D2000830D3000430B3
:1002D800D4008130D5002030D600CF30D700F73099
:1002E800D800FE30D900FF30DA00FF30DB0083167B
:1002F8000B30AE0083128A1176228316B90183125D
:100308008A11872108000730D00083160130AE001B
:1003180083128A119322803038058316A000A10128
:1003280020088312A000831621088312A1008316D7
:10033800390883128A0151208A11031DAD295030D2
:10034800D0005330D10083160130AE0083128A11D9
:10035800762208002030831639078312D0008316CE
:1003680031088312D100831633088312D200831612
:1003780035088312D300831636088312D4008316F7
:100388000430AE0083128A11762208001E308A01DA
:1003980026208A116322E130D0008316AE01831231
:1003A8008A1176222730D0003030D10083160130F0
:1003B800AE0083128A1176228A11F422A030D0006E
:1003C800831627088312D10083160230BC008312DB
:1003D8006400183083163C028A11831203181E2AFF
:1003E800FE3083163C07A000FF300318013EA10031
:1003F8002008683E8400831200088316A0003C0889
:10040800503E840020088312800083163C08503E2A
:100418008400831200088316A000640020080A3CA8
:100428008A11831203191E2A8316BC0A8A118312A1
:10043800031DEC2983161630AE0083128A1176222A
:100448000130A100F4308A01342005150130A100E3
:10045800F4308A013420051101308A012620640015
:100468008A110719332A0730D00083160130AE00ED
:1004780083128A119322703038058316BB006400FA
:100488003B08103C8A118312031D4C2A8A11B8229A
:10049800640083163B08303C8A118312031D562AD8
:1004A8008A11CA222730D0002030D10083160130AB
:1004B800AE0083128A1176228A1163220800051180
:1004C8000130A100F4308A01342005150130A10063
:1004D800F4308A01342005110130A100F4308A017A
:1004E8003420080007108316BC01831264008316A9
:1004F8003C082E028A118312031C912A83163C0899
:10050800503E84008312000893008A11B222831699
:10051800BC0A8A118312031D7A2A071408000710DF
:100528008316BC018312640083163C082E028A11CC
:100538008312031CB02A500893008A11B222831632
:100548003C08383E84008312130880008316BC0AD6
:100558008A118312031D972A0714080064008A1160
:100568008C1DB22A8C110800E130D0008316AE0130
:1005780083128A0176222730D0001030D1008316EA
:100588000130AE0083128A0176220800E130D000E3
:100598008316AE0183128A0176222730D0003030CC
:1005A800D10083160130AE0083128A01762208003A
:1005B8008A0163222030D0000F30D1008316013029
:1005C800AE0083128A01762208002030D0000D3058
:1005D800D10083160130AE0083128A01762208000A
:1005E8003030D0008A110F2683160530AE008312F2
:1005F8008A0176222430D0003530D10083160130AC
:10060800AE0083128A0176222030D0000E30D1004D
:1006180083160130AE0083128A0176220800831601
:1006280070308F00831203179E019F0199019A0170
:100638000313A0308B0083168C01073081008B17C1
:1006480083128A112B2B8B1B08008A11C92C8A0153
:1006580027238316850183128A01272383161030E6
:10066800860083128A0127238316043087008312A9
:100678008A0127232030840060308A010620A030B8
:10068800840050308A0106202030840050308A01CE
:1006980005208A01272303170A308D0003138A01D6
:1006A8000C208316A70083128A012723851283163C
:1006B800851283128A0127230512831605128312D5
:1006C8008A01272307128316071283128A01272318
:1006D80087118316871183128A012723071383162C
:1006E800071383128A01272387128316871283121E
:1006F8008A0127238A019E208A0127238A01B420A0
:100708008A0127238A01DC228A01272302308A01F1
:1007180026208A01272305158A01272364006808F3
:10072800003C8A110319BA2B8A0127236400831617
:100738002508013C8A118312031DAD2B8A0127234A
:100748008A01B4208A0127238316A50183128A010E
:1007580027238A0127238A01CA218A012723E8013E
:100768008A0127238A01842B8A0127238A012723C8
:1007780064008A110719902B8A01272305118A0121
:1007880027236130D0008A01272383161630AE0054
:1007980083128A0127238A0193228A012723E801E9
:1007A8008A01272364003908831627028A118312D5
:1007B800031D8A2C8A01272364003A08633C8A11A6
:1007C800031D3A2C8A01272364003B083D3C8A110B
:1007D800031D362C8A0127238316AA01831264007D
:1007E8000B3083162A028A11831203181A2C8316D7
:1007F8002A08831203178D000430831603132A076F
:10080800A000A101A10D2008383E84008312000831
:100818008316A000200883128A0116208A01272344
:100828008316AA0A8A118312031DF32B8A01272330
:1008380003170A308D0003138A010C208316A700C2
:1008480083128A012723FA308A0126208A01272366
:1008580083160130A50083128A0127238A11E62412
:100868008A0127238A0127238A11662C64003A0803
:10087800733C8A11031D502C8A0127233230E8006B
:100888008A0127237C30E9008A0127230A30EA00FD
:100898008A0127238A11662C64003A08703C8A1161
:1008A800031D662C8A01272364003B086E3C8A11CD
:1008B800031D642C8A0127238A11E6248A01272331
:1008C8008A0127238A01272364006808003C8A11CB
:1008D800031D882C8A0127234530E8008A01272335
:1008E8005230E9008A0127235230EA008A0127237F
:1008F8004F30EB008A0127235230EC008A0127236E
:100908000A30ED008A0127238A0127238A01272339
:100918001730D0008A01272383160130AE008312D6
:100928008A0127238A0193228A01272339088316FB
:10093800BB0083128A01272364008A11831683105F
:100948003B1C831483128318C32B8A012723273067
:10095800D0008A0127234030D1008A01272383163B
:100968000130AE0083128A0127238A0176228A0188
:10097800272302308A0126208A0127238A01842B13
:100988008A01272363008A01C62C64008A110B1D83
:10099800E42C8316BA0A64001F303A028A118312C3
:1009A800031CE32C8316BA01AF0A64003B302F0204
:1009B8008A118312031CE32C8316AF0183120B11D7
:1009C8008B1709008A0127234F30E8008A01272363
:1009D8004B30E9008A0127230A30EA008A012723DD
:1009E80008008A0127238316A60183128A01272378
:1009F80083166130B70083128A0127238316A40166
:100A0800831264000330831624028A1183120318A8
:100A18007D2D8A01272383166130B00083128A0155
:100A2800272383162A08383E840083120008831679
:100A3800B20083128A0127236400831632087C3CA3
:100A48008A118312031D292D08008A0127238A1180
:100A580080258A012723640083163008613C8A11A7
:100A68008312031D382D08008A012723640083168A
:100A78002408003C8A118312031D522D8A01272362
:100A880083163008B70083128A01272383160130A2
:100A9800A60083128A0127238A11702D8A01272331
:100AA800831637088312A600A7010A30A200A30103
:100AB8008A0181208316A000831225088316A100CD
:100AC80020083007B70083128A01272383160130D4
:100AD800A60083128A0127238A0127238316AA0ADC
:100AE80083128A0127238316A40A8A118312031DFD
:100AF800052D8A01272308008A012723FF30A20039
:100B0800A20A2208093C8A11031CA92D8A119825DA
:100B1800831632028A118312031D842D220883163C
:100B2800B00083128A11A92D05308A0022089F3E41
:100B380003188A0A8200303431343234333434347E
:100B4800353436343734383439348A0127230800A9
:100B58008A012723831637088312A000A1010230D7
:100B68008A0147208316A000A10130302007B40075
:100B780083128A012723831637088312A000A10154
:100B880001308A0147208316A000A10130302007D8
:100B9800B20083128A012723831637088312A00024
:100BA800A10100308A0147208316A000A10130303E
:100BB8002007B00083128A01272308008A0127230F
:100BC800031706308D0003138A010C20D1008A0117
:100BD8002723031707308D0003138A010C20D20046
:100BE8008A012723031708308D0003138A010C207C
:100BF800D3008A012723031709308D0003138A01C4
:100C08000C20D4008A012723831627088312D500D5
:100C18008A01272308008A012723031701308D0042
:100C280003138A010C20D1008A01272303170230FD
:100C38008D0003138A010C20D2008A012723031791
:100C480003308D0003138A010C20D3008A01272367
:100C5800031704308D0003138A010C20D4008A0185
:100C68002723031705308D0003138A010C20D500B4
:060C78008A012723080099
:02400E00CC3FA5
:104200002800520045004D004F0054004500480072
:104210004F004D0000000000000000000000000002
:00000001FF
