:020000009F2837
:10000800080083178001840AFF3E031D06289A28EA
:10001800031783168C010C1483120C0803178D0A1E
:100028009A28030103178C0083168C010C15553090
:100038008D00AA308D008C148C1820280C11831286
:100048008D0A9A28A301A200FF30A207031CA30768
:10005800031C9A280330A100E33034202828A1018A
:10006800F43EA000A109FE30031C3D28A007031898
:100078003A28A0076400A10F3A2800002018442855
:10008800201846280800013EA7000A30A200A30154
:100098006820A70B4C2824080800A301A2000230FE
:1000A8005828A20004305828A80023082102031D5C
:1000B8005F28220820020430031801300319023097
:1000C8002805031DFF309A28A501A4011030A600B9
:1000D800210DA40DA50D2208A4022308031C230F3B
:1000E800A50203187E282208A40723080318230F53
:1000F800A5070310A00DA10DA60B6C2820089A28AF
:100108001030A800A101A001A70CA60C031C92287E
:100118002208A00723080318230FA107A10CA00C8D
:10012800A50CA40CA80B882824089A288313031369
:100138008312640008008A11162BC8308A01262011
:100148009416141414128316141783128C11831620
:100158009413831205150A308A0126200511071009
:10016800FE01FF0108002A30D0008A15B621831647
:100178000530B50083128A1179222130D000013070
:10018800D10083160130B50083128A1179222230FA
:10019800D0000130D10083160130B50083128A11D6
:1001A80079222530D00003178D0103138A010C2012
:1001B800D10083160130B50083128A1179223130BB
:1001C800D0001630D10083160130B50083128A1191
:1001D80079222630D0000730D10083160130B500CF
:1001E80083128A11792283160130C10083128A1181
:1001F8008A218316C1014030B8004B30BA00013063
:10020800BC00E230BE0083128A11B121831601308E
:10021800C100C030B8004B30BA00BC01BE01831227
:100228008A11B12183160230C100D030B800FC30E9
:10023800BA008C30BC000230BE0083128A11B12192
:1002480083160330C1009930B800BA013930BC00B8
:100258004130BE0083128A11B12183160430C100D7
:10026800D930B8009630BA008230BC001B30BE00CE
:1002780083128A11B12183160530C1002430B800D9
:100288000230BA007F30BC00A630BE0083128A114B
:10029800B12183160C30C100B8011230BA00733096
:1002A800BC00BE0183128A11B12183160D30C10032
:1002B8004630B800B430BA008030BC00BE018312AA
:1002C8008A11B1212E30D0004130D1002030D20027
:1002D8000830D3000430D4008130D5002030D60057
:1002E800CF30D700F730D800FE30D900FF30DA0021
:1002F800FF30DB0083160B30B50083128A11792298
:100308008316C10183128A118A2108000730D000A0
:1003180083160130B50083128A1196228030380581
:100328008316A300A40123088312A00083162408BF
:100338008312A1008316410883128A0151208A1171
:10034800031DB0295030D0005330D100831601303E
:10035800B50083128A1179220800203083164107DC
:100368008312D000831638088312D10083163A0806
:100378008312D20083163C088312D30083163E08EA
:100388008312D40083160430B50083128A117922AF
:1003980008001E308A0126208A116622E130D0002A
:1003A8008316B50183128A1179222730D0003030A4
:1003B800D10083160130B50083128A1179228A117F
:1003C800F722A030D00083162E088312D10083169E
:1003D8000230C300831264001830831643028A1166
:1003E80083120318212AFE3083164307A300FF3027
:1003F8000318013EA4002308683E84008312000805
:100408008316A3004308503E84002308831280000B
:1004180083164308503E8400831200088316A30005
:10042800640023080A3C8A1183120319212A8316BF
:10043800C30A8A118312031DEF2983161630B500EB
:1004480083128A1179220130A100F4308A01342004
:1004580005150130A100F4308A013420051101305E
:100468008A01262064008A110719362A0730D0002D
:1004780083160130B50083128A1196227030380530
:100488008316C20064004208103C8A118312031DBF
:100498004F2A8A11BB22640083164208303C8A1115
:1004A8008312031D592A8A11CD222730D00020300B
:1004B800D10083160130B50083128A1179228A117E
:1004C8006622080005110130A100F4308A013420A9
:1004D80005150130A100F4308A01342005110130DE
:1004E800A100F4308A013420080007108316C301E4
:1004F800831264008316430835028A118312031C91
:10050800942A83164308503E8400831200089300FF
:100518008A11B5228316C30A8A118312031D7D2A04
:100528000714080007108316C3018312640083169A
:10053800430835028A118312031CB32A500893001A
:100548008A11B52283164308383E840083121308A3
:1005580080008316C30A8A118312031D9A2A07147E
:10056800080064008A118C1DB52A8C110800E1303E
:10057800D0008316B50183128A0179222730D00072
:100588001030D10083160130B50083128A01792218
:100598000800E130D0008316B50183128A01792260
:1005A8002730D0003030D10083160130B5008312D7
:1005B8008A01792208008A0166222030D0000F3093
:1005C800D10083160130B50083128A017922080010
:1005D8002030D0000D30D10083160130B5008312D1
:1005E8008A01792208003030D0008A15E321831669
:1005F8000530B50083128A0179222430D0003530C5
:10060800D10083160130B50083128A017922203087
:10061800D0000E30D10083160130B50083128A0154
:1006280079220800831670308F00831203179E0109
:100638009F0199019A010313A0308B0083168C0146
:10064800073081008B1783128A112E2B8B1B080011
:100658008A11F62F8A012A238316850183128A01BB
:100668002A2383163030860083128A012A238316B0
:100678000430870083128A012A2383169501831286
:100688008A012A2303172030950003138A012A239D
:100698002030840060308A010620A0308400503069
:1006A8008A0106202030840050308A0105208A0102
:1006B8002A238316861683128A012A238316051293
:1006C80083128A012A238316851283128A012A2318
:1006D80003170A308D0003138A010C208316AE001D
:1006E80083128A012A2303170B308D0003138A0112
:1006F8000C208316B70083128A012A23831601303F
:10070800BF0083128A012A23640083163708003C3D
:100718008A118312031D982B8A012A238A157821AE
:100728008A012A238A119E2B8A012A238A15972156
:100738008A012A238A012A2303170D308D00031307
:100748008A010C208316B70083128A012A23831694
:100758000230BF0083128A012A23640083163708F7
:10076800003C8A118312031DC12B8A012A238A1592
:1007780078218A012A238A11C72B8A012A238A15FC
:1007880097218A012A238A012A238A01A1208A0122
:100798002A238A01B7208A012A238A01DF228A01B3
:1007A8002A2302308A0126208A012A2305158A0174
:1007B8002A2364008A11861A562C03178D012830C3
:1007C80003138A011620031701308D0052300313DA
:1007D8008A011620031702308D00453003138A0161
:1007E8001620031703308D004D3003138A0116209D
:1007F800031704308D004F3003138A0116200317A6
:1008080005308D00543003138A0116200317063073
:100818008D00453003138A011620031707308D0019
:10082800483003138A011620031708308D004F3013
:1008380003138A011620031709308D004D30031366
:100848008A01162003170A308D00003003138A012D
:10085800162003170B308D00013003138A01162070
:1008680003170C308D00003003138A01162003177C
:100878000D308D00013003138A01162003170E3046
:100888008D00003003138A0116208A012A230330C1
:10089800A300E8308A0127208A012A238A014A23F3
:1008A8008A012A238A012A2364006808003C8A11E5
:1008B8000319802C8A012A23640083162C08013C22
:1008C8008A118312031D732C8A012A238A01B720F7
:1008D8008A012A238316AC0183128A012A238A01FA
:1008E8002A238A01CD218A012A23E8018A012A23A1
:1008F8008A01CF2B8A012A238A012A2364008A11BC
:100908000719DB2B8A012A2305118A012A23613062
:10091800D0008A012A2383161630B50083128A0173
:100928002A238A0196228A012A23E8018A012A2396
:100938006400390883162E028A118312031DB72F0B
:100948008A012A2364003A08633C8A11031D002D9A
:100958008A012A2364003B083D3C8A11031DFC2CB4
:100968008A012A238316B101831264000B3083168F
:1009780031028A1183120318E02C8316310883127E
:1009880003178D000430831603133107A300A40155
:10099800A40D2308383E8400831200088316A300A0
:1009A800230883128A0116208A012A238316B10A92
:1009B8008A118312031DB92C8A012A2303170A30CE
:1009C8008D0003138A010C208316AE0083128A015E
:1009D8002A23FA308A0126208A012A238316013025
:1009E800AC0083128A012A238A1578208A012A23D7
:1009F8008A012A238A118F2F64003A086C3C8A11D5
:100A0800031D862E8A012A2383160330B100831220
:100A18008A012A238A158B208A012A2364008316D7
:100A28002D08013C8A118312031D822E8A012A2374
:100A380083163F08BD0083128A012A23640001300F
:100A480083163F028A118312031C802E8A012A23EF
:100A58006400033083163F028A11831203187E2E26
:100A68008A012A2364003C08633C8A11031DE02D97
:100A78008A012A2364003D086F3C8A11031D662DF4
:100A880083163D088312A600A7010230A200A30125
:100A98008A0184208316A300831225088316A400E4
:100AA8000930A3070318A40A2308831203178D002B
:100AB800003003138A0116208A012A238A15782018
:100AC8008A012A238A012A2364003D08663C8A1188
:100AD800031D902D83163D088312A600A70102303E
:100AE800A200A3018A0184208316A300831225088B
:100AF8008316A4000930A3070318A40A2308831245
:100B080003178D00013003138A0116208A012A2356
:100B18008A1578208A012A238A012A2364003D083D
:100B2800743C8A11031DDC2D8A012A2364003E08C7
:100B38003D3C8A11031DDA2D8A012A2383160730CA
:100B4800B10083128A012A238A158B208A012A235D
:100B5800640083162D08013C8A118312031DD82DC9
:100B680083163D088312A600A7010230A200A30144
:100B78008A0184208316A300831225088316A40003
:100B88000A30A3070318A40A2308831203178D0049
:100B9800831603133F0883128A0116208A012A2329
:100BA8008A1578208A012A238A012A238A012A237E
:100BB8008A012A238A117C2E64003C086F3C8A1122
:100BC800031D662E8A012A2364003D08663C8A11AB
:100BD800031D4A2E8A012A2383163D088312A60084
:100BE800A7010230A200A3018A0184208316A30072
:100BF800831225088316A4000A30A3070318A40A41
:100C08002308831203178D0003138A010C2083160F
:100C1800A300A4013D08A03E84002308831280009D
:100C28008A012A2383163D08A03E84008312000807
:100C38008316A30064002308013C8A118312031D54
:100C4800382E8A012A2364002830831636028A1136
:100C580083120318362E83163D08A03E84008312A3
:100C6800023080008A012A238A012A2383163D083C
:100C7800BF0083128A012A238A1578218A012A2330
:100C88008A1578208A012A238A11622E8A012A234A
:100C980083163D08BF0083128A012A238A1578210A
:100CA8008A012A2383163D08A03E8400831280010E
:100CB8008A012A238A1578208A012A238A012A236D
:100CC8008A117C2E64003C08663C8A11031D7C2E28
:100CD8008A012A2383163D08BF0083128A012A232A
:100CE8008A1597218A012A238A1578208A012A23BE
:100CF8008A012A238A012A238A012A238A012A238C
:100D08008A118F2F64003A08733C8A11031D792FCA
:100D18008A012A2383160330B10083128A012A2309
:100D28008A158B208A012A23640083162D08013C2A
:100D38008A118312031D752F8A012A2383163F08FF
:100D4800BD0083128A012A236400013083163F0202
:100D58008A118312031C732F8A012A23640003302B
:100D680083163F028A1183120318712F8A012A23DE
:100D78003330E8008A012A237C30E9008A012A23DB
:100D8800640083163D08013C8A118312031DD02E8E
:100D98000030051A0130EA008A012A23640083160C
:100DA8003D08023C8A118312031DDE2E0030851A8D
:100DB8000130EA008A012A233030EA078A012A230F
:100DC8007C30EB008A012A2383163D088312A60093
:100DD800A7010230A200A3018A0184208316A30080
:100DE800831225088316A4000930A3070318A40A50
:100DF8002308831203178D0003138A010C20EC00CB
:100E08008A012A233030EC078A012A237C30ED003E
:100E18008A012A2383163D088312A600A7010230FF
:100E2800A200A3018A0184208316A3008312250847
:100E38008316A4000A30A3070318A40A2308831200
:100E480003178D0003138A010C208316BF00831239
:100E58008A012A238A1542218A012A2383163B08FC
:100E68008312EE008A012A23831639088312EF00C1
:100E78008A012A23831637088312F0008A012A235D
:100E88007C30F1008A012A2383163D08A03E8400A5
:100E9800831200088316BF0083128A012A238A1549
:100EA80042218A012A2383163B088312F2008A0111
:100EB8002A23831639088312F3008A012A2383160A
:100EC80037088312F4008A012A230D30F5008A01BD
:100ED8002A230A30F6008A012A238A012A238A0152
:100EE8002A238A012A238A118F2F64003A08703C2A
:100EF8008A11031D8F2F8A012A2364003B086E3C48
:100F08008A11031D8D2F8A012A238A1578208A01C8
:100F18002A238A012A238A012A2364006808003CBC
:100F28008A11031DB52F8A012A234530E8008A015A
:100F38002A235230E9008A012A235230EA008A0122
:100F48002A234F30EB008A012A235230EC008A0111
:100F58002A230D30ED008A012A230A30EE008A0187
:100F68002A238A012A238A012A231730D0008A01DA
:100F78002A2383160130B50083128A012A238A01A5
:100F880096228A012A2339088316C20083128A010D
:100F98002A2364008A1183168310421C8314831247
:100FA8008318892C8A012A232730D0008A012A2312
:100FB8004030D1008A012A2383160130B5008312FC
:100FC8008A012A238A0179228A012A2302308A0186
:100FD80026208A012A238A01CF2B8A012A2363002B
:100FE8008A01F32F64008A150B1D76288316A90A37
:100FF8000319AA0A29088312A00083162A08831253
:10100800A100A3011F308A0155208A15031D7528E8
:101018008316A901AA01B60A64003B3036028A1574
:101028008312031C75288316B6010130B20083129F
:1010380064000730831632028A1583120318752854
:1010480083163208A03E8400831200088316A3008A
:101058006400013023028A158312031C6F2883164B
:101068003208A03E8400831200088316A300FF30D4
:101078002307A300FF300318013EA4003208A03E56
:10108800840023088312800083163208A03E84005F
:10109800831200088316A30064002308003C8A1505
:1010A8008312031D6F28640083163208013C8A15D9
:1010B8008312031D63280512831605128312640028
:1010C80083163208023C8A158312031D6F28851285
:1010D8008316851283128316B20A8A158312031D9A
:1010E8001C280B118B1709008A012A234F30E800AE
:1010F8008A012A234B30E9008A012A230D30EA00AD
:101108008A012A230A30EB008A012A2308008A016F
:101118002A238316AD0183128A012A23831661309C
:10112800BF0083128A012A238316AB01831264004D
:10113800033083162B028A158312031813298A0198
:101148002A2383166130B70083128A012A23831663
:101158003108383E8400831200088316B9008312D0
:101168008A012A236400831639087C3C8A15831275
:10117800031DBF2808008A012A238A1516218A011F
:101188002A23640083163708613C8A158312031DDD
:10119800CE2808008A012A23640083162B08003C05
:1011A8008A158312031DE8288A012A238316370823
:1011B800BF0083128A012A2383160130AD008312EF
:1011C8008A012A238A1506298A012A2383163F08B9
:1011D8008312A600A7010A30A200A3018A01842075
:1011E8008316A300831225088316A4002308370753
:1011F800BF0083128A012A2383160130AD008312AF
:101208008A012A238A012A238316B10A83128A01B2
:101218002A238316AB0A8A158312031D9B288A0189
:101228002A2308008A012A23FF30A200A20A2208E2
:10123800093C8A15031C3F298A152E218316390279
:101248008A158312031D1A2922088316B7008312F0
:101258008A153F2909308A002208353E03188A0A70
:101268008200303431343234333434343534363423
:101278003734383439348A012A2308008A012A236A
:1012880083163F088312A000A10102308A0147207B
:101298008316A300A40130302307BB0083128A0100
:1012A8002A2383163F088312A000A10101308A0176
:1012B80047208316A300A40130302307B900831206
:1012C8008A012A2383163F088312A000A101003057
:1012D8008A0147208316A300A40130302307B700F2
:1012E80083128A012A2308008A012A2364008316AC
:1012F8003F08013C8A158312031D862905168316AB
:10130800051283128A012A23640083163F08023CCF
:101318008A158312031D9429851683168512831254
:101328008A012A2308008A012A23640083163F08B9
:10133800013C8A158312031DA5290512831605127F
:1013480083128A012A23640083163F08023C8A1507
:101358008312031DB32985128316851283128A010D
:101368002A2308008A012A23031706308D00031355
:101378008A010C20D1008A012A23031707308D0027
:1013880003138A010C20D2008A012A23031708308C
:101398008D0003138A010C20D3008A012A23031726
:1013A80009308D0003138A010C20D4008A012A23F6
:1013B80083162E088312D5008A012A2308008A0181
:1013C8002A23031701308D0003138A010C20D10052
:1013D8008A012A23031702308D0003138A010C2087
:1013E800D2008A012A23031703308D0003138A01D0
:1013F8000C20D3008A012A23031704308D0003131D
:101408008A010C20D4008A012A23031705308D0095
:0E14180003138A010C20D5008A012A23080044
:02400E00CC3FA5
:104200002800520045004D004F0054004500480072
:0E4210004F004D000000010000000100000002
:00000001FF
