:020000009F2837
:10000800080083178001840AFF3E031D06289A28EA
:10001800031783168C010C1483120C0803178D0A1E
:100028009A28030103178C0083168C010C15553090
:100038008D00AA308D008C148C1820280C11831286
:100048008D0A9A28A301A200FF30A207031CA30768
:10005800031C9A280330A100E33034202828A1018A
:10006800F43EA000A109FE30031C3D28A007031898
:100078003A28A0076400A10F3A2800002018442855
:10008800201846280800013EA7000A30A200A30154
:100098006820A70B4C2824080800A301A2000230FE
:1000A8005828A20004305828A80023082102031D5C
:1000B8005F28220820020430031801300319023097
:1000C8002805031DFF309A28A501A4011030A600B9
:1000D800210DA40DA50D2208A4022308031C230F3B
:1000E800A50203187E282208A40723080318230F53
:1000F800A5070310A00DA10DA60B6C2820089A28AF
:100108001030A800A101A001A70CA60C031C92287E
:100118002208A00723080318230FA107A10CA00C8D
:10012800A50CA40CA80B882824089A288313031369
:100138008312640008008A11162BC8308A01262011
:100148009416141414128316141783128C11831620
:100158009413831205150A308A0126200511071009
:10016800FE01FF0108002A30D0008A11C927831632
:100178000530B00083128A1179222130D000013075
:10018800D10083160130B00083128A1179222230FF
:10019800D0000130D10083160130B00083128A11DB
:1001A80079222530D00003178D0103138A010C2012
:1001B800D10083160130B00083128A1179223130C0
:1001C800D0001630D10083160130B00083128A1196
:1001D80079222630D0000730D10083160130B000D4
:1001E80083128A11792283160130BC0083128A1186
:1001F8008A218316BC014030B3004B30B500013072
:10020800B700E230B90083128A11B1218316013098
:10021800BC00C030B3004B30B500B701B901831240
:100228008A11B12183160230BC00D030B300FC30F3
:10023800B5008C30B7000230B90083128A11B121A1
:1002480083160330BC009930B300B5013930B700CC
:100258004130B90083128A11B12183160430BC00E1
:10026800D930B3009630B5008230B7001B30B900E2
:1002780083128A11B12183160530BC002430B300E3
:100288000230B5007F30B700A630B90083128A115A
:10029800B12183160C30BC00B3011230B5007330A5
:1002A800B700B90183128A11B12183160D30BC0041
:1002B8004630B300B430B5008030B700B9018312BE
:1002C8008A11B1212E30D0004130D1002030D20027
:1002D8000830D3000430D4008130D5002030D60057
:1002E800CF30D700F730D800FE30D900FF30DA0021
:1002F800FF30DB0083160B30B00083128A1179229D
:100308008316BC0183128A118A2108000730D000A5
:1003180083160130B00083128A1196228030380586
:100328008316A000A10120088312A00083162108CB
:100338008312A10083163C0883128A0151208A1176
:10034800031DB0295030D0005330D100831601303E
:10035800B00083128A1179220800203083163C07E6
:100368008312D000831633088312D1008316350810
:100378008312D200831637088312D30083163908F4
:100388008312D40083160430B00083128A117922B4
:1003980008001E308A0126208A116622E130D0002A
:1003A8008316B00183128A1179222730D0003030A9
:1003B800D10083160130B00083128A1179228A1184
:1003C800F722A030D000831629088312D1008316A3
:1003D8000230BE0083126400183083163E028A1170
:1003E80083120318212AFE3083163E07A000FF302F
:1003F8000318013EA1002008683E8400831200080B
:100408008316A0003E08503E840020088312800016
:1004180083163E08503E8400831200088316A0000D
:10042800640020080A3C8A1183120319212A8316C2
:10043800BE0A8A118312031DEF2983161630B000F5
:1004480083128A1179220130A100F4308A01342004
:1004580005150130A100F4308A013420051101305E
:100468008A01262064008A110719362A0730D0002D
:1004780083160130B00083128A1196227030380535
:100488008316BD0064003D08103C8A118312031DC9
:100498004F2A8A11BB22640083163D08303C8A111A
:1004A8008312031D592A8A11CD222730D00020300B
:1004B800D10083160130B00083128A1179228A1183
:1004C8006622080005110130A100F4308A013420A9
:1004D80005150130A100F4308A01342005110130DE
:1004E800A100F4308A013420080007108316BE01E9
:1004F8008312640083163E0830028A118312031C9B
:10050800942A83163E08503E840083120008930004
:100518008A11B5228316BE0A8A118312031D7D2A09
:100528000714080007108316BE018312640083169F
:100538003E0830028A118312031CB32A5008930024
:100548008A11B52283163E08383E840083121308A8
:1005580080008316BE0A8A118312031D9A2A071483
:10056800080064008A118C1DB52A8C110800E1303E
:10057800D0008316B00183128A0179222730D00077
:100588001030D10083160130B00083128A0179221D
:100598000800E130D0008316B00183128A01792265
:1005A8002730D0003030D10083160130B0008312DC
:1005B8008A01792208008A0166222030D0000F3093
:1005C800D10083160130B00083128A017922080015
:1005D8002030D0000D30D10083160130B0008312D6
:1005E8008A01792208003030D0008A11F627831654
:1005F8000530B00083128A0179222430D0003530CA
:10060800D10083160130B00083128A01792220308C
:10061800D0000E30D10083160130B00083128A0159
:1006280079220800831670308F00831203179E0109
:100638009F0199019A010313A0308B0083168C0146
:10064800073081008B1783128A112E2B8B1B080011
:100658008A118F2E8A012A238316850183128A0123
:100668002A2383161030860083128A012A238316D0
:100678000430870083128A012A2383169501831286
:100688008A012A2303172030950003138A012A239D
:100698002030840060308A010620A0308400503069
:1006A8008A0106202030840050308A0105208A0102
:1006B8002A238316861683128A012A238316051293
:1006C80083128A012A2303170A308D0003138A0133
:1006D8000C208316A90083128A012A2303170B30E2
:1006E8008D0003138A010C208316BA0083128A0135
:1006F8002A23640083163A08003C8A118312031DDA
:100708008F2B8A012A2305168316051283128A0164
:100718002A238A11972B8A012A2305128316051288
:1007280083128A012A238A012A238A01A1208A01A5
:100738002A238A01B7208A012A238A01DF228A0113
:100748002A2302308A0126208A012A2305158A01D4
:100758002A2364008A11861A182C03178D01283061
:1007680003138A011620031701308D00523003133A
:100778008A011620031702308D00453003138A01C1
:100788001620031703308D004D3003138A011620FD
:10079800031704308D004F3003138A011620031706
:1007A80005308D00543003138A01162003170630D4
:1007B8008D00453003138A011620031707308D007A
:1007C800483003138A011620031708308D004F3074
:1007D80003138A011620031709308D004D300313C7
:1007E8008A01162003170A308D00003003138A018E
:1007F800162003170B308D00013003138A011620D1
:1008080003170C308D00003003138A0116208A016B
:100818002A230330A300E8308A0127208A012A23EB
:100828008A014A2B8A012A238A012A23640068083C
:10083800003C8A110319422C8A012A23640083167A
:100848002708013C8A118312031D352C8A012A23AB
:100858008A01B7208A012A238316A70183128A01F5
:100868002A238A012A238A01CD218A012A23E80121
:100878008A012A238A019F2B8A012A238A012A2393
:1008880064008A110719AB2B8A012A2305118A01F2
:100898002A236130D0008A012A2383161630B0003B
:1008A80083128A012A238A0196228A012A23E801CF
:1008B8008A012A2364003908831629028A118312BF
:1008C800031D502E8A012A2364003A08633C8A11CA
:1008D800031DC22C8A012A2364003B083D3C8A116F
:1008E800031DBE2C8A012A238316AC0183126400DF
:1008F8000B3083162C028A1183120318A22C83163C
:100908002C08831203178D000430831603132C0759
:10091800A000A101A10D2008383E84008312000820
:100928008316A000200883128A0116208A012A2330
:100938008316AC0A8A118312031D7B2C8A012A2391
:1009480003170A308D0003138A010C208316A900AF
:1009580083128A012A23FA308A0126208A012A234F
:1009680083160130A70083128A012A238A11C92617
:100978008A012A238A012A238A11282E64003A0828
:100988006C3C8A11031D9C2D8A012A2364003B08B4
:10099800313C8A11031D982D8A012A2364003C08E2
:1009A800633C8A11031D3D2D8A012A2364003D08FA
:1009B8006F3C8A11031DED2C03170B308D0000309E
:1009C80003138A0116208A012A238A11C9268A015B
:1009D8002A238A012A2364003D08663C8A11031DE4
:1009E800022D03170B308D00013003138A011620E6
:1009F8008A012A238A11C9268A012A238A012A23DD
:100A080064003D08743C8A11031D392D8A012A238C
:100A180064003E083D3C8A11031D372D8A012A23B4
:100A280083160730AC0083128A012A238A11DC2638
:100A38008A012A23640083162808013C8A1183123C
:100A4800031D352D03170C308D00831603133A0848
:100A580083128A0116208A012A238A11C9268A014B
:100A68002A238A012A238A012A238A012A238A110E
:100A7800962D64003C086F3C8A11031D842D8A0161
:100A88002A2364003D08663C8A11031D6F2D8A01E4
:100A98002A238316B10183128A012A238316A4010B
:100AA800A50183128A012A2303170C308D00031332
:100AB8008A010C208316AF0083128A012A230516A7
:100AC8008316051283128A012A238A11C9268A01EC
:100AD8002A238A11802D8A012A23051683160512D6
:100AE80083128A012A238316AF0183128A012A23DB
:100AF8008A11C9268A012A238A012A238A11962D56
:100B080064003C08663C8A11031D962D8A012A233D
:100B180005128316051283128A012A238A11C9260F
:100B28008A012A238A012A238A012A238A11282E44
:100B380064003A08733C8A11031D122E8A012A2385
:100B48003330E8008A012A237C30E9008A012A230D
:100B58003030051A013EEA008A012A237C30EB0076
:100B68008A012A2303170B308D0003138A010C20F6
:100B7800EC008A012A233030EC078A012A237C30D2
:100B8800ED008A012A2303170C308D0003138A0114
:100B98000C208316BA0083128A012A238A1193270C
:100BA8008A012A23831636088312EE008A012A2333
:100BB800831634088312EF008A012A238316320829
:100BC8008312F0008A012A237C30F1008A012A234B
:100BD80083162F08BA0083128A012A238A119327C1
:100BE8008A012A23831636088312F2008A012A23EF
:100BF800831634088312F3008A012A2383163208E5
:100C08008312F4008A012A230D30F5008A012A2371
:100C18000A30F6008A012A238A11282E64003A082D
:100C2800703C8A11031D282E8A012A2364003B0880
:100C38006E3C8A11031D262E8A012A238A11C92691
:100C48008A012A238A012A238A012A236400680840
:100C5800003C8A11031D4E2E8A012A234530E800E4
:100C68008A012A235230E9008A012A235230EA00F5
:100C78008A012A234F30EB008A012A235230EC00E4
:100C88008A012A230D30ED008A012A230A30EE005A
:100C98008A012A238A012A238A012A231730D000AD
:100CA8008A012A2383160130B00083128A012A237D
:100CB8008A0196228A012A2339088316BD008312E5
:100CC8008A012A2364008A11831683103D1C831429
:100CD800831283184B2C8A012A232730D0008A01DB
:100CE8002A234030D1008A012A2383160130B0001C
:100CF80083128A012A238A0179228A012A2302304F
:100D08008A0126208A012A238A019F2B8A012A2305
:100D180063008A018C2E64008A110B1DC72E83166E
:100D2800A40A0319A50A24088312A000831625081B
:100D38008312A100A3011F308A0155208A11031DC7
:100D4800C62E8316A401A501B10A64003B30310206
:100D58008A118312031CC62E8316B1016400013068
:100D68002F028A118312031CC62E8316AF03640058
:100D78002F08003C8A118312031DC62E0512831604
:100D8800051283120B118B1709008A012A234F3091
:100D9800E8008A012A234B30E9008A012A230D3012
:100DA800EA008A012A230A30EB008A012A23080074
:100DB8008A012A238316A80183128A012A2383160B
:100DC8006130BA0083128A012A238316A60183128E
:100DD80064000330831626028A1183120318642FD5
:100DE8008A012A2383166130B20083128A012A23DA
:100DF80083162C08383E8400831200088316B4003A
:100E080083128A012A236400831634087C3C8A11E1
:100E18008312031D102F08008A012A238A116727CD
:100E28008A012A23640083163208613C8A118312DE
:100E3800031D1F2F08008A012A2364008316260831
:100E4800003C8A118312031D392F8A012A23831635
:100E58003208BA0083128A012A2383160130A800B7
:100E680083128A012A238A11572F8A012A2383167B
:100E78003A088312A600A7010A30A200A3018A013A
:100E880084208316A000831225088316A100200859
:100E98003207BA0083128A012A2383160130A80078
:100EA80083128A012A238A012A238316AC0A831211
:100EB8008A012A238316A60A8A118312031DEC2E9F
:100EC8008A012A2308008A012A23FF30A200A20AE5
:100ED8002208093C8A11031C902F8A117F27831648
:100EE80034028A118312031D6B2F22088316B20065
:100EF80083128A11902F07308A002208863E031831
:100F08008A0A82003034313432343334343435345C
:100F180036343734383439348A012A2308008A01B0
:100F28002A2383163A088312A000A10102308A01FD
:100F380047208316A000A10130302007B600831295
:100F48008A012A2383163A088312A000A1010130DE
:100F58008A0147208316A000A10130302007B40081
:100F680083128A012A2383163A088312A000A1015A
:100F780000308A0147208316A000A10130302007E5
:100F8800B20083128A012A2308008A012A23031740
:100F980006308D0003138A010C20D1008A012A2310
:100FA800031707308D0003138A010C20D2008A0131
:100FB8002A23031708308D0003138A010C20D3005D
:100FC8008A012A23031709308D0003138A010C2094
:100FD800D4008A012A23831629088312D5008A019E
:100FE8002A2308008A012A23031701308D000313DE
:100FF8008A010C20D1008A012A23031702308D00B0
:1010080003138A010C20D2008A012A230317033014
:101018008D0003138A010C20D3008A012A230317A9
:1010280004308D0003138A010C20D4008A012A237E
:10103800031705308D0003138A010C20D5008A019F
:041048002A2308004F
:02400E00CC3FA5
:104200002800520045004D004F0054004500480072
:104210004F004D0000000100000000000000000001
:00000001FF
