:020000002729AE
:100008000800083033190130A300A2013608840023
:100018003408492034088004222122218413000551
:10002800FF3E331DA20C3319A20D32309320A30BCF
:100038000C28220803142229A200083033190130A1
:10004800A300A20C36088400340849203408031899
:1000580080043730932034088004A30B2528031428
:100068002229B31C22293B28B300331C2229360835
:100078008400340849200130A100E030942034087D
:1000880080040130A100E0309428FF3A80054C2814
:100098008417800522290F39A0000310A00DA00D98
:1000A8001F08C039200401389F000030A1003230F9
:1000B80094209F149F185E281E08A10083161E080E
:1000C800222983178001840AFF3E031D66282229FE
:1000D800031783168C010C1483120C0803178D0A5E
:1000E8002229030103178C0083168C010C15553047
:1000F8008D00AA308D008C148C1880280C11831266
:100108008D0A2229A301A200FF30A207031CA3071E
:10011800031C22290330A100E33094208828A10180
:10012800F43EA000A109FE30031C9D28A007031877
:100138009A28A0076400A10F9A2800002018A42874
:100148002018A6280800A701A6001C30A2006F30BE
:10015800A3000C210F30831681048312FF30630043
:10016800A007031CA1070318B3282229013EA700F2
:100178000A30A200A301F020A70BBF28240808001A
:100188000310A10CA00CFF3E0318C4282008222944
:10019800A301A2000230D228A2000530A80023083B
:1001A8002102031DD9282208200204300318013037
:1001B800031902302805031DFF302229A200200858
:1001C800A6002408A0002608A4002108A6002508E7
:1001D800A1002608A500F228A501A4011030A60058
:1001E800210DA40DA50D2208A4022308031C230F2A
:1001F800A502031806292208A40723080318230FB9
:10020800A5070310A00DA10DA60BF428200822298C
:100218001030A800A101A001A70CA60C031C1A29E4
:100228002208A00723080318230FA107A10CA00C7C
:10023800A50CA40CA80B1029240822298313031346
:100248008312640008008A11BE2BC8308A018620F8
:100258009416141414128316141783128C1183160F
:100268009413831205150A308A0186200511071098
:100278008316A001A101831208002A30D0008A1534
:100288009C2283160530B90083128A111F2321305E
:10029800D0000130D10083160130B90083128A11D1
:1002A8001F232230D0000130D10083160130B9005D
:1002B80083128A111F232530D00003178D010313E1
:1002C8008A016C20D10083160130B90083128A118B
:1002D8001F233130D0001630D10083160130B90009
:1002E80083128A111F232630D0003730D10083169D
:1002F8000130B90083128A111F2383160130C70009
:1003080083128A1130228316C7014030BF004B3058
:10031800C1000130C300E230C40083128A115722A1
:1003280083160130C700C030BF004B30C100C30185
:10033800C40183128A11572283160230C700D030B5
:10034800BF00FC30C1008C30C3000230C4008312EF
:100358008A11572283160330C7009930BF00C101A4
:100368003930C3004130C40083128A1157228316E2
:100378000430C700B930BF009E30C1008630C300CA
:100388000B30C40083128A11572283160530C70028
:100398002430BF000630C1007F30C300A630C4003F
:1003A80083128A11572283160630B700831264001D
:1003B8000C30831637028A1183120318F329831627
:1003C8003708C700BF01C101C301C40183128A11E4
:1003D80057228316B70A8A118312031DDB29831655
:1003E8000C30C700BF011230C1007330C300C40114
:1003F80083128A11572283160D30C7003630BF008A
:10040800B430C1008030C300C40183128A1157225E
:100418002E30D0004130D1002030D2000830D30037
:100428000430D4008130D5002030D600CF30D7003A
:10043800F730D800FE30D900FF30DA00FF30DB009B
:1004480083160B30B90083128A111F238316C70144
:1004580083128A11302208000730D0008316013039
:10046800B90083128A113C23803038058316A40012
:10047800A50124088312A000831625088312A10071
:100488008316470883128A01CC208A11031D562A35
:100498005030D0005330D10083160130B900831298
:1004A8008A111F2308002030831647078312D000C3
:1004B80083163F088312D100831641088312D200A5
:1004C800831643088312D300831644088312D4008A
:1004D80083160430B90083128A111F2308001E30C6
:1004E8008A0186208A110C23E130D0008316B901D5
:1004F80083128A111F232730D0003030D100831691
:100508000130B90083128A111F238A119F23A0305A
:10051800D000831631088312D10083160230CA0036
:1005280083126400183083164A028A118312031852
:10053800C72AFE3083164A07A400FF300318013E7D
:10054800A5002408683E8400831200088316A400CE
:100558004A08503E840024088312800083164A0803
:10056800503E8400831200088316A4006400240807
:100578000A3C8A1183120319C72A8316CA0A8A11E8
:100588008312031D952A83161630B90083128A1127
:100598001F230130A100F4308A0194200515013091
:1005A800A100F4308A019420051101308A018620C7
:1005B80064008A110719DC2A0730D000831601303D
:1005C800B90083128A113C23703038058316C9009C
:1005D80064004908103C8A118312031DF52A8A1108
:1005E8006123640083164908303C8A118312031D75
:1005F800FF2A8A1173232730D0002030D1008316B8
:100608000130B90083128A111F238A110C230800B4
:1006180005110130A100F4308A019420051501303C
:10062800A100F4308A01942005110130A100F430B2
:100638008A019420080007108316CA0183126400F7
:1006480083164A0839028A118312031C3A2B83162F
:100658004A08503E84008312000893008A115B23E5
:100668008316CA0A8A118312031D232B0714080054
:1006780007108316CA018312640083164A083902D8
:100688008A118312031C592B500893008A115B238B
:1006980083164A08383E84008312130880008316A4
:1006A800CA0A8A118312031D402B0714080064002C
:1006B8008A118C1D5B2B8C110800E130D000831649
:1006C800B90183128A011F232730D0001030D100CE
:1006D80083160130B90083128A011F230800E13014
:1006E800D0008316B90183128A011F232730D00056
:1006F8003030D10083160130B90083128A011F23DC
:1007080008008A010C232030D0000F30D100831656
:100718000130B90083128A011F238A010C230800C3
:100728002030D0000D30D10083160130B90083127B
:100738008A011F2308003030D0008A15C922831689
:100748000530B90083128A011F232430D0003530C8
:10075800D10083160130B90083128A011F2320308B
:10076800D0000E30D10083160130B90083128A01FF
:100778001F2308009F171F10831670308F008312E5
:1007880003179E019F0199019A010313A8308B005A
:1007980083168C01073081008B1783128A11D82B9E
:1007A8008B1B08008A11002F8A01D423831630304E
:1007B800850083128A01D4238316103086008312A1
:1007C8008A01D42383160430870083128A01D42334
:1007D8008316FF30950083128A01D4230317FF3054
:1007E800950003138A01D4238316161683128A01EF
:1007F800D4232030840060308A016620A030840031
:1008080050308A0166202030840050308A016520EB
:100818008A01D42303170A308D0003138A016C2040
:100828008316B10083128A01D4238A0129218A01FF
:10083800D42303170B308D0003138A016C20831611
:10084800C50083128A01D423831645088312A600A3
:10085800A7010A30A200A3018A010C218316A20075
:10086800831225088316A30083128A01D4238316D2
:1008780022088312A000831623088312A100A30173
:1008880000308A01CD208A11031D622C8A01D423ED
:10089800640083163108003C8A1183120319602C06
:1008A8008A01D42383160130BD0083128A01D42320
:1008B8008A153F208A01D4238A01D4238A01D423AC
:1008C80087128316871283128A01D4238A01412151
:1008D8008A01D4238A0185238A01D42302308A011C
:1008E80086208A01D42305158A01D423640083163F
:1008F8003B08013C8A118312031DE72C8A01D4238B
:100908008316BB01831203178D01283003138A0154
:100918007620031701308D00523003138A017620A8
:10092800031702308D00453003138A017620031720
:1009380003308D004D3003138A01762003170430ED
:100948008D004F3003138A017620031705308D0080
:10095800543003138A017620031706308D00453082
:1009680003138A017620031707308D0048300313DC
:100978008A017620031708308D004F3003138A014F
:100988007620031709308D004D3003138A01762035
:1009980003170A308D00003003138A0176200317ED
:1009A8000B308D00013003138A0176208A01D4238D
:1009B8000330A300E8308A0187208A01D4238A0102
:1009C800FB2B8A01D4238A01D42364006808003CE5
:1009D8008A110319112D8A01D423640083162F0864
:1009E800013C8A118312031D042D8A01D4238A0134
:1009F80041218A01D4238316AF0183128A01D423AB
:100A08008A01D4238A0173228A01D423E8018A0146
:100A1800D4238A016C2C8A01D4238A01D42364004C
:100A280083163D08013C8A118312031D542D8A0147
:100A3800D4238A0194238A01D4238316230883129A
:100A4800A7008316220883128A01A8208A01D423CA
:100A580001308A0186208A01D42383163930BC00EC
:100A680083128A01D42383161930C80083128A019D
:100A7800D4238316BD0183128A01D423A8308B00A6
:100A88008A01D42383160730810083128A01D42374
:100A98008A153F208A01D4238A01682C8A01D4232D
:100AA8008A01D42364008A110719782C8A01D42377
:100AB80005118A01D4236130D0008A01D42383161A
:100AC8001630B90083128A01D4238A013C238A0193
:100AD800D423E8018A01D42364003908831631023B
:100AE8008A118312031DC12E8A01D42364003A0897
:100AF800633C8A11031DF52D8A01D42364003B0849
:100B08003D3C8A11031DF12D8A01D4238316B501BA
:100B1800831264000B30831635028A11831203187E
:100B2800B42D83163508831203178D0004308316FD
:100B380003133507A400A501A50D2408383E840039
:100B4800831200088316A400240883128A017620E1
:100B58008A01D4238316B50A8A118312031D8D2DA9
:100B68008A01D42303170A308D0003138A016C20ED
:100B78008316B10083128A01D423FA308A018620B1
:100B88008A01D42383160130AF0083128A01D4234B
:100B9800A001A101831623088312A300831622084B
:100BA80083128A01D0208A11031DE32D8A01D423E0
:100BB8008316BD0183128A01D4238A11EB2D8A0181
:100BC800D42383160130BD0083128A01D4238A01FD
:100BD800D4238A113F278A01D4238A01D4238A1176
:100BE800992E64003A086D3C8A11031D752E8A01FE
:100BF800D42364003B083D3C8A11031D712E8A01F1
:100C0800D42383160430B50083128A01D4238A11B1
:100C180052278A01D423640083163008013C8A11C4
:100C28008312031D6F2E03170B308D0083160313D9
:100C3800450883128A0176208A01D4238316450841
:100C48008312A600A7010A30A200A3018A010C2181
:100C58008316A200831225088316A30083128A0133
:100C6800D423A001A101831623088312A3008316AD
:100C7800220883128A01D0208A11031D4C2E8A0172
:100C8800D4238316BD0183128A01D4238A11692EC5
:100C98008A01D423640083163108003C8A11831228
:100CA8000319602E8A01D42383160130BD008312F4
:100CB8008A01D4238A11672E8A01D4238316BD01A1
:100CC80083128A01D4238A01D4238A01D4238A1166
:100CD8003F278A01D4238A01D4238A01D4238A1185
:100CE800992E64003A08733C8A11031D832E8A01E9
:100CF800D4238A153F208A01D4238A11992E6400AF
:100D08003A08703C8A11031D992E8A01D423640085
:100D18003B086E3C8A11031D972E8A01D4238A1141
:100D28003F278A01D4238A01D4238A01D42364006B
:100D38006808003C8A11031DBF2E8A01D423453060
:100D4800E8008A01D4235230E9008A01D4235230C2
:100D5800EA008A01D4234F30EB008A01D4235230B1
:100D6800EC008A01D4230D30ED008A01D4230A3027
:100D7800EE008A01D4238A01D4238A01D4231730B0
:100D8800D0008A01D42383160130B90083128A0166
:100D9800D4238A013C238A01D42339088316C90045
:100DA80083128A01D42364008A1183168310491C94
:100DB8008314831283185D2D8A01D4232730D00031
:100DC8008A01D4234030D1008A01D423831601300C
:100DD800B90083128A01D4238A011F238A01D423EC
:100DE80002308A0186208A01D4238A016C2C8A0168
:100DF800D42363008A01FD2E64008A110B1D342F51
:100E08008316C80A64001F3048028A118312031C23
:100E1800332F8316C801BC0A64003B303C028A1198
:100E28008312031C332F8316BC0122088312A000EF
:100E3800831623088312A100A30100308A01CD2064
:100E48008A11031D332F640083163108003C8A1170
:100E580083120319332F83160130BD0083120B113F
:100E680064008A110B1C3D2F0B1083160130BB0048
:100E780083128B1709008A01D4234F30E8008A01B6
:100E8800D4234B30E9008A01D4230D30EA008A01CB
:100E9800D4230A30EB008A01D42308008A01D42322
:100EA8008316B00183128A01D42383166130C500EA
:100EB80083128A01D4238316AE018312640003309F
:100EC80083162E028A1183120318DA2F8A01D4237B
:100ED80083166130BE0083128A01D4238316350835
:100EE800383E8400831200088316C00083128A01EA
:100EF800D4236400831640087C3C8A118312031DA6
:100F0800862F08008A01D4238A11DD278A01D42379
:100F1800640083163E08613C8A118312031D952FD5
:100F280008008A01D423640083162E08003C8A1125
:100F38008312031DAF2F8A01D42383163E08C500F0
:100F480083128A01D42383160130B00083128A01E8
:100F5800D4238A11CD2F8A01D423831645088312FE
:100F6800A600A7010A30A200A3018A010C2183165A
:100F7800A400831225088316A50024083E07C5008F
:100F880083128A01D42383160130B00083128A01A8
:100F9800D4238A01D4238316B50A83128A01D42361
:100FA8008316AE0A8A118312031D622F8A01D42385
:100FB80008008A01D423FF30A200A20A2208093CB3
:100FC8008A15031C06288A11F527831640028A1100
:100FD8008312031DE12F22088316BE0083128A158F
:100FE800062807308A002208FC3E03188A0A820075
:100FF80030343134323433343434353436343734AD
:10100800383439348A01D42308008A01D42383165A
:1010180045088312A000A10102308A01BA20831674
:10102800A400A50130302407C20083128A01D4230A
:10103800831645088312A000A10101308A01BA2055
:101048008316A400A50130302407C00083128A014A
:10105800D423831645088312A000A10100308A0119
:10106800BA208316A400A50130302407BE008312DD
:101078008A01D42308008A01D4238716831687128D
:1010880083128A01D42332308A0186208A01D4232C
:101098000530B6002030B40001308A013820CC3049
:1010A8008A01202044308A0120208A0135208A01C3
:1010B800D4230530B6002030B40004308A0138202B
:1010C8008A0105208316013903193A10031D3A14C1
:1010D80083128A0135208A01D42364008A15831675
:1010E80083103A188314831283187C288A155B2886
:1010F8008A01D4230530B6002030B40001308A01BB
:101108003820CC308A012020BE308A0120208A0174
:1011180035208A01D4230530B6002030B4000230CF
:101128008A0138208A0105208316AA0083128A01C1
:1011380005208316AB0083128A0135208A01D42347
:1011480087128316871283128A01D4233230E8006B
:101158008A01D4237C30E9008A01D42364008A15EB
:1011680083168310AB1D8314831283183C298A01CC
:10117800D4232D30EA0083162A09A4002B09A500E0
:10118800A40A0319A50A83127130A6000230A70029
:10119800831624088312A200831625088312A3004D
:1011A8008A010C218316B2008312A3010A308A0136
:1011B800E2208316A800831221088316A90083124F
:1011C8008A01D423831628088312A00083162908CD
:1011D8008312A10004308A01BA208316A400A50155
:1011E800303024078312EB008A01D42383162808A1
:1011F8008312A000831629088312A10003308A01F4
:10120800BA208316A400A501303024078312EC000D
:101218008A01D4232E30ED008A01D42383162808AE
:101228008312A000831629088312A10002308A01C4
:10123800BA208316A400A501303024078312EE00DB
:101248008A01D423831628088312A000831629084C
:101258008312A10001308A01BA208316A400A501D7
:10126800303024078312EF008A01D4238A15DB2942
:101278008A01D4232B30EA007130A6000230A7007F
:1012880083162A088312A20083162B088312A30050
:101298008A010C218316B2008312A3010A308A0145
:1012A800E2208316A800831221088316A90083125E
:1012B8008A01D4238316F0302A05A4000F302B05A9
:1012C800A50024088312A000831625088312A10014
:1012D80004308A01C7208316A800831221088316C8
:1012E800A90083128A01D4230F3083162A05A4008B
:1012F800A50124088312A600831625088312A700D7
:101308007130A2000230A3008A010C21FE002508DA
:10131800FF008A01D423831628088312A0008316AD
:1013280029088312A10001308A01BA208316A4007B
:10133800A501303024078312EB008A01D4238316D9
:1013480028088312A000831629088312A100003000
:101358008A01BA208316A400A5013030240783121D
:10136800EC008A01D4232E30ED008A01D4237E08B4
:10137800A0007F08A10003308A01BA208316A400C8
:10138800A501303024078312EE008A01D4237E0899
:10139800A0007F08A10002308A01BA208316A400A9
:1013A800A501303024078312EF008A01D4238A0173
:1013B800D4230317181603138A01D423C8308A01CB
:1013C80093208A01D4230D308A014F208316A6006A
:1013D800831221088316A70083128A01D4230317D6
:1013E800181203138A01D423FA30A0001730A10081
:1013F800831626088312A200831627088312A300E7
:101408008A01F0208316AC00831221088316AD00F0
:1014180083128A01D4237C30F0008A01D4238316F6
:101428002C088312A00083162D088312A100013016
:101438008A01BA208316A400A5013030240783123C
:10144800F1008A01D4232E30F2008A01D4238316B6
:101458002C088312A00083162D088312A1000030E7
:101468008A01BA208316A400A5013030240783120C
:10147800F3008A01D4237C30F4008A01D423831634
:1014880022088312A000831623088312A1000330C8
:101498008A01BA208316A400A501303024078312DC
:1014A800F5008A01D423831622088312A00083162C
:1014B80023088312A10002308A01BA208316A400EF
:1014C800A501303024078312F6008A01D42383163D
:1014D80022088312A000831623088312A10001307A
:1014E8008A01BA208316A400A5013030240783128C
:1014F800F7008A01D423831622088312A0008316DA
:1015080023088312A10000308A01BA208316A400A0
:10151800A501303024078312F8008A01D4230D3046
:10152800F9008A01D4230A30FA008A01D42308007A
:101538008A01D423031706308D0003138A016C2017
:10154800D1008A01D423031707308D0003138A01C1
:101558006C20D2008A01D423031708308D000313AE
:101568008A016C20D3008A01D423031709308D0027
:1015780003138A016C20D4008A01D423831631080E
:101588008312D5008A01D42308008A01D4230317C3
:1015980001308D0003138A016C20D1008A01D42305
:1015A800031702308D0003138A016C20D2008A01D0
:1015B800D423031703308D0003138A016C20D30052
:1015C8008A01D423031704308D0003138A016C2089
:1015D800D4008A01D423031705308D0003138A0130
:0A15E8006C20D5008A01D42308000E
:02400E00FC3C78
:104200002800520045004D004F0054004500480072
:104210004F004D0000000100000000000000000001
:00000001FF
