:020000003029A5
:100008000800083037190130A300A2013A0884001B
:1000180038084920380880042B212F218413000533
:10002800FF3E371DA20C3719A20D32309520A30BC5
:100038000C28220803142B29A20008303719013094
:10004800A300A20C3A08840038084920380803188D
:1000580080043C30952038088004A30B252803141D
:100068002B29B71C2B293B28B700371C2B293A080A
:100078008400380849200130A100F430962038085F
:1000880080040130A100F4309628FF3A80054C28FE
:10009800841780052B290F39A00083161F088F3974
:1000A80030389F0083120310A00DA00D1F08C1391E
:1000B800200401389F000030A100323096209F14A0
:1000C8009F1864281E08A10083161E082B29831771
:1000D8008001840AFF3E031D6C282B2903178D001D
:1000E80083168C130C1483120C082B2903178C000D
:1000F80083168C130C1555308D00AA308D008C1486
:100108008C1884280C112B29A301A200FF30A20708
:10011800031CA307031C2B290330A100E3309620FE
:100128008A28A101F43EA000A109FE30031C9F28E3
:10013800A00703189C28A0076400A10F9C280000B2
:100148002018A6282018A8280800A701A6001C30F7
:10015800A2006F30A30015210F308316810483128B
:10016800FF306300A007031CA1070318B5282B293B
:10017800013EA7000A30A200A301F920A70BC1285D
:10018800240808000310A10CA00CFF3E0318C62881
:1001980020082B29A301A2000230DB28A301A2001A
:1001A8000330DB28A2000630DB28A2000530A800B7
:1001B80023082102031DE228220820020430031824
:1001C8000130031902302805031DFF302B29A20036
:1001D8002008A6002408A0002608A4002108A600DC
:1001E8002508A1002608A500FB28A501A4011030B8
:1001F800A600210DA40DA50D2208A4022308031CA6
:10020800230FA50203180F292208A407230803189F
:10021800230FA5070310A00DA10DA60BFD2820088C
:100228002B291030A800A101A001A70CA60C031CC3
:1002380023292208A00723080318230FA107A10CCC
:10024800A00CA50CA40CA80B192924082B2983138E
:1002580003138312640008008A119F2BC8308A0197
:1002680088209416141414128316141783128C11F0
:1002780083169413831205150A308A018820051104
:100288000710FE01FF0108002A30D4008A15F7265E
:1002980083160530CF0083128A1102232130D4003F
:1002A8000130D50083160130CF0083128A11022352
:1002B8002230D4000130D50083160130CF008312DC
:1002C8008A1102232530D40000308A017220D5001B
:1002D80083160130CF0083128A1102233130D400F3
:1002E8001630D50083160130CF0083128A110223FD
:1002F8002630D4000730D50083160130CF00831292
:100308008A11022383160130DC0083128A11192214
:100318008316DC014030D4004B30D6000130D800C1
:10032800E230D90083128A113C2283160130DC00A6
:10033800C030D4004B30D600D801D90183128A11BD
:100348003C2283160230DC00D030D400FC30D600CA
:100358008C30D8000230D90083128A113C228316CF
:100368000330DC009930D400D6013930D800413050
:10037800D90083128A113C2283160430DC00D9305C
:10038800D400B630D6008230D8001B30D900831292
:100398008A113C2283160530DC002830D400023054
:1003A800D6007F30D800A630D90083128A113C22AB
:1003B80083160C30DC00D4011230D6007330D8001C
:1003C800D90183128A113C2283160D30DC00463095
:1003D800D400B430D6008030D800D90183128A11F5
:1003E8003C222E30D4004130D5002030D6000830D1
:1003F800D7000430D8008130D9002030DA00CF305F
:10040800DB00F730DC00FE30DD00FF30DE00FF30BF
:10041800DF0083160B30CF0083128A110223831664
:10042800DC0183128A11192208000730D4008316D0
:100438000130CF0083128A111F2380303C05B2009F
:10044800B3013208A0003308A10083165C088312A8
:100458008A01CE208A11031D3B2A5030D400533024
:10046800D50083160130CF0083128A1102230800B9
:10047800203083165C078312D40083165408831235
:10048800D500831656088312D6008316580883129F
:10049800D700831659088312D80083160430CF007A
:1004A80083128A11022308001E308A0188208A11CB
:1004B800EF22E130D4008316CF0183128A11022380
:1004C8002730D4003030D50083160130CF00831296
:1004D8008A1102238A118023A030D400831646088B
:1004E8008312D50083160230E000831264001830AE
:1004F800831660028A1183120318AA2AFE30831613
:1005080060078312B200FF300318013EB3003208BF
:10051800A03E84000008B20083166008543E8400A0
:1005280083123208800083166008543E8400000855
:100538008312B200640032080A3C8A110319AA2AFD
:100548008316E00A8A118312031D7A2A831616304D
:10055800CF0083128A1102230130A100F4308A01EE
:10056800962005150130A100F4308A019620051166
:1005780001308A01882064008A110719BF2A0730D0
:10058800D40083160130CF0083128A111F237030E4
:100598003C058316DF0064005F08103C8A11831253
:1005A800031DD82A8A114423640083165F08303C4F
:1005B8008A118312031DE22A8A1156232730D40098
:1005C8002030D50083160130CF0083128A11022310
:1005D8008A11EF22080005110130A100F4308A01C8
:1005E800962005150130A100F4308A0196200511E6
:1005F8000130A100F4308A01962008000710831604
:10060800E00183126400831660084F028A11831286
:10061800031C1D2B83166008543E840000088312B7
:1006280093008A113E238316E00A8A118312031D60
:10063800062B0714080007108316E00183126400D4
:10064800831660084F028A118312031C3C2B54083E
:1006580093008A113E23831660083C3E840083126F
:10066800130880008316E00A8A118312031D232BC6
:100678000714080064008A118C1D3E2B8C11080099
:10068800E130D4008316CF0183128A010223273078
:10069800D4001030D50083160130CF0083128A01B0
:1006A80002230800E130D4008316CF0183128A01A7
:1006B80002232730D4003030D50083160130CF0014
:1006C80083128A01022308008A01EF222030D40015
:1006D8000F30D50083160130CF0083128A01022320
:1006E80008002030D4000D30D50083160130CF002B
:1006F80083128A01022308003030D4008A15182793
:1007080083160530CF0083128A0102232430D400D7
:100718001F30D50083160130CF0083128A010223CF
:100728002030D4000E30D50083160130CF0083125C
:100738008A01022308009F17831670308F008312E6
:1007480003179E0108309F0099019A010313A830EE
:100758008B0083168C01043081008B1783128A1159
:10076800B92B8B1B08008A1525298A01B523831606
:100778003030850083128A01B52383163030860015
:1007880083128A01B52383160430870083128A01F5
:10079800B5238316FF30950083128A01B52303170A
:1007A800FF30950003138A01B523203084006030A0
:1007B8008A016C20A030840050308A016C202030DF
:1007C800840050308A016B208A01B5238316851670
:1007D80083128A01B5230A308A0172208316C60063
:1007E80083128A01B5230C308A017220FB008A012A
:1007F800B5230D308A017220FA008A01B5230B3027
:100808008A0172208316B600B70183128A01B523C4
:100818000E308A0172208316DD0083128A01B52307
:100828000F308A0172208316C20083128A01B52311
:100838008A1541228A01B5238A0132218A01B5230A
:10084800640083164608003C8A1183120319302C71
:1008580083160430CC0083128A01B5238A0148210B
:100868008A01B5238A0168238A01B52302308A01E7
:1008780088208A01B52305158A01B52364008316EB
:100888005108013C8A118312031DCB2C8A01B52320
:100898008316D101831203178D01283003138A01AF
:1008A8007A20031701308D00523003138A017A2011
:1008B800031702308D00453003138A017A2003178D
:1008C80003308D004D3003138A017A20031704305A
:1008D8008D004F3003138A017A20031705308D00ED
:1008E800543003138A017A20031706308D004530EF
:1008F80003138A017A20031707308D004830031349
:100908008A017A20031708308D004F3003138A01BB
:100918007A20031709308D004D3003138A017A209D
:1009280003170A308D00003003138A017A20031759
:100938000B308D00013003138A017A2003170C3025
:100948008D00003003138A017A2003170D308D00C3
:10095800003003138A017A2003170E308D002C30E3
:1009680003138A017A2003170F308D005A300313BE
:100978008A017A208A01B5230330A300E8308A016E
:1009880089208A01B5238A01D72B8A01B5238A01D8
:10099800B523640083164C08013C8A118312031D99
:1009A800FE2C8A01B523831636088312A00083160D
:1009B80037088312A100A30100308A01CF208A11D1
:1009C800031DFC2C8A01B52383160230CC00831248
:1009D8008A01B5238316D20183128A01B5238316AF
:1009E800DE0183128A01B5238A1598248A01B5236A
:1009F8008A01B5238A01B523640083164C08033C99
:100A08008A118312031D1E2D8A01B52364008316E3
:100A18004D08003C8A118312031D1C2D8A01B52341
:100A28008A15DB238A01B5238A15BD268A01B523D9
:100A38008A01B5238A01B523640083162008003C87
:100A48008A1183120319522D8A01B5236400831673
:100A58004408013C8A118312031D432D8A01B523E2
:100A68008A0148218A01B52383160430CC008312F9
:100A78008A01B5238316C40183128A01B5238A012A
:100A8800B5238A0158228A01B5238316A00183124F
:100A98008A01B5238A01342C8A01B5238A01B5233A
:100AA800640083164C08023C8A118312031DA12E90
:100AB8008A01B52364000330831652028A11831217
:100AC800031C9F2E8A01B523640083165D08003C31
:100AD8008A1183120319412E8A01B52364008A11F1
:100AE80083168310BF19831483128318F82D8A0183
:100AF800B523640083165D0857028A118312031810
:100B0800EC2D8A01B523831657085D02D5008312A0
:100B18008A01B52364000730831657028A118312AD
:100B280003189F2D8A01B5238316DA0183128A01DF
:100B3800B5238A11E82D8A01B52364008316550868
:100B4800033C8A118312031DB32D8A01B523831632
:100B58003230DA0083128A01B5238A11E62D8A0120
:100B6800B523640083165508023C8A118312031DBD
:100B7800C72D8A01B52383163C30DA0083128A0117
:100B8800B5238A11E42D8A01B5236400831655081C
:100B9800013C8A118312031DDB2D8A01B5238316BC
:100BA8004B30DA0083128A01B5238A11E22D8A01BB
:100BB800B5238316DA0183128A01B5238A01B52386
:100BC8008A01B5238A01B5238A01B5238A11F42D38
:100BD8008A01B52383166430DA0083128A01B523AB
:100BE8008A01B5238A11FF2D8A01B5238316DA01FC
:100BF80083128A01B5238A01B5238A0175238A01E4
:100C0800B5238A158D238A01B5238316C70183125C
:100C18008A01B523640083164D08003C8A118312AB
:100C28000319222E8A01B52383160130C7008312C7
:100C38008A01B5238A010C2E8A01B5238A01B523BE
:100C48008A0148218A01B523640083164708013CBC
:100C58008A118312031D3F2E8A01B5238A15DB23CF
:100C68008A01B5238A0158228A01B5238316A00177
:100C780083128A01B5238A01B5238A01B5238B0122
:100C88008A01B523831610308F0083128A01B52399
:100C980001308A0188208A01B5238A0175238A01D7
:100CA800B52301308A0188208A01B52383163608C6
:100CB8008312A600831637088312A7000A30A20001
:100CC800A3018A011521B2002508B3003308A70043
:100CD80032088A01AA208A01B52301308A018820B6
:100CE8008A01B5238316D20183128A01B52383169C
:100CF800DE0183128A01B523831670308F008312B8
:100D08008A01B52301308A0188208A01B523A830D9
:100D18008B008A01B52383160430810083128A016F
:100D2800B52383160130CC0083128A01B5238A01CA
:100D3800302C8A01B5238A01B5238A01B5236400C2
:100D480083164C08043C8A118312031DDF2E8A0186
:100D5800B52383164130A00083128A01B523831678
:100D68007330A10083128A01B52383160D30A200C7
:100D780083128A01B52383160A30A30083128A01DD
:100D8800B523EE01EF018A01B523F001F1018A01D3
:100D9800B523F401F5018A01B523F201F3018A01B3
:100DA800B52383160530CC0083128A01B5238A1532
:100DB8003B238A01B5238A01B523640083164C08B6
:100DC800053C8A118312031D152F8A01B52364007F
:100DD80083164D08003C8A118312031D132F8A01C4
:100DE800B523EE01EF018A01B523F001F1018A0173
:100DF800B523F401F5018A01B523F201F3018A0153
:100E0800B52383160630CC0083128A01B523F60178
:100E1800F7018A01B5238A1564238A01B5238A015B
:100E2800B5238A01B523640083164C08063C8A1151
:100E38008312031D552F8A01B523640083164D08BC
:100E4800003C8A118312031D532F8A01B5237608AB
:100E5800FA007708FB008A01B52303170C308D00D0
:100E680003137B088A017A208A01B52303170D3002
:100E78008D0003137A088A017A208A01B523831624
:100E88004130A00083128A01B52383166530A10082
:100E980083128A01B5238A15BD268A01B5238A01E2
:100EA800B5238A01B5236400033083164C028A11E6
:100EB80083120318402C8A01B52364008A1107198C
:100EC800402C8A01B52305118A01B5236130D4006D
:100ED8008A01B52383161630CF0083128A01B52301
:100EE8008A011F238A01B5238316A00183128A0170
:100EF800B52364003D08831646028A158312031D34
:100F0800E6288A01B52364003F083D3C8A15031D85
:100F180070288A01B52364003E08633C8A11031DCA
:100F2800DA2F8A01B5238316C801831264000B30B7
:100F3800831648028A1183120318BF2F04308316C0
:100F480048078312B200B301B30D32083C3E840057
:100F58000008B20083164808831203178D00031394
:100F680032088A017A208A01B5238316C80A8A11B1
:100F78008312031D9A2F8A01B5230A308A01722031
:100F88008316C60083128A01B523FA308A018820A5
:100F98008A01B52383160130C40083128A01B52360
:100FA8008A154F228A01B5238A156C288A01B52330
:100FB80083160430C80083128A01B5238A15642277
:100FC8008A01B52364003E086C3C8A15031D042879
:100FD8008A01B5236400653083165A028A15831284
:100FE800031800288A01B5238A158D238A01B523A1
:100FF8008A154F228A01B5238A01B5238A156A28E2
:101008008A01B52364003E086D3C8A15031D282813
:1010180003170B308D00831603135A0883128A01B5
:101028007A208A01B52383165A08B600B7018312BD
:101038008A01B5238A15BD268A01B5238A154F2250
:101048008A01B5238A1568288A01B52364003E08F9
:10105800743C8A15031D472803170E308D0083162C
:1010680003135A0883128A017A208A01B52383164A
:101078005A08DD0083128A01B5238A154F228A0196
:10108800B5238A1566288A01B52364003E086E3C9C
:101098008A15031D642803170F308D008316031368
:1010A8005A0883128A017A208A01B52383165A08BE
:1010B800C20083128A01B5238A154F228A01B523FB
:1010C8008A01B5238A01B5238A01B5238A01B5238C
:1010D8008A01B5238A15B4288A01B52364003E081D
:1010E800613C8A15031D86288A01B52383160430BE
:1010F800CC0083128A01B5238A154F228A01B523B1
:101108008A15B2288A01B52364003E08703C8A1506
:10111800031DA0288A01B52364003F086E3C8A1588
:10112800031D9C288A01B5238A154F228A01B523FD
:101138008A01B5238A15B0288A01B52364003E08C0
:10114800733C8A15031DAE288A01B5238A15982495
:101158008A01B5238A01B5238A01B5238A01B523FB
:101168008A01B523640083162008003C8A1583127F
:10117800031DE4288A01B52383164530A000831295
:101188008A01B52383165230A10083128A01B52340
:1011980083165230A20083128A01B52383164F307A
:1011A800A30083128A01B52383165230A400831248
:1011B8008A01B52383160A30A50083128A01B52354
:1011C8008A01B5238A01B5231730D4008A01B523D3
:1011D80083160130CF0083128A01B5238A011F23A9
:1011E8008A01B5233D088316DF0083128A01B523DF
:1011F80064008A11831683105F1C8314831283187A
:10120800682F8A01B5232730D4008A01B5234030DE
:10121800D5008A01B52383160130CF0083128A01D5
:10122800B5238A0102238A01B52302308A01882066
:101238008A01B5238A01342C8A01B52363008A15F3
:10124800222964008A150B1D362A8316DE0A6400DB
:101258004D08003C8A1583120319A02964008316DF
:101268004E088312851A013C8A1503195429640013
:1012780083164D08013C8A158312031D4829F60A76
:101288000319F70A8A154E290130F6020030031CAB
:10129800013EF7020030851A01308316CE00831212
:1012A8007608A0007708A1007908A30078088A01C9
:1012B800D9208A15031D6A29640083164C08033C4B
:1012C8008A158312031D6A298A15412283165E082E
:1012D8008312A000A1012830A200A3018A01F920ED
:1012E8002408B2002508B3003208A0003308A10082
:1012F800A30100308A01D9208A15031DA0296400A2
:10130800043083164C028A158312031CA0290B3063
:101318008A014F208316BA00831221088316BB0066
:101328003A088312F20783163B080318013E83121A
:10133800F307F40A0319F50A6400F13083165E0214
:101348008A158312031C352A640083164D08003C55
:101358008A1583120319C2297608A0007708A1000C
:101368007D08A3007C088A01D9208A15031DBE299F
:101378008A1541227608FC007708FD0064000430D5
:1013880083164C028A158312031C282A64008316CC
:101398004D08003C8A1583120319282A7208A000F8
:1013A8007308A1007408A2007508A3008A01F92037
:1013B800B2002108B3003208A6003308A7000A309B
:1013C800A200A3018A0115218316BA0083122508F9
:1013D8008316BB0064005208023C8A158312031D61
:1013E800052A83163A088312A00083163B08831245
:1013F800A1006430A200A3018A01F920EE002108AF
:10140800EF00F201F301F401F50183163A088312A3
:10141800A00083163B088312A1006E08A2006F0883
:10142800A3008A01F920B2002108B3003208A00005
:101438003308A1008316420883128A01D2208A1534
:10144800031D282A8A1541228316DE01D20A640068
:101458003B3052028A158312031C352A8316D201A7
:1014680083120B1164008A150B1C3F2A0B1083167C
:101478000130D10083128B17090007128316071257
:101488008312871283168712CD0183128711831660
:101498008711831208008A01B52383164F30A000F4
:1014A80083128A01B52383164B30A10083128A0167
:1014B800B52383160A30A20083128A01B5230800D7
:1014C8008A01B5238316B801B90183128A01B523AD
:1014D8008316C50183128A01B523831648083C3E4A
:1014E800840000088312B2006400303032028A158A
:1014F800031CE02A8A01B523831648083C3E840071
:1015080000088312B20064003A3032028A150318C8
:10151800DE2A8A01B52383160130C50083128A01A9
:10152800B523831638088312A60083163908831258
:10153800A7000A30A200A3018A011521B2002508DC
:10154800B300831648083C3E840000088312B400A8
:1015580002303407B400B501B50D3230B4020030A2
:10156800031C013EB502320834078316B800831203
:1015780033080318013E35078316B90083128A0120
:10158800B5238316C80A83128A01B523831638083F
:101598008312A000831639088312A1000130A3002A
:1015A80000308A01D3208A15031DDC2A8A156F2A88
:1015B8008A01B5238A01B5238A01B5238316380821
:1015C8008312A000831639088312A100A301FF30FB
:1015D8008A01D6208A15031DFA2A8A01B5238316A3
:1015E800C50183128A01B5238A15022B8A01B52306
:1015F80083163808DA0083128A01B5238A01B523D5
:1016080008008A01B52383165A088312A000A10195
:1016180002308A01BC20B200B30130303207831691
:10162800D70083128A01B52383165A088312A000B3
:10163800A10101308A01BC20B200B3013030320769
:101648008316D50083128A01B52383165A0883129C
:10165800A000A10100308A01BC20B200B3013030E3
:1016680032078316D30083128A01B52308008A0142
:10167800B52383160230CD0083128A01B5230716DD
:101688008316071283128A01B523871283168712DD
:1016980083128A01B52387158316871183128A015D
:1016A800B523FC01FD018A01B5238316DE018312EF
:1016B8008A01B5238316D20183128A01B523080053
:1016C8008A01B52383160130CD0083128A01B52320
:1016D80087168316871283128A01B5230712831689
:1016E800071283128A01B52387158316871183127F
:1016F8008A01B523FC01FD018A01B5238316DE01A9
:1017080083128A01B5238316D20183128A01B52375
:1017180008007A08A6007B08A70083165A088312D7
:10172800A200A3018A0115218316B8008312250897
:101738008316B9008312A30164308A01EB20F800F4
:101748002108F9008A01B52383160330CC008312DF
:101758008A01B5237808A0007908A1007708A300BA
:1017680076088A01CF208A15031DD82B8A01B52354
:101778007808A0007908A1007708A30076088A01F4
:10178800D6208A15031DD02B8A01B5238A15642318
:101798008A01B5238A15D62B8A01B5238A153B23DE
:1017A8008A01B5238A01B5238A01B52308008A0175
:1017B800B52383166C30A00083128A01B5238316E3
:1017C8000130C80083128A01B5238A15EE238A01E5
:1017D800B52308008A01B52383164808A03E840073
:1017E8007C30800083128A01B5237608A60077082A
:1017F800A7000A30A200A3018A011521B20025081A
:10180800B3007A08A0007B08A1000A30A200A30157
:101818008A01F920B4002108B5003208A000330875
:10182800A1003408A2003508A3008A01F920831614
:10183800DA0083128A01B5238316C80A83128A0143
:10184800B5238A1546248A01B52303308316480731
:101858008312B200B301B30D3208A03E84000D30EC
:1018680080008A01B5230430831648078312B2002A
:10187800B301B30D3208A03E84000A3080008A010B
:10188800B52308008A01B52383165A088312A000DD
:10189800A10102308A01BC20B200B3013030B20786
:1018A8000318B30A83164808A03E8400831232083E
:1018B80080008A01B5230130831648078312B400DB
:1018C800B501B50D83165A088312A000A101013095
:1018D8008A01BC20B200B3013030B2070318B30A42
:1018E8003408A03E8400320880008A01B523023003
:1018F800831648078312B400B501B50D83165A083C
:101908008312A000A10100308A01BC20B200B301FB
:101918003030B2070318B30A3408A03E84003208F6
:1019280080008A01B52308008A01B523871483162D
:10193800871083128A01B52302308A0188208A0120
:10194800B5230530BA001030B80001308A013820BC
:10195800CC308A01202044308A0120208A01352099
:101968008A01B5230530BA001030B80004308A0166
:1019780038208A0105208316013903195010031DE8
:10198800501483128A0135208A01B52364008A1510
:10199800831683105018831483128318D52C8A1544
:1019A800B42C8A01B5230530BA001030B8000130D4
:1019B8008A013820CC308A012020BE308A012020BC
:1019C8008A0135208A01B5230530BA001030B800E5
:1019D80002308A0138208A0105208316BE0083124E
:1019E8008A0105208316BF0083128A0135208A01E7
:1019F800B52387108316871083128A01B5238316AF
:101A08003430A00083128A01B52383167C30A100EC
:101A180083128A01B52364008A1583168310BF1DBB
:101A28008314831283186B2D8A01B52383162D30F6
:101A3800A2003E098312B20083163F098312B30045
:101A4800B20A0319B30A7130A6000230A70032089F
:101A5800A2003308A3008A0115218316C700831248
:101A6800A3010A308A01EB208316BC0083122108E7
:101A78008316BD0083128A01B52383163C0883129E
:101A8800A00083163D088312A10004308A01BC20FF
:101A9800B200B301303032078316A30083128A01E3
:101AA800B52383163C088312A00083163D088312D1
:101AB800A10003308A01BC20B200B30130303207E4
:101AC8008316A40083128A01B5238A15182E713053
:101AD800A6000230A70083163E088312A2008316D0
:101AE8003F088312A3008A0115218316C7008312B9
:101AF800A3010A308A01EB208316BC008312210857
:101B08008316BD0083128A01B5238316F0303E0583
:101B18008312B2000F3083163F058312B3003208D8
:101B2800A0003308A10004308A01C9208316BC0034
:101B3800831221088316BD0083128A01B5230F3052
:101B480083163E058312B200B3013208A60033089B
:101B5800A7007130A2000230A3008A011521EC0011
:101B68002508ED008A01B52383163C088312A000DE
:101B780083163D088312A10001308A01BC20B200FF
:101B8800B301303032078316A20083128A01B523CD
:101B980083163C088312A00083163D088312A10017
:101BA80000308A01BC20B200B301303032078316FE
:101BB800A30083128A01B5236C08A0006D08A10058
:101BC80003308A01BC20B200B301303032078316DB
:101BD800A40083128A01B52383163C088312A60049
:101BE800A7010230A200A3018A0115218316D7009C
:101BF80083128A01B523D030831624078312B200DA
:101C0800FF300318013EB3003208A0003308A100DA
:101C1800A30104308A01D6208A15031D162E8316C7
:101C2800D70A83128A01B5238A01B5230317181628
:101C380003138A01B523C8308A0195208A01B52388
:101C48000D308A014F208316B800831221088316AD
:101C5800B90083128A01B5230317181203138A01E6
:101C6800B523FA30A0001730A10083163808831274
:101C7800A200831639088312A3008A01F92083166B
:101C8800C000831221088316C10083128A01B5237C
:101C980083167C30A50083128A01B5238316400879
:101CA8008312A000831641088312A10001308A0123
:101CB800BC20B200B301303032078316A60083126D
:101CC8008A01B523831640088312A00083164108B1
:101CD8008312A10000308A01BC20B200B301303069
:101CE80032078316A70083128A01B52383167C3036
:101CF800A80083128A01B523831636088312A00030
:101D0800831637088312A1000A30A200A3018A01B2
:101D1800F9208316DA0083128A01B5238316093065
:101D2800C80083128A01B5238A1546248A01B5237F
:101D380083167C30AC0083128A01B52383160C30DD
:101D4800C80083128A01B52383165D08DA0083125E
:101D58008A01B5238A155D248A01B52383160F30BD
:101D6800C80083128A01B5238A15EE238A01B52398
:101D780008008A01B523640083164608003C8A15CA
:101D88008312031DD02E8A01B5238316CC0183123A
:101D98008A01B5238A15F42E8A01B52383163608DD
:101DA8008312A000831637088312A100A301003014
:101DB8008A01D9208A15031DEA2E8A01B5238316C4
:101DC800CC0183128A01B5238A15F22E8A01B52324
:101DD80083160130CC0083128A01B5238A01B5230A
:101DE8008A01B52308008A01B52306308A017220CA
:101DF800D5008A01B52307308A017220D6008A01EE
:101E0800B52308308A017220D7008A01B52309302A
:101E18008A017220D8008A01B523831646088312E6
:101E2800D9008A01B52308008A01B52301308A0147
:101E38007220D5008A01B52302308A017220D600AB
:101E48008A01B52303308A017220D7008A01B5239D
:101E580004308A017220D8008A01B52305308A012E
:0A1E68007220D9008A01B52308009A
:02400E00EC3F85
:104200002800520045004D004F0054004500480072
:104210004F004D0000000100000000002C005F0076
:00000001FF
