:02000000AF2827
:10000800080083178001840AFF3E031D0628AA28DA
:10001800031783168C010C1483120C0803178D0A1E
:10002800AA28030103178C0083168C010C15553080
:100038008D00AA308D008C148C1820280C11831286
:100048008D0AAA28A301A200FF30A207031CA30758
:10005800031CAA280330A100E33034202828A1017A
:10006800F43EA000A109FE30031C3D28A007031898
:100078003A28A0076400A10F3A2800002018442855
:10008800201846280800013EA7000A30A200A30154
:100098007820A70B4C2824080800A301A2000230EE
:1000A8005A28A20006305A28A2000530A8002308C2
:1000B8002102031D612822082002043003180130A0
:1000C800031902302805031DFF30AA28A2002008C2
:1000D800A6002408A0002608A4002108A6002508D8
:1000E800A1002608A5007A28A501A4011030A600C1
:1000F800210DA40DA50D2208A4022308031C230F1B
:10010800A50203188E282208A40723080318230F22
:10011800A5070310A00DA10DA60B7C282008AA286E
:100128001030A800A101A001A70CA60C031CA2284E
:100138002208A00723080318230FA107A10CA00C6D
:10014800A50CA40CA80B98282408AA288313031329
:100158008312640008008A11282BC8308A012620DF
:100168009416141414128316141783128C11831600
:100178009413831205150A308A01262005110710E9
:100188008316A201A301831208002A30D0008A1521
:10019800252283160530BA0083128A118B2221305A
:1001A800D0000130D10083160130BA0083128A11C1
:1001B8008B222230D0000130D10083160130BA00E2
:1001C80083128A118B222530D00003178D01031367
:1001D8008A010C20D10083160130BA0083128A11DB
:1001E8008B223130D0001630D10083160130BA008E
:1001F80083128A118B222630D0002730D100831633
:100208000130BA0083128A118B2283160130C5008F
:1002180083128A119C218316C5014030BD004B30E2
:10022800BF000130C100E230C20083128A11C3212D
:1002380083160130C500C030BD004B30BF00C1017E
:10024800C20183128A11C32183160230C500D0303F
:10025800BD00FC30BF008C30C1000230C2008312E8
:100268008A11C32183160330C5009930BD00BF0130
:100278003930C1004130C20083128A11C32183166C
:100288000430C500D930BD00B630BF008230C1008F
:100298001B30C20083128A11C32183160530C500A2
:1002A8002830BD000230BF007F30C100A630C20038
:1002B80083128A11C32183160C30C500BD01123088
:1002C800BF007330C100C20183128A11C321831693
:1002D8000D30C5004630BD00B430BF008030C100CD
:1002E800C20183128A11C3212E30D0004130D100BF
:1002F8002030D2000830D3000430D4008130D5003B
:100308002030D600CF30D700F730D800FE30D900E3
:10031800FF30DA00FF30DB0083160B30BA0083129F
:100328008A118B228316C50183128A119C21080029
:100338000730D00083160130BA0083128A11A82230
:10034800803038058316A400A50124088312A00074
:10035800831625088312A1008316450883128A0193
:1003680051208A11031DC2295030D0005330D100CA
:1003780083160130BA0083128A118B2208002030BC
:10038800831645078312D00083163D088312D100D7
:1003980083163F088312D200831641088312D300C4
:1003A800831642088312D40083160430BA008312DD
:1003B8008A118B2208001E308A0126208A11782291
:1003C800E130D0008316BA0183128A118B222730BC
:1003D800D0003030D10083160130BA0083128A1160
:1003E8008B228A110923A030D00083163308831288
:1003F800D10083160230C8008312640018308316B7
:1004080048028A1183120318332AFE3083164807DC
:10041800A400FF300318013EA5002408683E8400AC
:10042800831200088316A4004808503E840024085C
:100438008312800083164808503E84008312000807
:100448008316A400640024080A3C8A118312031945
:10045800332A8316C80A8A118312031D012A8316B8
:100468001630BA0083128A118B220130A100F430B1
:100478008A01342005150130A100F4308A013420A6
:10048800051101308A01262064008A110719482ABB
:100498000730D00083160130BA0083128A11A822CF
:1004A800703038058316C70064004708103C8A116D
:1004B8008312031D612A8A11CD226400831647081E
:1004C800303C8A118312031D6B2A8A11DF222730E0
:1004D800D0002030D10083160130BA0083128A116F
:1004E8008B228A117822080005110130A100F4300E
:1004F8008A01342005150130A100F4308A01342026
:1005080005110130A100F4308A01342008000710D9
:100518008316C80183126400831648083A028A11B8
:100528008312031CA62A83164808503E84008312AF
:10053800000893008A11C7228316C80A8A118312F9
:10054800031D8F2A0714080007108316C801831299
:100558006400831648083A028A118312031CC52ACC
:10056800500893008A11C72283164808383E840031
:100578008312130880008316C80A8A118312031D88
:10058800AC2A0714080064008A118C1DC72A8C1134
:100598000800E130D0008316BA0183128A018B2249
:1005A8002730D0001030D10083160130BA008312F2
:1005B8008A018B220800E130D0008316BA01831229
:1005C8008A018B222730D0003030D10083160130C9
:1005D800BA0083128A018B2208008A01782220300F
:1005E800D0000F30D10083160130BA0083128A017F
:1005F8008B2208002030D0000D30D1008316013046
:10060800BA0083128A018B2208003030D0008A1584
:10061800522283160530BA0083128A018B222430B5
:10062800D0001F30D10083160130BA0083128A012E
:100638008B222030D0000E30D10083160130BA0052
:1006480083128A018B220800831670308F00831270
:1006580003179E019F0199019A010313A0308B0093
:1006680083168C01073081008B1783128A11402B67
:100678008B1B08008A1532288A013C2383168501C2
:1006880083128A013C2383163030860083128A0144
:100698003C2383160430870083128A013C23831687
:1006A800950183128A013C23031720309500031318
:1006B8008A013C232030840060308A010620A03063
:1006C800840050308A0106202030840050308A018E
:1006D80005208A013C238A1586208A013C230317BA
:1006E8000A308D0003138A010C208316B30083128D
:1006F8008A013C2303170B308D0003138A010C2059
:100708008316AC00AD0183128A013C2383162C08A2
:100718008312A60083162D088312A7001E30A2009C
:10072800A3018A0194208316AC008312250883163E
:10073800AD0083128A013C238316851283128A0135
:100748003C238316051283128A013C2383168616DE
:1007580083128A013C238A01B1208A013C238A0141
:10076800C9208A013C238A01C9208A013C238A01C5
:10077800F1228A013C2302308A0126208A013C2387
:1007880005158A013C2364008A11861A2B2C03174D
:100798008D01283003138A011620031701308D00BC
:1007A800523003138A011620031702308D0045309A
:1007B80003138A011620031703308D004D300313ED
:1007C8008A011620031704308D004F3003138A0165
:1007D8001620031705308D00543003138A011620A4
:1007E800031706308D00453003138A0116200317BE
:1007F80007308D00483003138A011620031708308C
:100808008D004F3003138A011620031709308D001D
:100818004D3003138A01162003170A308D0000306B
:1008280003138A01162003170B308D0001300313C0
:100838008A0116208A013C230330A300E8308A018C
:1008480027208A013C238A015C2B8A013C238A01E8
:100858003C2364006808003C8A110319552C8A015E
:100868003C23640083162F08013C8A118312031D60
:10087800482C8A013C238A01C9208A013C2383161B
:10088800AF0183128A013C238A013C238A01DF21BC
:100898008A013C23E8018A013C238A01B92B8A0199
:1008A8003C238A013C2364008A110719C52B8A015D
:1008B8003C2305118A013C236130D0008A013C2386
:1008C80083161630BA0083128A013C238A01A822B3
:1008D8008A013C23E8018A013C2364003908831615
:1008E80033028A118312031DF32F8A013C2364000B
:1008F8003A08633C8A11031DD52C8A013C23640005
:100908003B083D3C8A11031DD12C8A013C238316E8
:10091800B601831264000B30831636028A118312E3
:100928000318B52C83163608831203178D0004307C
:10093800831603133607A400A501A50D2408383E25
:100948008400831200088316A400240883128A01F5
:1009580016208A013C238316B60A8A118312031DC6
:100968008E2C8A013C2303170A308D0003138A0159
:100978000C208316B30083128A013C23FA308A01C3
:1009880026208A013C2383160130AF0083128A0196
:100998003C238A1525218A013C238A013C238A119C
:1009A800CB2F64003A08623C8A11031D092F8A0183
:1009B8003C2364003B08743C8A11031D272D8A01DF
:1009C8003C2364003C083D3C8A11031D232D8A0109
:1009D8003C2383160530B60083128A013C238A150E
:1009E80038218A013C23640083163008013C8A11AF
:1009F8008312031D212D03170B308D00831603135B
:100A0800430883128A0116208A013C23831643086F
:100A18008312A600A7011E30A200A3018A01942018
:100A28008316AC00831225088316AD0083128A0151
:100A38003C238A1525218A013C238A013C238A010B
:100A48003C238A11052FA001A10183162D088312CA
:100A5800A30083162C0883128A0158208A11031DCB
:100A6800392D8A013C238A11052F64003B08643C18
:100A78008A11031D6B2D8A013C2383162C088312CF
:100A8800FE0083162D088312FF008A013C237E088E
:100A98008316A00083127F088316A10083128A019F
:100AA8003C238A15B8208A013C2383163108B700F5
:100AB80083128A013C2383166430B10083128A01B1
:100AC8003C238A1525218A013C238A11052F6400BD
:100AD8003B08753C8A11031D9C2D8A013C23831613
:100AE8002C088312FE0083162D088312FF008A014A
:100AF8003C237E088316A00083127F088316A1007A
:100B080083128A013C238A159A208A013C23831682
:100B18003108B70083128A013C238316B10183127E
:100B28008A013C238A1525218A013C238A11052F35
:100B380064003B086D3C8A11031D492E8A013C2341
:100B480064003C083D3C8A11031D452E8A013C2364
:100B580083160530B60083128A013C238A15382192
:100B68008A013C23640083163008013C8A118312F1
:100B7800031D432E8A013C2364006530831643021B
:100B88008A1183120318412E8A013C2364008316BC
:100B9800430831028A118312031DDF2D8A013C2389
:100BA8008A1525218A013C230430FE00FF018A01B1
:100BB8003C238A113F2E64008316430831028A11B0
:100BC80083120318142E8A013C238316310843022A
:100BD800BE0083128A013C2383163108B7008312B2
:100BE8008A013C238A1505218A013C237E08831645
:100BF800A00083127F088316A10083128A013C2378
:100C08008A15B8208A013C2383164308B100831251
:100C18008A013C238A1525218A013C238A113F2E0B
:100C28008A013C23831643083102BE0083128A01DD
:100C38003C2383163108B70083128A013C238A15A6
:100C480005218A013C237E088316A00083127F08B1
:100C58008316A10083128A013C238A159A208A01EF
:100C68003C2383164308B10083128A013C238A156A
:100C780025218A013C238A013C238A013C238A01DD
:100C88003C238A013C238A11052F64003B08733CEE
:100C98008A11031D052F8A013C236400831632083C
:100CA800003C8A1183120319F82E8A013C237E081E
:100CB80083162002AA0083127F08031C013E8316B4
:100CC8002102AB002A088312A60083162B08831280
:100CD800A7006430A200A3018A0194208316AA0009
:100CE800831225088316AB002D088312A3008316F0
:100CF8002C0883128A016A208316A6008312210811
:100D08008316A70083128A013C23640083163208E5
:100D1800013C8A118312031DBC2E8A013C238316D1
:100D280037082607A80027080318013EA9008312E0
:100D38008A013C23831628088312A00083162908F9
:100D48008312A100A30164308A0155208A11031D72
:100D5800B22E83166430A800A90183128A013C23AD
:100D680083162808B10083128A013C238A11EB2ECE
:100D7800640083163208023C8A118312031DEB2E8D
:100D88008A013C23831637088312A000A101831629
:100D980027088312A3008316260883128A01552088
:100DA8008A11031DE22E8A013C2383162608370286
:100DB800B10083128A013C238A11E92E8A013C235F
:100DC8008316B10183128A013C238A013C238A01DC
:100DD8003C238A1525218A013C230430FE00FF01AB
:100DE8008A013C238A11032F8A013C238A15252175
:100DF8008A013C230430FE00FF018A013C238A015A
:100E08003C238A013C238A11CB2F64003A08733CA7
:100E18008A11031D7F2F8A013C233530E8008A019F
:100E28003C237C30E9008A013C233030851A013E9E
:100E3800EA008A013C237C30EB008A013C233030F5
:100E4800051A013EEC008A013C237C30ED008A0142
:100E58003C2383162C088312A00083162D088312C6
:100E6800A1001E30A200A3018A0178208316C300C6
:100E780083128A013C238A15EF218A013C238316B9
:100E880040088312EE008A013C2383163E08831231
:100E9800EF008A013C2383163C088312F0008A0184
:100EA8003C237C30F1008A013C2383163B08C300B5
:100EB80083128A013C238A15EF218A013C23831679
:100EC80040088312F2008A013C2383163E088312ED
:100ED800F3008A013C2383163C088312F4008A013C
:100EE8003C230D30F5008A013C230A30F6008A01C4
:100EF8003C238A11CB2F64003A08703C8A11031DE9
:100F0800972F8A013C2364003B086E3C8A11031D1D
:100F1800932F8A013C238A1525218A013C238A01C3
:100F28003C238A11CB2F64003A08753C8A11031DB3
:100F3800A92F8A013C238A159A208A013C238A1505
:100F480025218A013C238A11CB2F64003A08643C8E
:100F58008A11031DBB2F8A013C238A15B8208A01F8
:100F68003C238A1525218A013C238A11CB2F640052
:100F78003A08653C8A11031DCB2F8A013C238A1548
:100F880086208A013C238A1525218A013C238A016F
:100F98003C2364006808003C8A11031DF12F8A0174
:100FA8003C234530E8008A013C235230E9008A019D
:100FB8003C235230EA008A013C234F30EB008A017F
:100FC8003C235230EC008A013C230D30ED008A01AD
:100FD8003C230A30EE008A013C238A013C238A0123
:100FE8003C231730D0008A013C2383160130BA0015
:100FF80083128A013C238A01A8228A013C233908EA
:101008008316C70083128A013C2364008A11831661
:101018008310471C8314831283185E2C8A013C2397
:101028002730D0008A013C234030D1008A013C237C
:1010380083160130BA0083128A013C238A018B226D
:101048008A013C2302308A0126208A013C238A0136
:10105800B92B8A013C2363008A152F2864008A155E
:101068000B1D6C288316C60A83127E08A0007F0811
:10107800A100A30100308A0155208A15031D5628B6
:101088000130FE020030031C013EFF02A001A10155
:101098007F08A3007E088A0158208A15031D562858
:1010A8008A156E2064001F30831646028A15831243
:1010B800031C6B288316C601BB0A64003C303B0244
:1010C8008A158312031C6B288316BB0183120B112C
:1010D8008B1709008A013C23851283168512831217
:1010E8008A013C2305128316051283128A013C23C8
:1010F8008A15D6208A013C238316B20183128A01FD
:101108003C2308008A013C2385128316851283122A
:101118008A013C2305128316051283128A013C2397
:101128008316B20183128A013C2308008A013C23FA
:101138008A1586208A013C2364308A0126208A0188
:101148003C2385168316851283128A013C230512D7
:101158008316051283128A013C2383160230B200DB
:1011680083128A013C2308008A013C238A158620C1
:101178008A013C2364308A0126208A013C23851297
:101188008316851283128A013C23051683160512DD
:1011980083128A013C2383160130B20083128A012C
:1011A8003C2308008A013C236C30E8008A013C2378
:1011B8007C30E9008A013C2383163108C30083127E
:1011C8008A013C238A15EF218A013C2383164008B3
:1011D8008312EA008A013C2383163E088312EB003F
:1011E8008A013C2383163C088312EC008A013C23C5
:1011F8000D30ED008A013C230A30EE008A013C23C1
:10120800080083162C088312A60083162D08831263
:10121800A70083163E088312A200A3018A01942026
:101228008316AA00831225088316AB008312A30134
:1012380064308A016A20FE002108FF008A013C23ED
:1012480008008A013C234F30E8008A013C234B30D8
:10125800E9008A013C230D30EA008A013C230A3068
:10126800EB008A013C2308008A013C238316B00165
:1012780083128A013C2383166130C30083128A01DA
:101288003C238316AE0183126400033083162E02BA
:101298008A1583120318C0298A013C2383166130FA
:1012A800BC0083128A013C2383163608383E84002A
:1012B800831200088316BE0083128A013C2364004F
:1012C80083163E087C3C8A158312031D6C2908008E
:1012D8008A013C238A15C3218A013C2364008316B2
:1012E8003C08613C8A158312031D7B2908008A018A
:1012F8003C23640083162E08003C8A158312031DC4
:1013080095298A013C2383163C08C30083128A016D
:101318003C2383160130B00083128A013C238A15CE
:10132800B3298A013C23831643088312A600A70128
:101338000A30A200A3018A0194208316A400831214
:1013480025088316A50024083C07C30083128A01D8
:101358003C2383160130B00083128A013C238A01A2
:101368003C238316B60A83128A013C238316AE0AED
:101378008A158312031D48298A013C2308008A0123
:101388003C23FF30A200A20A2208093C8A15031C4C
:10139800EC298A15DB2183163E028A158312031D68
:1013A800C72922088316BC0083128A15EC29093044
:1013B8008A002208E23E03188A0A82003034313457
:1013C80032343334343435343634373438343934C9
:1013D8008A013C2308008A013C23831643088312B0
:1013E800A000A10102308A0147208316A400A501AC
:1013F80030302407C00083128A013C238316430837
:101408008312A000A10101308A0147208316A4009D
:10141800A50130302407BE0083128A013C238316BD
:1014280043088312A000A10100308A0147208316D7
:10143800A400A50130302407BC0083128A013C2394
:1014480008008A013C23031706308D0003138A0124
:101458000C20D1008A013C23031707308D000313A9
:101468008A010C20D2008A013C23031708308D0022
:1014780003138A010C20D3008A013C230317093087
:101488008D0003138A010C20D4008A013C238316A3
:1014980033088312D5008A013C2308008A013C23C3
:1014A800031701308D0003138A010C20D1008A0133
:1014B8003C23031702308D0003138A010C20D2004D
:1014C8008A013C23031703308D0003138A010C2083
:1014D800D3008A013C23031704308D0003138A01CB
:1014E8000C20D4008A013C23031705308D00031318
:0C14F8008A010C20D5008A013C2308006A
:02400E00CC3FA5
:104200002800520045004D004F0054004500480072
:104210004F004D0000000100000000000000000001
:00000001FF
