:02000000AB282B
:10000800080083178001840AFF3E031D0628A628DE
:1000180003178D0083168C130C1483120C08A62862
:1000280003178C0083168C130C1555308D00AA30DD
:100038008D008C148C181E280C11A628A301A20070
:10004800FF30A207031CA307031CA6280330A10046
:10005800E33030202428A101F43EA000A109FE309D
:10006800031C3928A00703183628A0076400A10F2D
:100078003628000020184028201842280800013E91
:10008800A7000A30A200A3017420A70B482824085F
:100098000800A301A20002305628A2000630562804
:1000A800A2000530A80023082102031D5D282208AC
:1000B8002002043003180130031902302805031DFB
:1000C800FF30A628A2002008A6002408A0002608C1
:1000D800A4002108A6002508A1002608A500762866
:1000E800A501A4011030A600210DA40DA50D22081C
:1000F800A4022308031C230FA50203188A28220838
:10010800A40723080318230FA5070310A00DA10DAA
:10011800A60B78282008A6281030A800A101A00165
:10012800A70CA60C031C9E282208A0072308031866
:10013800230FA107A10CA00CA50CA40CA80B9428B4
:100148002408A628831303138312640008008A1165
:100158001C2BC8308A0122209416141414128316FA
:10016800141783128C1183169413831205150A3001
:100178008A012220051107108316A401A501831204
:1001880008002A30D2008A15442283160530BA00A6
:1001980083128A117F222130D2000130D3008316C6
:1001A8000130BA0083128A117F222230D200013036
:1001B800D30083160130BA0083128A117F222530BA
:1001C800D20000308A010C20D30083160130BA0017
:1001D80083128A117F223130D2001630D300831661
:1001E8000130BA0083128A117F222630D2000730EC
:1001F800D30083160130BA0083128A117F22831636
:100208000130C50083128A1196218316C50140303A
:10021800BD004B30BF000130C100E230C200831284
:100228008A11B92183160130C500C030BD004B309A
:10023800BF00C101C20183128A11B921831602309D
:10024800C500D030BD00FC30BF008C30C10002308A
:10025800C20083128A11B92183160330C500993070
:10026800BD00BF013930C1004130C20083128A117C
:10027800B92183160430C500D930BD00B630BF009F
:100288008230C1001B30C20083128A11B921831643
:100298000530C5002830BD000230BF007F30C100E6
:1002A800A630C20083128A11B92183160C30C5000A
:1002B800BD011230BF007330C100C20183128A1120
:1002C800B92183160D30C5004630BD00B430BF00DB
:1002D8008030C100C20183128A11B9212E30D200A8
:1002E8004130D3002030D4000830D5000430D60087
:1002F8008130D7002030D800CF30D900F730DA006D
:10030800FE30DB00FF30DC00FF30DD0083160B30F1
:10031800BA0083128A117F228316C50183128A11BB
:10032800962108000730D20083160130BA008312E4
:100338008A119C2280303A05B200B3013208A0002D
:100348003308A1008316450883128A014D208A11BB
:10035800031DB8295030D2005330D3008316013022
:10036800BA0083128A117F220800203083164507BD
:100378008312D20083163D088312D30083163F08E8
:100388008312D400831641088312D50083164208CD
:100398008312D60083160430BA0083128A117F2292
:1003A80008001E308A0122208A116C22E130D20016
:1003B8008316BA0183128A117F222730D200303087
:1003C800D30083160130BA0083128A117F228A1162
:1003D800FD22A030D200831633088312D30083167F
:1003E8000230C800831264001830831648028A114C
:1003F80083120318272AFE30831648078312B20097
:10040800FF300318013EB30032086A3E840000083A
:10041800B20083164808523E8400831232088000D6
:1004280083164808523E840000088312B200640014
:1004380032080A3C8A110319272A8316C80A8A1126
:100448008312031DF72983161630BA0083128A1106
:100458007F220130A100F4308A01302005150130D7
:10046800A100F4308A013020051101308A012220D0
:1004780064008A1107193C2A0730D200831601301C
:10048800BA0083128A119C2270303A058316C7007D
:1004980064004708103C8A118312031D552A8A11EB
:1004A800C122640083164708303C8A118312031D59
:1004B8005F2A8A11D3222730D2002030D300831636
:1004C8000130BA0083128A117F228A116C22080037
:1004D80005110130A100F4308A01302005150130E2
:1004E800A100F4308A01302005110130A100F43058
:1004F8008A013020080007108316C801831264009F
:10050800831648083A028A118312031C9A2A831612
:100518004808523E84000008831293008A11BB22C7
:100528008316C80A8A118312031D832A0714080038
:1005380007108316C80183126400831648083A021C
:100548008A118312031CB92A520893008A11BB220C
:10055800831648083A3E84008312130880008316E5
:10056800C80A8A118312031DA02A07140800640010
:100578008A118C1DBB2A8C110800E130D200831629
:10058800BA0183128A017F222730D2001030D300AB
:1005980083160130BA0083128A017F220800E130F5
:1005A800D2008316BA0183128A017F222730D20033
:1005B8003030D30083160130BA0083128A017F22BB
:1005C80008008A016C222030D2000F30D300831635
:1005D8000130BA0083128A017F2208002030D2003D
:1005E8000D30D30083160130BA0083128A017F22AE
:1005F80008003030D2008A15652283160530BA000B
:1006080083128A017F222430D2001F30D300831640
:100618000130BA0083128A017F222030D2000E30C6
:10062800D30083160130BA0083128A017F220800A2
:10063800831670308F00831203179E019F01990162
:100648009A010313A0308B0083168C0107308100B8
:100658008B1783128A11342B8B1B08008A154828A4
:100668008A0130238316850183128A013023831679
:100678003030860083128A013023831604308700C5
:1006880083128A0130238316950183128A0130234D
:1006980003172030950003138A013023203084008B
:1006A80060308A010620A030840050308A0106207C
:1006B8002030840050308A0105208A0130238A15B1
:1006C800A3208A0130230A308A010C208316B30044
:1006D80083128A0130230B308A010C208316AC0068
:1006E800AD0183128A01302383162C088312A600D9
:1006F80083162D088312A7001E30A200A3018A01C9
:1007080090208316AC00831225088316AD0083124F
:100718008A0130238316851283128A0130238316B7
:10072800051283128A0130238316861683128A01E2
:1007380030238A01AD208A0130238A01C5208A012D
:1007480030238A01C5208A0130238A01E5228A01E3
:10075800302302308A0122208A01302305158A01BC
:10076800302364008A11861A192C03178D0128304A
:1007780003138A011420031701308D00523003132C
:100788008A011420031702308D00453003138A01B3
:100798001420031703308D004D3003138A011420F1
:1007A800031704308D004F3003138A0114200317F8
:1007B80005308D00543003138A01142003170630C6
:1007C8008D00453003138A011420031707308D006C
:1007D800483003138A011420031708308D004F3066
:1007E80003138A011420031709308D004D300313B9
:1007F8008A01142003170A308D00003003138A0180
:10080800142003170B308D00013003138A011420C4
:100818008A0130230330A300E8308A0123208A01AB
:1008280030238A01502B8A0130238A013023640047
:100838006A08003C8A110319432C8A01302364009A
:1008480083162F08013C8A118312031D362C8A0156
:1008580030238A01C5208A0130238316AF01831211
:100868008A0130238A0130238A01D5218A01302365
:10087800EA018A0130238A01A72B8A0130238A01E1
:10088800302364008A110719B32B8A01302305111C
:100898008A0130236130D2008A0130238316163052
:1008A800BA0083128A0130238A019C228A013023EC
:1008B800EA018A01302364003B08831633028A1553
:1008C8008312031D09288A01302364003C08633C15
:1008D8008A11031DBE2C8A01302364003D083D3C6B
:1008E8008A11031DBA2C8A0130238316B60183129C
:1008F80064000B30831636028A1183120318A12C68
:100908000430831636078312B200B301B30D3208E0
:100918003A3E84000008B200831636088312031793
:100928008D00031332088A0114208A0130238316AC
:10093800B60A8A118312031D7C2C8A0130230A30DF
:100948008A010C208316B30083128A013023FA30FF
:100958008A0122208A01302383160130AF008312D6
:100968008A0130238A1546218A0130238A013023DF
:100978008A11E12F8A01302364003C08623C8A1105
:10098800031D092F8A01302364003D08743C8A1135
:10099800031D122D8A01302364003E083D3C8A1154
:1009A800031D0E2D8A01302383160530B6008312ED
:1009B8008A0130238A1559218A013023640083165D
:1009C8003008013C8A118312031D0C2D03170B30CC
:1009D8008D0083160313430883128A0114208A01A9
:1009E8003023831643088312A600A7011E30A200F5
:1009F800A3018A0190208316AC0083122508831670
:100A0800AD0083128A0130238A1546218A013023DA
:100A18008A0130238A0130238A11052F8A01302365
:100A280083162C088312A00083162D088312A100B8
:100A3800A30100308A0154208A11031D272D8A0141
:100A480030238A11032F8A01302364003D08643C57
:100A58008A11031D572D8A01302383162C08A00004
:100A68002D08A10083128A01302383162008A200D2
:100A78002108A30083128A0130238A15D5208A0110
:100A8800302383163108B70083128A013023831676
:100A98006430B10083128A0130238A1546218A0105
:100AA80030238A11012F8A01302364003D08753CE8
:100AB8008A11031D862D8A01302383162C08A00075
:100AC8002D08A10083128A01302383162008A20072
:100AD8002108A30083128A0130238A15B7208A01CE
:100AE800302383163108B70083128A013023831616
:100AF800B10183128A0130238A1546218A013023E5
:100B08008A11FF2E8A01302364003D086D3C8A114A
:100B1800031D372E8A01302364003E083D3C8A11AC
:100B2800031D332E8A01302383160530B600831245
:100B38008A0130238A1559218A01302364008316DB
:100B48003008013C8A118312031D312E8A0130239B
:100B580064006530831643028A11831203182F2E0E
:100B68008A01302364008316430831028A118312F4
:100B7800031DCD2D8A0130238A1546218A01302391
:100B880083160430A000A10183128A0130238A1140
:100B98002D2E8A01302364008316430831028A11FE
:100BA80083120318022E8A01302383163108430268
:100BB800BE0083128A01302383163108B7008312DE
:100BC8008A0130238A1522218A01302383162008BE
:100BD800A2002108A30083128A0130238A15D52098
:100BE8008A01302383164308B10083128A01302317
:100BF8008A1546218A0130238A112B2E8A01302337
:100C0800831643083102BE0083128A0130238316FB
:100C18003108B70083128A0130238A1522218A01FC
:100C2800302383162008A2002108A30083128A011A
:100C380030238A15B7208A01302383164308B10070
:100C480083128A0130238A1546218A0130238A01BA
:100C580030238A0130238A0130238A0130238A0114
:100C680030238A11FD2E8A01302364003D08733C2D
:100C78008A11031DFB2E8A01302364008316320873
:100C8800003C8A1183120319EC2E8A013023831643
:100C980020082202AA002108031C013E2302AB00FF
:100CA8002A088312A60083162B088312A700643033
:100CB800A200A3018A0190208316AA0083122508A6
:100CC8008316AB002D088312A30083162C08831209
:100CD8008A0166208316A600831221088316A700BE
:100CE80083128A013023640083163208013C8A117A
:100CF8008312031DAA2E8A0130238316370826077C
:100D0800A80027080318013EA90083128A0130238E
:100D1800831628088312A000831629088312A100CD
:100D2800A30164308A0151208A11031DA02E831665
:100D38006430A800A90183128A0130238316280889
:100D4800B10083128A0130238A11DD2E8A013023F3
:100D5800640083163208023C8A118312031DDB2EBD
:100D68008A013023831637088312A000A101831655
:100D780027088312A3008316260883128A015120AC
:100D88008A11031DD22E8A013023831626083702C2
:100D9800B10083128A0130238A11D92E8A013023A7
:100DA8008316B10183128A0130238A0130238A0114
:100DB80030238A0130238A1546218A01302383167D
:100DC8000430A000A10183128A0130238A11F92E70
:100DD8008A0130238A1546218A013023831604307C
:100DE800A000A10183128A0130238A0130238A01DD
:100DF80030238A0130238A0130238A0130238A0173
:100E080030238A0130238A11DF2F8A0130236400BE
:100E18003C08733C8A11031D812F8A013023353029
:100E2800EA008A0130237C30EB008A01302330301D
:100E3800851A013EEC008A0130237C30ED008A01DE
:100E480030233030051A013EEE008A0130237C3011
:100E5800EF008A01302383162C088312A000831622
:100E68002D088312A1001E30A200A3018A0174205C
:100E78008316C30083128A0130238A150E228A0141
:100E88003023831640088312F0008A01302383162A
:100E98003E088312F1008A01302383163C0883122E
:100EA800F2008A0130237C30F3008A013023831654
:100EB8003B08C30083128A0130238A150E228A0157
:100EC8003023831640088312F4008A0130238316E6
:100ED8003E088312F5008A01302383163C088312EA
:100EE800F6008A0130230D30F7008A0130230A30DA
:100EF800F8008A0130238A11DD2F8A01302364002B
:100F08003C08703C8A11031D9B2F8A013023640022
:100F18003D086E3C8A11031D972F8A0130238A15DC
:100F280046218A0130238A0130238A11DB2F8A0166
:100F3800302364003C08753C8A11031DAF2F8A01D9
:100F480030238A15B7208A0130238A1546218A0161
:100F580030238A11D92F8A01302364003C08643C6D
:100F68008A11031DC32F8A0130238A15D5208A01CF
:100F780030238A1546218A0130238A11D72F8A0106
:100F8800302364003C08653C8A11031DD52F8A0173
:100F980030238A15A3208A0130238A1546218A0125
:100FA80030238A0130238A0130238A0130238A01C1
:100FB80030238A0130238A0130238A0130236400D8
:100FC8006A08003C8A15031D07288A01302345302A
:100FD800EA008A0130235230EB008A013023523074
:100FE800EC008A0130234F30ED008A013023523063
:100FF800EE008A0130230D30EF008A0130230A30D9
:10100800F0008A0130238A0130238A013023173007
:10101800D2008A01302383160130BA0083128A0174
:1010280030238A019C228A0130233B088316C7009B
:1010380083128A01302364008A1183168310471CA7
:101048008314831283184C2C8A0130232730D20052
:101058008A0130234030D3008A01302383160130BF
:10106800BA0083128A0130238A017F228A01302341
:1010780002308A0122208A0130238A01A72B8A01A3
:10108800302363008A15452864008A150B1D8928BA
:101098008316C60A20088312A0008316210883122B
:1010A800A100A30100308A0151208A15031D73286D
:1010B80001308316A0020030031C013EA102200863
:1010C8008312A000831621088312A100A301003017
:1010D8008A0154208A15031D73288A158B20640001
:1010E8001F30831646028A158312031C882883162C
:1010F800C601BB0A64003C303B028A158312031CFC
:1011080088288316BB0183120B118B1709008A01EB
:10111800302385128316851283128A013023051223
:101128008316051283128A0130238A15F3208A0157
:1011380030238316B20183128A01302308008A0102
:10114800302385128316851283128A0130230512F3
:101158008316051283128A0130238316B201831283
:101168008A01302308008A0130238A15A3208A01C6
:10117800302364308A0122208A01302385168316A1
:10118800851283128A0130230512831605128312F1
:101198008A01302383160230B20083128A01302379
:1011A80008008A0130238A15A3208A01302364307D
:1011B8008A0122208A013023851283168512831220
:1011C8008A01302305168316051283128A013023FB
:1011D80083160130B20083128A01302308008A0185
:1011E80030236C30EA008A0130237C30EB008A011E
:1011F800302383163108C30083128A0130238A15ED
:101208000E228A013023831640088312EC008A01DB
:10121800302383163E088312ED008A01302383169B
:101228003C088312EE008A0130230D30EF008A015A
:1012380030230A30F0008A013023080083162C0876
:101248008312A60083162D088312A70083163E0872
:101258008312A200A3018A0190208316AA00831298
:1012680025088316AB008312A30164308A01662027
:101278008316A000831221088316A10083128A0115
:10128800302308008A0130234F30EA008A013023D6
:101298004B30EB008A0130230D30EC008A013023FB
:1012A8000A30ED008A01302308008A0130238316B2
:1012B800B00183128A01302383166130C300831280
:1012C8008A0130238316AE0183126400033083162B
:1012D8002E028A1583120318DF298A013023831608
:1012E8006130BC0083128A013023831636083A3EE7
:1012F80084000008BE0083128A013023640083162C
:101308003E087C3C8A158312031D8B2908008A013C
:1013180030238A15E2218A013023640083163C08B1
:10132800613C8A158312031D9A2908008A0130231B
:10133800640083162E08003C8A158312031DB42905
:101348008A01302383163C08C30083128A013023A4
:1013580083160130B00083128A0130238A15D229FE
:101368008A013023831643088312A600A7010A3096
:10137800A200A3018A019020B2002508B3008316B9
:101388003C08831232078316C30083128A01302374
:1013980083160130B00083128A0130238A0130237A
:1013A8008316B60A83128A0130238316AE0A8A1579
:1013B8008312031D69298A01302308008A0130231A
:1013C800FF30A200A20A2208093C8A15031C0B2A36
:1013D8008A15FA2183163E028A158312031DE6290F
:1013E80022088316BC0083128A150B2A0A308A0049
:0413F8002208002A9D
:101400008207303431343234333434343534363482
:101410003734383439348A01302308008A013023C4
:10142000831643088312A000A10102308A014320E1
:10143000B200B301303032078316C00083128A0134
:101440003023831643088312A000A10101308A01D2
:101450004320B200B301303032078316BE0083123E
:101460008A013023831643088312A000A1010030B3
:101470008A014320B200B301303032078316BC002A
:1014800083128A01302308008A01302306308A0142
:101490000C20D3008A01302307308A010C20D400AD
:1014A0008A01302308308A010C20D5008A013023BC
:1014B00009308A010C20D6008A01302383163308B4
:1014C0008312D7008A01302308008A0130230130BB
:1014D0008A010C20D3008A01302302308A010C20BB
:1014E000D4008A01302303308A010C20D5008A0100
:1014F000302304308A010C20D6008A0130230530C5
:0C1500008A010C20D7008A01302308006B
:02400E00CC3FA5
:104200002800520045004D004F0054004500480072
:104210004F004D0000000100000000000000000001
:00000001FF
